:100000000C9469000C941D070C94F6060C94910056
:100010000C9491000C9491000C9491000C94D205D6
:100020000C9491000C9491000C9491000C94440752
:100030000C9491000C9491000C9491000C949100FC
:100040000C94AC060C9491000C947A060C94540613
:100050000C9491000C9491000C9491000C949100DC
:100060000C9491000C9491000000000023002600E5
:100070002900303030303300524F42424F2D0000C3
:10008000000000240027002A0000000008000201F0
:10009000000003040700000000000000000102044B
:1000A00008102040800102040810200102040810FA
:1000B0002000000000250028002B00040404040494
:1000C0000404040202020202020303030303030204
:1000D0001B0811241FBECFEFD8E0DEBFCDBF12E05A
:1000E000A0E0B1E0E2EBFFE102C005900D92A83B79
:1000F000B107D9F724E0A8EBB2E001C01D92A53A00
:10010000B207E1F710E0C9E6D0E004C02197FE0194
:100110000E94C10FC836D107C9F70E94AC080C94E1
:10012000D70F0C940000AF92BF92CF92DF92EF9264
:10013000FF920F931F93CF93DF936C017B018B0191
:10014000040F151FEB015E01AE18BF08C017D107E1
:1001500059F06991D601ED91FC910190F081E02D6B
:10016000C6010995892B79F7C501DF91CF911F91C0
:100170000F91FF90EF90DF90CF90BF90AF900895D8
:10018000FC01538D448D252F30E0842F90E0821B9D
:10019000930B541710F0CF96089501970895FC0122
:1001A000918D828D981761F0A28DAE0FBF2FB11D7A
:1001B0005D968C91928D9F5F9F73928F90E00895D2
:1001C0008FEF9FEF0895FC01918D828D981731F08C
:1001D000828DE80FF11D858D90E008958FEF9FEFE0
:1001E0000895FC01918D228D892F90E0805C9F4FB6
:1001F000821B91098F739927089589ED93E00E94DE
:10020000F10021E0892B09F420E0822F089580E09D
:1002100090E0892B29F00E94FD0081110C940000D0
:100220000895FC01A48DA80FB92FB11DA35ABF4F8B
:100230002C91848D90E001968F739927848FA689E5
:10024000B7892C93A089B1898C91837080648C9339
:10025000938D848D981306C00288F389E02D8081E8
:100260008F7D80830895EF92FF920F931F93CF931A
:10027000DF93EC0181E0888F9B8D8C8D98131AC0E1
:10028000E889F989808185FF15C09FB7F894EE89C8
:10029000FF896083E889F989808183708064808325
:1002A0009FBF81E090E0DF91CF911F910F91FF9070
:1002B000EF900895F62E0B8D10E00F5F1F4F0F7318
:1002C0001127E02E8C8D8E110CC00FB607FCFACFD3
:1002D000E889F989808185FFF5CFCE010E9411015F
:1002E000F1CFEB8DEC0FFD2FF11DE35AFF4FF082A4
:1002F0009FB7F8940B8FEA89FB8980818062CFCF0A
:10030000682F89ED93E00C9433016DE289ED93E061
:100310000C9433010F931F93CF93DF938C01D0E0A4
:10032000C0E0F801EC0FFD1F6491662341F089EDF8
:1003300093E00E943301892B11F02196F2CFCE0178
:10034000DF91CF911F910F910895CF93DF93EC012F
:10035000888D8823B9F0AA89BB89E889F9898C91AD
:1003600085FD03C0808186FD0DC00FB607FCF7CF69
:100370008C9185FFF2CF808185FFEDCFCE010E9469
:100380001101E9CFDF91CF910895833081F028F4F6
:10039000813099F08230A9F008958730A9F0883033
:1003A000C9F08430B1F4809180008F7D03C08091CA
:1003B00080008F7780938000089584B58F7784BD07
:1003C000089584B58F7DFBCF8091B0008F778093A7
:1003D000B00008958091B0008F7DF9CF1F93CF9327
:1003E000DF93282F30E0F901E757FF4F8491F9019F
:1003F000E356FF4FD491F901E554FF4FC491CC234C
:10040000A9F0162F81110E94C501EC2FF0E0EE0F2C
:10041000FF1FEF54FF4FA591B4918FB7F894EC9163
:10042000111108C0D095DE23DC938FBFDF91CF91EF
:100430001F910895DE2BF8CFCF93DF93C4E9D4E06A
:10044000188A61E088810E94EE0183E290E00197C2
:10045000F1F760E08881DF91CF910C94EE01CF93AA
:10046000DF9390E0FC01E356FF4F249185549F4FAA
:10047000FC0184918823D1F090E0880F991FFC0142
:10048000E158FF4FA591B491FC01EF54FF4FC59186
:10049000D49161110EC09FB7F8948C91E22FE09532
:1004A0008E238C932881E223E8839FBFDF91CF9135
:1004B00008958FB7F894EC91E22BEC938FBFF6CFB1
:1004C0001F93CF93DF93182FEB0161E00E942F025F
:1004D000209739F460E0812FDF91CF911F910C9428
:1004E000EE01CF3FD10511F461E0F5CFE12FF0E04F
:1004F000E757FF4FE491E33031F140F4E130B1F0E0
:10050000E230E1F0C038D1057CF7E4CFE73029F1E3
:10051000E83059F1E430B1F7809180008062809337
:100520008000D0938B00C0938A0004C084B580689B
:1005300084BDC7BDDF91CF911F91089584B58062BE
:1005400084BDC8BDF7CF8091800080688093800013
:10055000D0938900C0938800EDCF8091B00080686F
:100560008093B000C093B300E5CF8091B00080626B
:100570008093B000C093B400DDCF3FB7F894809172
:10058000E1029091E202A091E302B091E40226B56B
:10059000A89B05C02F3F19F00196A11DB11D3FBFBB
:1005A000BA2FA92F982F8827BC01CD01620F711D8A
:1005B000811D911D42E0660F771F881F991F4A9584
:1005C000D1F708958F929F92AF92BF92CF92DF9210
:1005D000EF92FF924B015C010E94BD026B017C0116
:1005E0000E94BD026C197D098E099F09683E734007
:1005F00081059105A8F321E0821A9108A108B108AC
:1006000088EEC80E83E0D81EE11CF11C8114910411
:10061000A104B10429F7FF90EF90DF90CF90BF9035
:10062000AF909F908F9008950895CF92DF92EF92B0
:10063000FF92CF93DF93EC01603282E07807CCF534
:10064000653B710514F064EB70E0898128E830E0C7
:10065000281B310987FD3395220F331F220F331FCB
:100660006901330FEE08FF088A8128E532E0281B74
:10067000310987FD3395220F331F220F331F032EBD
:10068000000C440B550B2C193D094E095F09DB0189
:1006900077FF02C0B0E0A0E00E947C0F24EB30E0C6
:1006A00040E050E00E94520FC20ED31EE41EF51E21
:1006B000B601E881EC3070F5298188E890E0821B72
:1006C000910927FD9395880F991F880F991F681727
:1006D00079077CF02A8188E592E0821B910927FD49
:1006E0009395880F991F880F991F681779070CF445
:1006F000CB010297880F991F4FB7F8942E2F30E047
:10070000F901EE0FFF1FE20FF31FE454FD4F928338
:1007100081834FBFDF91CF91FF90EF90DF90CF901B
:1007200008951F93CF93DF93EC01162F88818C30AF
:1007300008F04EC061E0812F0E942F028881282F8F
:1007400030E0F901EE0FFF1FE20FF31FE454FD4FFD
:100750001F736081607C612B608319821A822CE098
:10076000622F0E94B50F829FB001112430E020E07B
:10077000AB01420F531FFA01EE0FFF1FE40FF51FED
:10078000E454FD4F908196FD16C02F5F3F4F2C30F3
:10079000310571F781110FC01092800082E08093C3
:1007A00081001092850010928400B19A80916F00B0
:1007B000826080936F00E8818E2F90E0FC01EE0F45
:1007C000FF1FE80FF91FE454FD4F80818064808390
:1007D0008881DF91CF911F9108950F931F9383E23A
:1007E00090E00E9480018091A404882341F16091EF
:1007F000A0047091A1048091A2049091A30400919F
:100800009C0410919D0420919E0430919F04601BD4
:10081000710B820B930B2AE330E040E050E00E9422
:10082000840F2F3F310529F024F02FEF30E040E016
:1008300050E03093B9022093B8020E941C028091CC
:10084000B8029091B9020E94800187E480937C00F5
:1008500080917A00806480937A0080917A0086FD8E
:10086000FCCF80917800909179008536910534F025
:1008700081E090E01F910F910C94800190E080E066
:10088000F9CFCF93DF93D82F60E08AE00E94EE018A
:10089000C8E060E08BE00E94EE016D2F60788CE094
:1008A0000E94EE01DD0F61E08BE00E94EE01C1507D
:1008B00081F7DF91CF910895CF93DF93D82FC62F83
:1008C00060E08AE00E94EE018D2F0E9441048C2F8F
:1008D0000E94410461E08AE0DF91CF910C94EE0127
:1008E000CF9381E080934C03C0914C03C93060F4F6
:1008F000EC2FF0E0E45BFC4F60818C2F0E945C04E5
:10090000CF5FC0934C03F0CFCF9108950F931F9307
:10091000CF93DF93C0917604D09177042A813B81F5
:100920003327F901E757FF4F8491F901E356FF4F51
:100930000491F901E554FF4F14911123C9F081117D
:100940000E94C501E12FF0E0EE0FFF1FE859FF4FB5
:10095000A591B491EC910E2359F00E94BD026887D5
:1009600079878A879B87DF91CF911F910F91089597
:100970000E94BD026C877D878E879F8781E0888B70
:10098000F2CF0F931F93CF93DF9307EA13E0D0E0EA
:10099000C0E0CE010E944A0FF80181938F01219699
:1009A000C233D105B1F787EA93E0DF91CF911F9170
:1009B0000F9108958F929F92AF92BF920F931F93C2
:1009C000CF93DF93CDB7DEB7A1970FB6F894DEBF14
:1009D0000FBECDBF19A2423008F44AE08E010F5D70
:1009E0001F4F842E912CB12CA12CA50194010E94A3
:1009F000840FE62FB901CA01EA3044F5E05DD80161
:100A0000EE938D01232B242B252B79F790E080E0AA
:100A1000109769F0FD0101900020E9F73197AF01CF
:100A20004A1B5B0BBD0189ED93E00E949300A196E8
:100A30000FB6F894DEBF0FBECDBFDF91CF911F91EF
:100A40000F91BF90AF909F908F900895E95CD7CFA2
:100A5000FC0101900020E9F73197AF01481B590BC9
:100A6000BC0189ED93E00C949300CF92DF92EF925A
:100A7000FF92CF93DF9388E790E00E948A01C090B5
:100A8000E502D090E60280E1C81687E2D806ECF4D1
:100A900080E390E00E94800188EEC81683E0D806CB
:100AA000A4F480E390E00E94800184E6C816D1049B
:100AB00064F480E390E00E9480018AE0C816D104CB
:100AC00024F480E390E00E9480010D2C000CEE08DD
:100AD000FF084AE0C701B601F7FE0AC00E9485017F
:100AE00066277727CB016C197D098E099F094AE09B
:100AF0000E94DA048DE290E00E94800182E790E09B
:100B00000E948A018DE290E00E94800186E293E0DB
:100B10000E9428050E948501C1E1D3E009900020D0
:100B2000E9F7C251D340C530D10534F480E390E0F9
:100B30000E9480012196F7CF81E193E00E94280571
:100B40000E948501CCEFD2E009900020E9F7CD5F4B
:100B5000D240C530D10534F480E390E00E9480019A
:100B60002196F7CF8CEF92E00E9428050E94850124
:100B7000C7EED2E009900020E9F7C85ED240C43148
:100B8000D10534F480E390E00E9480012196F7CFF4
:100B900087EE92E0DF91CF91FF90EF90DF90CF90C2
:100BA0000C9428051F920F920FB60F9211242F93C9
:100BB0003F934F935F936F937F938F939F93AF93E5
:100BC000BF93EF93FF938091400390914103A091D5
:100BD0004203B0914303892B8A2B8B2BD1F1909147
:100BE0003B03E0913C03F0913D03808189278083A2
:100BF0008091400390914103A0914203B09143033F
:100C0000181619061A061B069CF480914003909151
:100C10004103A0914203B09143030197A109B10997
:100C20008093400390934103A0934203B093430306
:100C3000FF91EF91BF91AF919F918F917F916F91B4
:100C40005F914F913F912F910F900FBE0F901F908A
:100C5000189580910401EFECF0E0E4919FEF909300
:100C60000401E13051F030F0E23069F060E00E94C0
:100C7000EE01DECF10926E00F9CF90916F009D7F54
:100C800090936F00F3CF909170009D7F90937000D0
:100C900091E09093B0009091B100987F9460909310
:100CA000B1001092B300E2CF1F920F920FB60F92D5
:100CB00011242F933F934F935F936F937F938F9361
:100CC0009F93AF93BF93EF93FF9389ED93E00E94BF
:100CD0001101FF91EF91BF91AF919F918F917F9102
:100CE0006F915F914F913F912F910F900FBE0F9099
:100CF0001F9018951F920F920FB60F9211242F93E9
:100D00008F939F93EF93FF93E091E903F091EA03B0
:100D10008081E091EF03F091F00382FD1BC0908190
:100D20008091F2038F5F8F732091F303821741F05C
:100D3000E091F203F0E0E752FC4F958F8093F203CD
:100D4000FF91EF919F918F912F910F900FBE0F9078
:100D50001F9018958081F4CF1F920F920FB60F92BB
:100D600011242F933F938F939F93AF93BF938091C1
:100D7000780490917904A0917A04B0917B04309129
:100D8000E00223E0230F2D3758F50196A11DB11D78
:100D90002093E0028093780490937904A0937A04DE
:100DA000B0937B048091E1029091E202A091E30272
:100DB000B091E4020196A11DB11D8093E1029093D0
:100DC000E202A093E302B093E402BF91AF919F913E
:100DD0008F913F912F910F900FBE0F901F901895FC
:100DE00026E8230F0296A11DB11DD2CF1F920F92AC
:100DF0000FB60F9211242F933F934F935F936F93EE
:100E00007F938F939F93AF93BF93EF93FF93E09163
:100E10000201F09103010995FF91EF91BF91AF910C
:100E20009F918F917F916F915F914F913F912F9102
:100E30000F900FBE0F901F9018951F920F920FB634
:100E40000F9211242F933F934F935F936F937F9350
:100E50008F939F93AF93BF93EF93FF93E091000124
:100E6000F09101010995FF91EF91BF91AF919F9191
:100E70008F917F916F915F914F913F912F910F9043
:100E80000FBE0F901F9018951F920F920FB60F92E2
:100E900011242F933F934F935F936F937F938F937F
:100EA0009F93AF93BF93CF93DF93EF93FF93809183
:100EB000BA02C091BB02D0E087FF24C01092850027
:100EC000109284008091BA028F5F8093BA02809161
:100ED000BA02082E000C990B8C179D0724F4809100
:100EE000BA028C30C4F18091840090918500049600
:100EF00080349C4908F47AC08091840090918500E8
:100F0000049676C08091BA02082E000C990B8C17BB
:100F10009D07C4F6E091BA028E2FEE0F990BFC01EB
:100F2000EE0FFF1FE80FF91FE454FD4F808186FF8D
:100F3000C9CFE091BA028E2FEE0F990BFC01EE0F94
:100F4000FF1FE80FF91FE454FD4F808160E08F73AD
:100F50000E94EE01B7CF2091840030918500E0918E
:100F6000BA028E2FEE0F990BFC01EE0FFF1FE80F58
:100F7000F91FE454FD4F81819281820F931F90935A
:100F8000890080938800E091BA028E2FEE0F990BB2
:100F9000FC01EE0FFF1FE80FF91FE454FD4F8081A5
:100FA00086FF11C0E091BA028E2FEE0F990BFC0163
:100FB000EE0FFF1FE80FF91FE454FD4F808161E041
:100FC0008F730E94EE01FF91EF91DF91CF91BF915E
:100FD000AF919F918F917F916F915F914F913F91D1
:100FE0002F910F900FBE0F901F90189580E49CE9F1
:100FF00090938900809388008FEF8093BA02E3CFAB
:10100000FC019091BB029C3098F481E0890F8093A1
:10101000BB029083892F90E0FC01EE0FFF1FE80FC9
:10102000F91FE454FD4F88EB9BE092838183089580
:101030008FEF808308951092DC031092DB0388EE1B
:1010400093E0A0E0B0E08093DD039093DE03A093F3
:10105000DF03B093E00389E992E09093DA03809391
:10106000D90385EC90E09093E6038093E50384EC4C
:1010700090E09093E8038093E70380EC90E09093F6
:10108000EA038093E90381EC90E09093EC03809372
:10109000EB0382EC90E09093EE038093ED0386ECFB
:1010A00090E09093F0038093EF031092F20310927C
:1010B000F3031092F4031092F5038FB7F894409164
:1010C00078045091790460917A0470917B048FBF09
:1010D00089E090E0909395048093940482E090E0FE
:1010E0009093970480939604109299041092980418
:1010F00088EC90E090939B0480939A041092A4044F
:101100008091760490917704892B31F484E994E0FE
:10111000909377048093760481E994E00E9400081C
:101120008EE894E00E9400088CE794E00E9400089A
:101130008FE794E00E94000882E894E00E94000893
:1011400085E894E00E94000888E894E00E94000886
:101150008BE894E00C940008CF93DF9300D01F92AB
:10116000CDB7DEB7789484B5826084BD84B58160E4
:1011700084BD85B5826085BD85B5816085BD809162
:101180006E00816080936E001092810080918100DA
:1011900082608093810080918100816080938100D2
:1011A000809180008160809380008091B100846094
:1011B0008093B1008091B00081608093B0008091F5
:1011C0007A00846080937A0080917A0082608093B4
:1011D0007A0080917A00816080937A0080917A0011
:1011E000806880937A001092C1006EE070E08CE716
:1011F00094E00E9491036FE070E08FE794E00E941A
:10120000910360E170E082E894E00E94910361E163
:1012100070E085E894E00E94910367E070E088E860
:1012200094E00E94910368E070E08BE894E00E94F3
:10123000910310926D0310926E0310926F0310923F
:101240007003C0906D03D0906E03E0906F03F09038
:10125000700306E0C016D104E104F10430F5860104
:10126000000F111FC8018C0D9D1D6AE570E08458A8
:101270009B4F0E941503F801EF56FC4F8AE590E062
:10128000918380830B571C4FD8018D939C93BFEFA4
:10129000CB1ADB0AEB0AFB0AC0926D03D0926E03F5
:1012A000E0926F03F0927003CCCF0E94C104A7EAD2
:1012B000B3E08D91FD01E75AF3408D32D1F7E95546
:1012C000FC4F06E213E01A8309838191DF01A75ADC
:1012D000B3408D3211F5A955BC4F21E133E03A837B
:1012E00029838D91FD01E75AF3408D32E1F4E955F0
:1012F000FC4FACEFB2E02191CF01875A93402D32E1
:10130000C1F4FC01E955FC4FA7EEB2E0819190EDEC
:10131000980F9A3080F48D93F9CFA981BA818D937B
:10132000BA83A983D2CFE981FA818193FA83E983D1
:10133000D8CF2D93E0CF67EA72E086E293E00E9477
:10134000CE0F892B09F0F2C069EA72E081E193E0E7
:101350000E94CE0F892B09F0E9C069EA72E08CEF98
:1013600092E00E94CE0F892BC9F06BEA72E08CEFFD
:1013700092E00E94CE0F892B89F06DEA72E08CEF2B
:1013800092E00E94CE0F892B49F06FEA72E08CEF59
:1013900092E00E94CE0F892B09F0C8C01092E6029D
:1013A0001092E50261E0809194040E942F0260E0B7
:1013B000809194040E94EE0160E0809196040E9466
:1013C0002F02E0919804F09199042E2FE23098F4C6
:1013D000FF27EE0FFF1FE050FF4F86E894E0918358
:1013E000808380916900213009F400C18C7F816085
:1013F00080936900E89AE091E903F091EA0382E0C2
:101400008083E091E903F091EA031082E091E50323
:10141000F091E6031082E091E703F091E80380E1A8
:1014200080831092F103E091ED03F091EE0386E0EA
:101430008083E091EB03F091EC03808180618083F5
:10144000E091EB03F091EC03808188608083E09170
:10145000EB03F091EC03808180688083E091EB03E3
:10146000F091EC0380818F7D808368EC70E080E0F8
:1014700090E00E94E2020E94C10461E083E00E94C9
:101480002F0261E085E00E942F0261E086E00E9469
:101490002F0261E080E10E942F0261E081E10E9461
:1014A0002F0261E08EE00E942F0261E08FE00E9437
:1014B0002F0261E08BE00E942F0261E08AE00E942F
:1014C0002F0261E08CE00E942F0260E085E10E9423
:1014D0002F0210926B0362E370E080E090E00E94C4
:1014E000E20260E089E00E945C0463E08AE00E941E
:1014F0005C0467E08BE00E945C0461E08CE00E9489
:101500005C0460E08FE00E945C0481E080934C0307
:1015100000914C030983093008F06EC060E0802F11
:101520000E945C040F5F00934C03F2CF61EB72E00A
:1015300086E293E00E94CE0F892BD1F569EA72E032
:1015400081E193E00E94CE0F892B79F469EA72E081
:101550008CEF92E00E94CE0F892B39F481E090E06D
:101560009093E6028093E5021DCF6DEA72E081E17F
:1015700093E00E94CE0F892BD9F469EA72E08CEFD8
:1015800092E00E94CE0F892B81F06BEA72E08CEF23
:1015900092E00E94CE0F892B41F06DEA72E08CEF51
:1015A00092E00E94CE0F892B19F482E090E0D8CF10
:1015B00063EB72E086E293E00E94CE0F892B99F4F0
:1015C00069EA72E081E193E00E94CE0F892B59F421
:1015D00065EB72E08CEF92E00E94CE0F892B19F43C
:1015E00085E090E0BDCF8FE097E2BACF837F846043
:1015F00080936900E99AFFCE0E941C0238EC232EEA
:1016000030E0332E8FB7F894C0907804D0907904EE
:10161000E0907A04F0907B048FBF8091A603811143
:1016200091C01DE2C11611E0D106E104F10468F099
:101630000E943505C092A203D092A303E092A403B6
:10164000F092A50381E08093A60310929D03809100
:101650009D03863008F0B0C090E0880F991FFC0110
:10166000EF56FC4F8B579C4F20813181DC018D91CF
:101670009C912817390709F44FC08FB7F89440910F
:1016800078045091790460917A0470917B048FBF43
:1016900080919D0390E0FC01EE0FFF1FEE0FFF1FF6
:1016A000E359FC4F00811181228133810417150712
:1016B0002607370788F5880F991FFC01EB57FC4F69
:1016C000208131818F569C4FDC018D919C91281790
:1016D00039070CF06EC02F5F3F4F318320832FB747
:1016E000F8948091780490917904A0917A04B09153
:1016F0007B042FBFE0919D0304E0E09FF0011124E3
:10170000E359FC4F20916C03820F911DA11DB11D67
:1017100080839183A283B38310919D03E12FF0E036
:10172000EE0FFF1FEB57FC4F6081718123E0129F8A
:10173000C001112484589B4F0E9415031F5F109312
:101740009D0385CF8091A2039091A303A091A40350
:10175000B091A503A7019601281B390B4A0B5B0B1F
:10176000DA01C901883B9B40A105B10508F06DCFA6
:1017700080919E0390919F03A091A003B091A1033B
:1017800097018601081B190B2A0B3B0BD901C801D5
:101790008C329140A105B10508F457CF0E94350560
:1017A000C0929E03D0929F03E092A003F092A10307
:1017B0004CCF2150310991CF89ED93E00E94F10087
:1017C000892BC1F089ED93E00E94CF0020916B033B
:1017D00021113AC09C01332726363105E1F0BCF4D3
:1017E00022363105C1F0BCF42032310521F1213619
:1017F000310521F180E090E0892B09F403CF0E94AC
:10180000FD00882309F4FACE0E940000F7CE2A36A4
:10181000310509F034F480936A0382E080936B030E
:10182000E9CF29373105B9F32A373105A1F3233739
:10183000310501F7F0CF0E943505DCCF80936A03B4
:1018400033E030936B03D6CF223009F043C0909140
:101850006903E92FF0E0EB5AFC4F80839F5F909380
:101860006903E0916A03E256E93120F6F0E0E55CB5
:10187000F34F0C94C10F5E0C5E0C5B0C540C5B0CB4
:10188000640C610C610C5E0CFA0BFA0BFA0BFA0B90
:10189000FA0BFA0BFA0BFA0B610CFA0BFA0BFA0BB8
:1018A000FA0BFA0B640C670C983008F4A3CF43E0F2
:1018B00040936B039FCF9111FACF9CCF9430B8F730
:1018C00099CF9230A0F796CF933088F793CF953089
:1018D00070F790CF233009F08DCF843209F066C0C5
:1018E000E0916A03E156EA3108F060C0F0E0E558A3
:1018F000F34F0C94C10FD40CD60CD60C950CDF0C06
:10190000E90C020D150DA40ED40CD60CD60CD60C79
:10191000D60CD60CD60CD60CD60CB30ED60CD60CD8
:10192000D60CD60CD60CF60ED00E50915503852F42
:1019300090E09C01E3E035952795EA95E1F7217069
:10194000322F330F52FB222720F9230F220F51FB96
:10195000332730F9230FE7E0F0E0E21BF109E35B06
:10196000FC4F40819C01A6E035952795AA95E1F7AB
:101970002170220F55FB992790F9290F220F82958C
:101980008170820F01E010E020E030E004C0000F21
:10199000111F221F331F8A95D2F7C80150FF0BC0B9
:1019A000842B80830E9470040E94ED0310926B03CD
:1019B000109269031FCF809548234083F3CFA5E59C
:1019C000B3E0EDE4F3E089E08150C1F09D919193A3
:1019D000FBCFADE4B3E02091550318E0219F9001C7
:1019E000112490E080E0FC01E20FF31FEB5FFE4F5B
:1019F00040814D93019688309105A9F788E0809346
:101A00004C03D0CF6091550370E083E00E946002E8
:101A10006091560370E085E00E9460026091570378
:101A200070E086E00E946002BFCF209156032983B8
:101A300030E0207F332700915503020F132F111D33
:101A400039813F708AEF389FA00111245A8349835E
:101A5000809104018D3009F08FC0EFECF0E0F4913B
:101A6000FB83F7FDA1CF61E08DE00E942F02FB8197
:101A7000FF2389F04801012E000CAA08BB0860E092
:101A800072E18AE790E0A50194010E94520F8B81D8
:101A9000823009F0E5C04801012E000CAA08BB08FD
:101AA00060E072E18AE790E0A50194010E94520F84
:101AB00029013A0168E478EE81E090E0A501940103
:101AC0000E94520F69017A0191E0C91AD108E10818
:101AD000F108AB81AA2309F4BDC184E0A230C1F4AE
:101AE00084E0BFEFCB16D104E104F104F1F1ECF195
:101AF00064E274EF80E090E0A50194010E94520F2F
:101B000069017A01E1E0CE1AD108E108F10885E027
:101B1000FFEFCF16D104E104F10439F130F162E1B5
:101B20007AE780E090E0A50194010E94520F6901DC
:101B30007A01B1E0CB1AD108E108F10886E0EFEFB5
:101B4000CE16D104E104F10481F07CF0730162014E
:101B50008AE0F594E794D794C7948A95D1F741E049
:101B6000C41AD108E108F10887E09091B100987F8C
:101B7000892B8093B10065C18F3F09F015CF8DE0AF
:101B800080930401EFECF0E0F491FB83FF3F09F454
:101B90000BCFF13029F158F0F23009F43FC02B811E
:101BA00027FD02CF61E08DE00E942F0263CF14BCBD
:101BB00015BC84B5826084BD85B5816085BDF101A9
:101BC0008491E82FF0E0EE0FFF1FEF54FF4F859157
:101BD0009491EAEAF0E0849180933F031B8243CF23
:101BE0001092800010928100809181008860809323
:101BF000810080918100816080938100F101849156
:101C0000E82FF0E0EE0FFF1FEF54FF4F8591949106
:101C1000EAEAF0E0849180933E0325CF1092B00071
:101C20001092B1008091B00082608093B0008091EA
:101C3000B10081608093B100F1018491E82FF0E060
:101C4000EE0FFF1FEF54FF4F8591949190933D034A
:101C500080933C03EAEAF0E0849180933B0303CF56
:101C600069017A01F1E0CF1AD108E108F10891E0A9
:101C7000C114D10421E0E206F10484F068E478EEB6
:101C800081E090E0A50194010E94520F69017A0160
:101C900081E0C81AD108E108F10893E0AB81A130D6
:101CA00009F0CFC080918100887F892B80938100CB
:101CB000E981FA812FEF3FEFA901EF2B19F198018C
:101CC000220F331FA981BA810E94C70F28EE33E08B
:101CD00040E050E00E94840F0B81013099F0023007
:101CE00019F1011161CEC7BC209348033093490319
:101CF00040934A0350934B0380916E00826080931F
:101D00006E0052CED0928900C09288002093440386
:101D100030934503409346035093470380916F00EF
:101D2000826080936F0040CEC092B3002093400346
:101D300030934103409342035093430380917000DA
:101D400082608093700030CE6091550370E081E92D
:101D500094E00E9415036091560370E08EE894E0D1
:101D60000E94150321CEE09155038E2F90E023E0D1
:101D7000959587952A95E1F787709927982F990F60
:101D8000990F890F80936C03E770F0E0EE0FFF1F4F
:101D9000EF56FC4F8091560390E09183808304CEF0
:101DA000809159038770982F990F990F890F80930D
:101DB0006C038091550390E090939203809391037C
:101DC0008091560390E090939403809393038091C5
:101DD000570390E090939603809395038091580366
:101DE00090E09093980380939703DECD8091570302
:101DF0008770982F990F990F890F80936C038091AA
:101E0000550390E090939A03809399038091560331
:101E100090E090939C0380939B03C6CD7301620175
:101E20009AE0F594E794D794C7949A95D1F731E066
:101E3000C31AD108E108F10895E085B5887F892BA0
:101E400085BD29813A81232B09F039CF2FEF3FEF50
:101E5000A90142CF93E0AFEFCA16D104E104F10427
:101E600061F35CF362E17AE780E090E0A501940120
:101E70000E94520F69017A0181E0C81AD108E10875
:101E8000F1089FEFC916D104E104F10409F034F61A
:101E900094E0D3CFF999FECF92BD81BDF89A9927EE
:101EA00080B50895052E97FB1EF400940E94690FDB
:101EB00057FD07D00E94840F07FC03D04EF40C940A
:101EC000690F50954095309521953F4F4F4F5F4F8B
:101ED000089590958095709561957F4F8F4F9F4F96
:101EE00008950E94A60FA59F900DB49F900DA49FEA
:101EF000800D911D11240895B7FF0C94710F0E945D
:101F0000710F821B930B0895A1E21A2EAA1BBB1B13
:101F1000FD010DC0AA1FBB1FEE1FFF1FA217B307B5
:101F2000E407F50720F0A21BB30BE40BF50B661FCB
:101F3000771F881F991F1A9469F76095709580958F
:101F400090959B01AC01BD01CF010895A29FB00106
:101F5000B39FC001A39F700D811D1124911DB29FDD
:101F6000700D811D1124911D0895991B79E004C005
:101F7000991F961708F0961B881F7A95C9F78095C8
:101F80000895EE0FFF1F0590F491E02D09940E9433
:101F9000A60FB7FF0895821B930B0895FB01DC0188
:101FA0008D91019080190110D9F3990B0895F8943F
:021FB000FFCF61
:101FB20014031403FF007CFE8282FE7C00000002F8
:101FC200FEFE4200000062F2929ACE4600006CFED3
:101FD2009292C6440008FEFEC868381800009CBEF3
:101FE200A2A2E6E4003048442222444830001018FD
:101FF20014141810001018141414141810001028B7
:102002004444281000007CFE8282FE7C0000000214
:10201200FEFE4200000062F2929ACE4600006CFE82
:102022009292C6440008FEFEC868381800009CBEA2
:10203200A2A2E6E4003048442222444830001018AC
:102042001414181000101814141414181000102866
:102052004444281000007CFE8282FE7C00000002C4
:10206200FEFE4200000062F2929ACE4600006CFE32
:102072009292C6440008FEFEC868381800009CBE52
:10208200A2A2E6E40030484422224448300010185C
:102092001414181000101814141414181000102816
:1020A2004444281000000002FEFE4200000062F2DA
:1020B200929ACE4600006CFE9292C6440008FEFE42
:1020C200C868381800009CBEA2A2E6E4003048446A
:1020D200222244483000101814141810001018144A
:1020E2001414141810001028444428100000000092
:1020F20000000000000000000000000000000000DE
:1021020000000000000000000000000000000000CD
:1021120000000000000000000000000000000000BD
:1021220000000000000000000000000000000000AD
:10213200000000000000000000000000000000009D
:1021420000000000000000000033019300C000A561
:1021520001F100CF00E300520031003200330034BD
:08216200004C004F00350000A5
:00000001FF
