:100000000C947E000C94EA070C94C3070C94A60091
:100010000C94A6000C94A6000C94A6000C949706D1
:100020000C94A6000C94A6000C94A6000C94110845
:100030000C94A6000C94A6000C94A6000C94A600A8
:100040000C9479070C94A6000C9447070C94210794
:100050000C94A6000C94A6000C94A6000C94A60088
:100060000C94A6000C94A6000C9400000C940000C4
:100070000C9400000C9400000000000023002600F7
:1000800029002C00303030303300524F42424F2D87
:100090000000000000240027002A002D00000000BE
:1000A00032F011100000202131000000000000009B
:1000B0000000000102040810204080010204081022
:1000C0002001020408102002080104102040408092
:1000D00000000000250028002B002E00040404046A
:1000E00004040404020202020202030303030303E2
:1000F00005050505050505020202E80811241FBED5
:10010000CFEFD8E0DEBFCDBF12E0A0E0B1E0ECE27F
:10011000F2E202C005900D92A63BB107D9F724E0A8
:10012000A6EBB2E001C01D92A93AB207E1F710E0D8
:10013000CEE7D0E004C02197FE010E94FE10CD372B
:10014000D107C9F70E947F090C9414110C94000088
:10015000AF92BF92CF92DF92EF92FF920F931F93D5
:10016000CF93DF936C017B018B01040F151FEB0113
:100170005E01AE18BF08C017D10759F06991D601CA
:10018000ED91FC910190F081E02DC6010995892B3C
:1001900079F7C501DF91CF911F910F91FF90EF90FB
:1001A000DF90CF90BF90AF900895FC01918D828D2C
:1001B000981761F0A28DAE0FBF2FB11D5D968C9187
:1001C000928D9F5F9F73928F90E008958FEF9FEFC6
:1001D0000895FC01918D828D981731F0828DE80F82
:1001E000F11D858D90E008958FEF9FEF0895FC013C
:1001F000918D228D892F90E0805C9F4F821B910909
:100200008F73992708958DED93E00E94F70021E008
:10021000892B09F420E0822F089580E090E0892B5B
:1002200029F00E94030181110C9400000895CF93DE
:10023000DF93FC01A48DC689D789A80FB92FB11D02
:10024000A35ABF4F8C918883848D90E001968F7361
:100250009927848FA089B1898C91837080648C9355
:10026000938D848D981306C00288F389E02D8081D8
:100270008F7D8083DF91CF910895EF92FF920F934E
:100280001F93CF93DF93EC0181E0888F9B8D8C8D42
:1002900098131AC0E889F989808185FF15C09FB736
:1002A000F894EE89FF896083E889F98980818370F9
:1002B000806480839FBF81E090E0DF91CF911F91A8
:1002C0000F91FF90EF900895F62E0B8D10E00F5FC9
:1002D0001F4F0F731127E02E8C8D8E110CC00FB69F
:1002E00007FCFACFE889F989808185FFF5CFCE0137
:1002F0000E941701F1CFEB8DEC0FFD2FF11DE35A9A
:10030000FF4FF0829FB7F8940B8FEA89FB898081B9
:100310008062CFCF682F8DED93E00C943D016DE2AC
:100320008DED93E00C943D010F931F93CF93DF93DA
:100330008C01D0E0C0E0F801EC0FFD1F6491662352
:1003400041F08DED93E00E943D01892B11F0219643
:10035000F2CFCE01DF91CF911F910F910895CF93EE
:10036000DF93EC01888D8823B9F0AA89BB89E889DD
:10037000F9898C9185FD03C0808186FD0DC00FB683
:1003800007FCF7CF8C9185FFF2CF808185FFEDCF01
:10039000CE010E941701E9CFDF91CF9108958051DE
:1003A000863308F05CC0E82FF0E0E752FE4F0C9473
:1003B000FE1019021D0219021D022F022F022F0228
:1003C0002F022F022F022F022F022F022F022F02A5
:1003D0002F020F0215022F020F0215022F022F0209
:1003E0002F022F022F022F022F022F022F022F0285
:1003F0002F022F0220022602200226022F022F02A5
:100400002F022F022F022F022F022F022F022F0264
:100410002F022A02300234022A0230022A0280917C
:1004200080008F77809380000895809180008F7D79
:10043000F9CF84B58F7784BD089584B58F7DFBCFC8
:100440008091B0008F778093B00008958091B000C4
:100450008F7DF9CF809190008F77809390000895E1
:10046000809190008F7DF9CF80919000877FF5CFAC
:100470001F93CF93DF9390E0FC01ED54FF4FD49195
:10048000FC01E452FF4FC491CC23C9F0162F8356D0
:100490009F4FFC01849181110E94CF01EC2FF0E06D
:1004A000EE0FFF1FE053FF4FA591B4918FB7F89463
:1004B000EC91111108C0D095DE23DC938FBFDF9142
:1004C000CF911F910895DE2BF8CFCF93DF93C8E92A
:1004D000D4E0188A61E088810E9438028FE290E0BF
:1004E0000197F1F760E08881DF91CF910C94380299
:1004F000CF93DF93282F30E0F901ED54FF4F449163
:1005000024523F4FF9012491843011F583E0809308
:10051000A0002223D1F0822F90E0880F991FFC01C8
:10052000EF56FF4FA591B491FC01E053FF4FC591E9
:10053000D491611122C09FB7F8948C914095842387
:100540008C938881482348839FBFDF91CF91089582
:100550009AEE980F923020F48FEF84BF84BFD9CFEA
:100560008A31B9F68091F00082608EBB80E880937A
:10057000F0008EB38093F000CCCF8FB7F894EC915D
:100580004E2B4C938FBFE1CF1F93CF93DF93182F48
:10059000EB01843009F465C061E00E947802209785
:1005A00009F05CC060E0812FDF91CF911F910C9426
:1005B0003802E03279F1E13209F063C0D0938B0068
:1005C000C0938A008091800080622BC0E134D1F119
:1005D00068F4E23389F1E03409F053C0C093980025
:1005E000809190008068809390000CC0E23481F18B
:1005F000E03F09F046C0C093A10004C0C7BD84B568
:10060000806884BDDF91CF911F910895C8BD84B5E6
:100610008062F7CFD0938900C093880080918000DA
:10062000806880938000EECFC093B3008091B000CB
:1006300080688093B000E6CFC093B4008091B00092
:100640008062F7CFC0939A00809190008062CBCFF8
:10065000C0939E00809190008860C5CFCF3FD105A8
:10066000A1F0E12FF0E0E356FF4FE491E133E1F236
:1006700008F0ACCFE13151F208F09BCFE03109F442
:10068000BDCFC038D10508F48DCF61E08CCFCF93BA
:10069000DF931F92CDB7DEB7198280917A00806414
:1006A00080937A0080917A0086FDFCCF809178005B
:1006B00089839091790089810F90DF91CF9108957E
:1006C0003FB7F8948091DF029091E002A091E1029F
:1006D000B091E20226B5A89B05C02F3F19F0019604
:1006E000A11DB11D3FBFBA2FA92F982F8827BC018C
:1006F000CD01620F711D811D911D42E0660F771FB4
:10070000881F991F4A95D1F708958F929F92AF92B3
:10071000BF92CF92DF92EF92FF924B015C010E9459
:1007200060036B017C010E9460036C197D098E09D6
:100730009F09683E734081059105A8F321E0821A64
:100740009108A108B10888EEC80E83E0D81EE11C0C
:10075000F11C81149104A104B10429F7FF90EF90DA
:10076000DF90CF90BF90AF909F908F9008950895A5
:10077000CF92DF92EF92FF92CF93DF93EC01603242
:1007800082E07807CCF5653B710514F064EB70E00E
:10079000898128E830E0281B310987FD3395220F35
:1007A000331F220F331F6901330FEE08FF088A81C0
:1007B00028E532E0281B310987FD3395220F331FCE
:1007C000220F331F032E000C440B550B2C193D092F
:1007D0004E095F09DB0177FF02C0B0E0A0E00E9494
:1007E000B91024EB30E040E050E00E948F10C20EC0
:1007F000D31EE41EF51EB601E881EC3070F52981A8
:1008000088E890E0821B910927FD9395880F991F36
:10081000880F991F681779077CF02A8188E592E094
:10082000821B910927FD9395880F991F880F991FA7
:10083000681779070CF4CB010297880F991F4FB7FF
:10084000F8942E2F30E0F901EE0FFF1FE20FF31F97
:10085000E654FD4F928381834FBFDF91CF91FF908C
:10086000EF90DF90CF9008951F93CF93DF93EC012B
:10087000162F88818C3008F04EC061E0812F0E94D5
:1008800078028881282F30E0F901EE0FFF1FE20F78
:10089000F31FE654FD4F1F736081607C612B608302
:1008A00019821A822CE0622F0E94F210829FB001FE
:1008B000112430E020E0AB01420F531FFA01EE0F8C
:1008C000FF1FE40FF51FE654FD4F908196FD16C003
:1008D0002F5F3F4F2C30310571F781110FC01092FF
:1008E000800082E080938100109285001092840045
:1008F000B19A80916F00826080936F00E8818E2FA3
:1009000090E0FC01EE0FFF1FE80FF91FE654FD4FCA
:100910008081806480838881DF91CF911F910895C9
:100920000F931F93CF93DF9383E290E00E948A019D
:100930008091A804882341F16091A4047091A504DA
:100940008091A6049091A7040091A0041091A104A5
:100950002091A2043091A304601B710B820B930BB6
:100960002AE330E040E050E00E94C1102F3F310503
:1009700029F024F02FEF30E040E050E03093B70250
:100980002093B6020E9465028091B6029091B70250
:100990000E948A018091AD00807F8093AD0087E442
:1009A00080937C0080917D00806280937D000E9416
:1009B0004703EC0180917D008F7D80937D000E9434
:1009C00047038C0F9D1F8832934040F081E090E0F8
:1009D000DF91CF911F910F910C948A0190E080E0FC
:1009E000F7CFCF93DF93D82F60E08AE00E943802E0
:1009F000C8E060E08BE00E9438026D2F60788CE0E8
:100A00000E943802DD0F61E08BE00E943802C15085
:100A100081F7DF91CF910895CF93DF93D82FC62F21
:100A200060E08AE00E9438028D2F0E94F1048C2F32
:100A30000E94F10461E08AE0DF91CF910C943802CA
:100A4000CF9381E080934F03C0914F03C93060F48E
:100A5000EC2FF0E0E15BFC4F60818C2F0E940C05D5
:100A6000CF5FC0934F03F0CFCF9108950F931F93A3
:100A7000CF93DF93C0917A04D0917B048A819B81CC
:100A80009927FC01ED54FF4F1491FC01E452FF4FF4
:100A90000491002319F1FC01E356FF4FE491EE238A
:100AA00039F0F0E0E356FF4F849181110E94CF01AD
:100AB000E02FF0E0EE0FFF1FE858FF4FA591B49133
:100AC000EC911E2359F00E946003688779878A871A
:100AD0009B87DF91CF911F910F9108950E94600332
:100AE0006C877D878E879F8781E0888BF2CFEBEACA
:100AF000F3E090E080E04EEF53E006B606FE1AC049
:100B000026B72370BA0102C0660F771F2A95E2F755
:100B10009B018217930788F481BD12BCF89A0000EC
:100B2000000020B5219301968233910531F78BEABD
:100B300093E0089530E020E0ECCF20E0F3CF8F92F7
:100B40009F92AF92BF920F931F93CF93DF93CDB736
:100B5000DEB7A1970FB6F894DEBF0FBECDBF19A2C6
:100B6000423008F44AE08E010F5D1F4F842E912C15
:100B7000B12CA12CA50194010E94C110E62FB9014E
:100B8000CA01EA3044F5E05DD801EE938D01232BD4
:100B9000242B252B79F790E080E0109769F0FD0178
:100BA00001900020E9F73197AF014A1B5B0BBD01B3
:100BB0008DED93E00E94A800A1960FB6F894DEBFD9
:100BC0000FBECDBFDF91CF911F910F91BF90AF901E
:100BD0009F908F900895E95CD7CFFC010190002091
:100BE000E9F73197AF01481B590BBC018DED93E03C
:100BF0000C94A800CF92DF92EF92FF92CF93DF93F5
:100C00008AE890E00E949401C090E302D090E40250
:100C100080E1C81687E2D806ECF480E390E00E94F9
:100C20008A0188EEC81683E0D806A4F480E390E039
:100C30000E948A0184E6C816D10464F480E390E03F
:100C40000E948A018AE0C816D10424F480E390E06F
:100C50000E948A010D2C000CEE08FF084AE0C70133
:100C6000B601F7FE0AC00E948F0166277727CB01E5
:100C70006C197D098E099F094AE00E949F058DE24B
:100C800090E00E948A0184E890E00E9494018DE245
:100C900090E00E948A0184E293E00E94ED050E94A8
:100CA0008F01CFE0D3E009900020E9F7C051D34095
:100CB000C530D10534F480E390E00E948A0121968A
:100CC000F7CF8FE093E00E94ED050E948F01CAEFFD
:100CD000D2E009900020E9F7CB5FD240C530D105C2
:100CE00034F480E390E00E948A012196F7CF8AEFE6
:100CF00092E00E94ED050E948F01C5EED2E00990BE
:100D00000020E9F7C65ED240C431D10534F480E357
:100D100090E00E948A012196F7CF85EE92E0DF9164
:100D2000CF91FF90EF90DF90CF900C94ED051F9244
:100D30000F920FB60F9211242F933F934F935F930F
:100D40006F937F938F939F93AF93BF93EF93FF9393
:100D50008091430390914403A0914503B0914603D1
:100D6000892B8A2B8B2BD1F190913A03E0913B0395
:100D7000F0913C0380818927808380914303909187
:100D80004403A0914503B0914603181619061A06AC
:100D90001B069CF48091430390914403A09145036A
:100DA000B09146030197A109B10980934303909341
:100DB0004403A0934503B0934603FF91EF91BF9185
:100DC000AF919F918F917F916F915F914F913F91E3
:100DD0002F910F900FBE0F901F90189580910401D6
:100DE000E9EFF0E0E4919FEF90930401E13061F0CE
:100DF00040F0E23079F0E330F1F060E00E94380238
:100E0000DCCF10926E00F9CF90916F009D7F909390
:100E10006F00F3CF909170009D7F9093700091E0F0
:100E20009093B0009091B100987F94609093B1003E
:100E30001092B300E2CF909171009D7F909371006A
:100E4000DCCF1F920F920FB60F9211242F933F9376
:100E50004F935F936F937F938F939F93AF93BF93C2
:100E6000EF93FF938DED93E00E941701FF91EF91B7
:100E7000BF91AF919F918F917F916F915F914F91B2
:100E80003F912F910F900FBE0F901F9018951F92BA
:100E90000F920FB60F9211242F938F939F93EF937E
:100EA000FF93E091ED03F091EE038081E091F30375
:100EB000F091F40382FD1BC090818091F6038F5F57
:100EC0008F732091F703821741F0E091F603F0E071
:100ED000E352FC4F958F8093F603FF91EF919F9122
:100EE0008F912F910F900FBE0F901F9018958081BA
:100EF000F4CF1F920F920FB60F9211242F933F93AE
:100F00008F939F93AF93BF9380917C0490917D04C6
:100F1000A0917E04B0917F043091DE0223E0230F84
:100F20002D3758F50196A11DB11D2093DE02809347
:100F30007C0490937D04A0937E04B0937F04809101
:100F4000DF029091E002A091E102B091E2020196ED
:100F5000A11DB11D8093DF029093E002A093E102F6
:100F6000B093E202BF91AF919F918F913F912F91EA
:100F70000F900FBE0F901F90189526E8230F029632
:100F8000A11DB11DD2CF1F920F920FB60F92112447
:100F90002F933F934F935F936F937F938F939F9381
:100FA000AF93BF93EF93FF93E0910201F0910301A0
:100FB0000995FF91EF91BF91AF919F918F917F9193
:100FC0006F915F914F913F912F910F900FBE0F90B6
:100FD0001F9018951F920F920FB60F9211242F9306
:100FE0003F934F935F936F937F938F939F93AF93B1
:100FF000BF93EF93FF93E0910001F09101010995F8
:10100000FF91EF91BF91AF919F918F917F916F91E0
:101010005F914F913F912F910F900FBE0F901F90B6
:1010200018951F920F920FB60F9211242F933F9392
:101030004F935F936F937F938F939F93AF93BF93E0
:10104000CF93DF93EF93FF938091B802C091B902E1
:10105000D0E087FF24C01092850010928400809118
:10106000B8028F5F8093B8028091B802082E000CFE
:10107000990B8C179D0724F48091B8028C30C4F131
:101080008091840090918500049680349C4908F4F6
:101090007AC08091840090918500049676C08091FA
:1010A000B802082E000C990B8C179D07C4F6E0912E
:1010B000B8028E2FEE0F990BFC01EE0FFF1FE80F09
:1010C000F91FE654FD4F808186FFC9CFE091B80239
:1010D0008E2FEE0F990BFC01EE0FFF1FE80FF91F8B
:1010E000E654FD4F808160E08F730E943802B7CFD5
:1010F0002091840030918500E091B8028E2FEE0F90
:10110000990BFC01EE0FFF1FE80FF91FE654FD4F8E
:1011100081819281820F931F909389008093880030
:10112000E091B8028E2FEE0F990BFC01EE0FFF1F1E
:10113000E80FF91FE654FD4F808186FF11C0E09152
:10114000B8028E2FEE0F990BFC01EE0FFF1FE80F78
:10115000F91FE654FD4F808161E08F730E943802D1
:10116000FF91EF91DF91CF91BF91AF919F918F91BF
:101170007F916F915F914F913F912F910F900FBE93
:101180000F901F90189580E49CE9909389008093BC
:1011900088008FEF8093B802E3CFFC019091B902F1
:1011A0009C3098F481E0890F8093B9029083892F55
:1011B00090E0FC01EE0FFF1FE80FF91FE654FD4F12
:1011C00088EB9BE09283818308958FEF808308955D
:1011D0001092E0031092DF0388EE93E0A0E0B0E00D
:1011E0008093E1039093E203A093E303B093E403BD
:1011F00089E992E09093DE038093DD0385EC90E033
:101200009093EA038093E90384EC90E09093EC03DD
:101210008093EB0380EC90E09093EE038093ED03DA
:1012200081EC90E09093F0038093EF0382EC90E0E8
:101230009093F2038093F10386EC90E09093F40393
:101240008093F3031092F6031092F7031092F803C1
:101250001092F90390E896BF8CE486BF96BF86BFD4
:101260008FB7F89440917C0450917D0460917E0486
:1012700070917F048FBF89E090E0909399048093F0
:10128000980482E090E090939B0480939A041092DB
:101290009D0410929C0488EC90E090939F048093AE
:1012A0009E041092A80480917A0490917B04892B6B
:1012B00031F488E994E090937B0480937A0485E983
:1012C00094E00E94CD0882E994E00E94CD0880E875
:1012D00094E00E94CD0883E894E00E94CD0886E85F
:1012E00094E00E94CD0889E894E00E94CD088CE843
:1012F00094E00E94CD088FE894E00C94CD08CF9341
:10130000DF9300D000D01F92CDB7DEB78091F200FE
:1013100080618EBB80E88093F2009EB39093F200D0
:101320009091AA03911119C09091F2009F799EBBF0
:101330008093F2009EB39093F2009091F200937F1D
:101340009EBB8093F2009EB39093F20091E0909345
:10135000AA038093610090936100789484B58260C1
:1013600084BD84B5816084BD85B58B7F85BD85B521
:10137000826085BD85B5816085BD80916E0081608C
:1013800080936E0010928100809181008260809332
:101390008100809181008160809381008091800034
:1013A0008160809380008091B10084608093B1005F
:1013B0008091B00082608093B0008091B000816025
:1013C0008093B00080917A00846080937A0080914D
:1013D0007A00826080937A0080917A0081608093A5
:1013E0007A0080917A00806880937A001092C10020
:1013F0006EE070E080E894E00E9434046FE070E0FA
:1014000083E894E00E94340460E170E086E894E0B0
:101410000E94340461E170E089E894E00E943404A1
:1014200067E070E08CE894E00E94340468E070E0CB
:101430008FE894E00E9434041092700310927103BC
:101440001092720310927303C0907003D0907103D6
:10145000E0907203F090730306E0C016D104E1043B
:10146000F10430F58601000F111FC8018C0D9D1D80
:101470006AE570E080589B4F0E94B803F801EC5673
:10148000FC4F8AE590E09183808308571C4FD80178
:101490008D939C93BFEFCB1ADB0AEB0AFB0AC09239
:1014A0007003D0927103E0927203F0927303CCCF79
:1014B0000E947705ABEAB3E08D91FD01EB5AF34052
:1014C0008D32D1F7E555FC4F04E213E01A8309830E
:1014D0008191DF01AB5AB3408D3211F5A555BC4F58
:1014E0002FE033E03A8329838D91FD01EB5AF340DD
:1014F0008D32E1F4E555FC4FAAEFB2E02191CF0126
:101500008B5A93402D32C1F4FC01E555FC4FA5EEFA
:10151000B2E0819190ED980F9A3080F48D93F9CFDD
:10152000A981BA818D93BA83A983D2CFE981FA8147
:101530008193FA83E983D8CF2D93E0CF65EA72E0F7
:1015400084E293E00E940B11892B09F0F2C067EA54
:1015500072E08FE093E00E940B11892B09F0E9C043
:1015600067EA72E08AEF92E00E940B11892BC9F0C2
:1015700069EA72E08AEF92E00E940B11892B89F0F0
:101580006BEA72E08AEF92E00E940B11892B49F01E
:101590006DEA72E08AEF92E00E940B11892B09F04C
:1015A000C8C01092E4021092E30261E080919804B6
:1015B0000E94780260E0809198040E94380260E006
:1015C00080919A040E947802E0919C04F0919D041D
:1015D0002E2FE23098F4FF27EE0FFF1FE050FF4F51
:1015E00086E395E09183808380916900213009F43E
:1015F00000C18C7F816080936900E89AE091ED03DF
:10160000F091EE0382E08083E091ED03F091EE0330
:101610001082E091E903F091EA031082E091EB037C
:10162000F091EC0380E180831092F503E091F103E7
:10163000F091F20386E08083E091EF03F091F003F4
:10164000808180618083E091EF03F091F0038081DD
:1016500088608083E091EF03F091F00380818068DF
:101660008083E091EF03F091F00380818F7D808390
:1016700068EC70E080E090E00E9485030E947705AE
:1016800061E083E00E94780261E085E00E947802D8
:1016900061E086E00E94780261E080E10E947802C9
:1016A00061E081E10E94780261E08EE00E947802B0
:1016B00061E08FE00E94780261E08BE00E94780296
:1016C00061E08AE00E94780261E08CE00E9478028A
:1016D00060E085E10E94780210926E0362E370E0A0
:1016E00080E090E00E94850360E089E00E940C05A4
:1016F00063E08AE00E940C0567E08BE00E940C0525
:1017000061E08CE00E940C0560E08FE00E940C0517
:1017100081E080934F0300914F030983093008F063
:101720006EC060E0802F0E940C050F5F00934F0396
:10173000F2CF6FEA72E084E293E00E940B11892BF2
:10174000D1F567EA72E08FE093E00E940B11892BDC
:1017500079F467EA72E08AEF92E00E940B11892B1C
:1017600039F481E090E09093E4028093E3021DCF8E
:101770006BEA72E08FE093E00E940B11892BD9F4A1
:1017800067EA72E08AEF92E00E940B11892B81F0E8
:1017900069EA72E08AEF92E00E940B11892B41F016
:1017A0006BEA72E08AEF92E00E940B11892B19F428
:1017B00082E090E0D8CF61EB72E084E293E00E9497
:1017C0000B11892B99F467EA72E08FE093E00E9495
:1017D0000B11892B59F463EB72E08AEF92E00E94BF
:1017E0000B11892B19F485E090E0BDCF8FE097E2D3
:1017F000BACF837F846080936900E99AFFCE0E940C
:10180000650259EE252E50E0352E8FB7F894C09022
:101810007C04D0907D04E0907E04F0907F048FBF24
:101820008091A903811191C01DE2C11611E0D1067A
:10183000E104F10468F00E94FA05C092A503D09279
:10184000A603E092A703F092A80381E08093A90386
:101850001092A0038091A003863008F0B0C090E001
:10186000880F991FFC01EC56FC4F88579C4F208134
:101870003181DC018D919C912817390709F44FC003
:101880008FB7F89440917C0450917D0460917E0460
:1018900070917F048FBF8091A00390E0FC01EE0F58
:1018A000FF1FEE0FFF1FE059FC4F008111812281C5
:1018B0003381041715072607370788F5880F991F06
:1018C000FC01E857FC4F208131818C569C4FDC0194
:1018D0008D919C91281739070CF06EC02F5F3F4FF8
:1018E000318320832FB7F89480917C0490917D04FC
:1018F000A0917E04B0917F042FBFE091A00304E08B
:10190000E09FF0011124E059FC4F20916F03820FFA
:10191000911DA11DB11D80839183A283B38310917A
:10192000A003E12FF0E0EE0FFF1FE857FC4F6081AE
:10193000718123E0129FC001112480589B4F0E94A7
:10194000B8031F5F1093A00385CF8091A5039091EA
:10195000A603A091A703B091A803A7019601281B95
:10196000390B4A0B5B0BDA01C901883B9B40A1058F
:10197000B10508F06DCF8091A1039091A203A091D1
:10198000A303B091A40397018601081B190B2A0B2E
:101990003B0BD901C8018C329140A105B10508F477
:1019A00057CF0E94FA05C092A103D092A203E09201
:1019B000A303F092A4034CCF2150310991CF8DEDB8
:1019C00093E00E94F700892BC1F08DED93E00E9417
:1019D000D50020916E0321113AC09C013327263691
:1019E0003105E1F0BCF422363105C1F0BCF42032FF
:1019F000310521F12136310521F180E090E0892B7C
:101A000009F403CF0E940301882309F4FACE0E944F
:101A10000000F7CE2A36310509F034F480936D03C7
:101A200082E080936E03E9CF29373105B9F32A3775
:101A30003105A1F32337310501F7F0CF0E94FA05F4
:101A4000DCCF80936D0333E030936E03D6CF22302A
:101A500009F043C090916C03E92FF0E0E85AFC4F85
:101A600080839F5F90936C03E0916D03E256E931B0
:101A700020F6F0E0E25CF24F0C94FE10610D610D77
:101A80005E0D570D5E0D670D640D640D610DFD0C4F
:101A9000FD0CFD0CFD0CFD0CFD0CFD0CFD0C640D96
:101AA000FD0CFD0CFD0CFD0CFD0C670D6A0D983056
:101AB00008F4A3CF43E040936E039FCF9111FACF78
:101AC0009CCF9430B8F799CF9230A0F796CF93304F
:101AD00088F793CF953070F790CF233009F08DCFF2
:101AE000843209F066C0E0916D03E156EA3108F0F6
:101AF00060C0F0E0E258F24F0C94FE10D70DD90D03
:101B0000D90D980DE20DEC0D050E180EC80FD70D6E
:101B1000D90DD90DD90DD90DD90DD90DD90DD90D95
:101B2000D70FD90DD90DD90DD90DD90D1A10F40F24
:101B300050915803852F90E09C01B3E0359527958F
:101B4000BA95E1F72170322F330F52FB222720F98B
:101B5000230F220F51FB332730F9230FE7E0F0E08A
:101B6000E21BF109E05BFC4F40819C0116E03595DA
:101B700027951A95E1F72170220F55FB992790F9C7
:101B8000290F220F82958170820F01E010E020E082
:101B900030E004C0000F111F221F331F8A95D2F7B7
:101BA000C80150FF0BC0842B80830E9420050E9437
:101BB000900410926E0310926C031FCF80954823FF
:101BC0004083F3CFA8E5B3E0E0E5F3E089E081509E
:101BD000C1F09D919193FBCFA0E5B3E02091580314
:101BE00018E0219F9001112490E080E0F901E80FB6
:101BF000F91FEB5FFE4F40814D93019688309105B0
:101C0000A9F788E080934F03D0CF6091580370E02C
:101C100083E00E94C4026091590370E085E00E9455
:101C2000C40260915A0370E086E00E94C402BFCFF4
:101C3000209159032B8330E0207F332700915803F4
:101C4000A901400F511D5A8349835B815F702AEFC0
:101C5000529F800111241D830C83809104018D30DB
:101C600009F08DC0E9EFF0E0149117FDA0CF61E01D
:101C70008DE00E947802112389F029813A8149017F
:101C8000330FAA08BB0860E072E18AE790E0A50183
:101C900094010E948F10123009F004C149815A81C9
:101CA0004A01550FAA08BB0860E072E18AE790E09C
:101CB000A50194010E948F1029013A0168E478EE91
:101CC00081E090E0A50194010E948F1069017A01E2
:101CD00081E0C81AD108E108F108112309F4C2C152
:101CE00084E01230C1F484E09FEFC916D104E1040E
:101CF000F104F1F1ECF164E274EF80E090E0A50111
:101D000094010E948F1069017A01A1E0CA1AD108DA
:101D1000E108F10885E0FFEFCF16D104E104F104FA
:101D200039F130F162E17AE780E090E0A5019401B9
:101D30000E948F1069017A01B1E0CB1AD108E10845
:101D4000F10886E0EFEFCE16D104E104F10481F052
:101D50007CF0730162019AE0F594E794D794C794FC
:101D60009A95D1F791E0C91AD108E108F10887E006
:101D70009091B100987F892B8093B100A5C18F3FCE
:101D800009F015CF8DE080930401E9EFF0E01491A4
:101D90001F3F09F40CCF113039F168F0123009F40B
:101DA00041C0133009F460C017FD01CF61E08DE040
:101DB0000E94780262CF14BC15BC84B5826084BDD9
:101DC00085B5816085BDF1018491E82FF0E0EE0FCB
:101DD000FF1FE053FF4F85919491E0ECF0E0849178
:101DE00080933E0310E043CF109280001092810058
:101DF0008091810088608093810080918100816062
:101E000080938100F1018491E82FF0E0EE0FFF1F35
:101E1000E053FF4F85919491E0ECF0E08491809342
:101E20003D0325CF1092B0001092B1008091B00018
:101E300082608093B0008091B10081608093B10096
:101E4000F1018491E82FF0E0EE0FFF1FE053FF4F08
:101E50008591949190933C0380933B03E0ECF0E0F8
:101E6000849180933A0303CF1092900010929100D6
:101E700080919100886080939100809191008160B1
:101E800080939100F1018491E82FF0E0EE0FFF1FA5
:101E9000E053FF4F85919491E0ECF0E084918093C2
:101EA0003903E5CE69017A01B1E0CB1AD108E10826
:101EB000F10891E0C114D104E1E0EE06F10484F0F0
:101EC00068E478EE81E090E0A50194010E948F1013
:101ED00069017A01F1E0CF1AD108E108F10893E035
:101EE000113001F580918100887F892B80938100DA
:101EF0002C813D81232B09F0EEC02FEF3FEFA9018C
:101F0000D0928900C0928800209347033093480301
:101F10004093490350934A0380916F0082608093FD
:101F20006F0045CE133009F0CFC080919100887FBB
:101F3000892B809391004C815D81452B09F0CBC0AA
:101F40002FEF3FEFA901C092980020933F033093F9
:101F5000400340934103509342038091710082609B
:101F60008093710024CE123019F0133061F31FCE2C
:101F7000C092B3002093430330934403409345033E
:101F800050934603809170008260809370000FCE62
:101F90006091580370E085E994E00E94B803609175
:101FA000590370E082E994E00E94B80300CEE0910A
:101FB00058038E2F90E023E0959587952A95E1F7B9
:101FC00087709927982F990F990F890F80936F0326
:101FD000E770F0E0EE0FFF1FEC56FC4F80915903C5
:101FE00090E091838083E3CD80915C038770982F8C
:101FF000990F990F890F80936F038091580390E098
:1020000090939503809394038091590390E090936B
:1020100097038093960380915A0390E090939903DD
:102020008093980380915B0390E090939B0380934F
:102030009A03BDCD80915A038770982F990F990FFD
:10204000890F80936F038091580390E090939D03D4
:1020500080939C038091590390E090939F03809319
:102060009E03A5CD93E03FEFC316D104E104F10434
:1020700039F134F162E17AE780E090E0A501940162
:102080000E948F1069017A0101E0C01AD108E108AD
:10209000F10894E02FEFC216D104E104F10481F0BD
:1020A0007CF0730162018AE0F594E794D794C794B9
:1020B0008A95D1F7A1E0CA1AD108E108F10895E0A4
:1020C00085B5887F892B85BD8C819D812FEF3FEF62
:1020D000A901892B71F029813A81220F331FAC812C
:1020E000BD810E94041128EE33E040E050E00E94E0
:1020F000C110113009F404CF0CF035CF111157CDB8
:10210000C7BC20934B0330934C0340934D03509333
:102110004E0380916E00826080936E0048CD052E44
:1021200097FB1EF400940E94A61057FD07D00E9452
:10213000C11007FC03D04EF40C94A61050954095A6
:10214000309521953F4F4F4F5F4F08959095809563
:10215000709561957F4F8F4F9F4F08950E94E310B8
:10216000A59F900DB49F900DA49F800D911D1124EB
:102170000895B7FF0C94AE100E94AE10821B930B13
:102180000895A1E21A2EAA1BBB1BFD010DC0AA1FB8
:10219000BB1FEE1FFF1FA217B307E407F50720F0D0
:1021A000A21BB30BE40BF50B661F771F881F991F4B
:1021B0001A9469F760957095809590959B01AC0194
:1021C000BD01CF010895A29FB001B39FC001A39F9D
:1021D000700D811D1124911DB29F700D811D112460
:1021E000911D0895991B79E004C0991F961708F076
:1021F000961B881F7A95C9F780950895EE0FFF1FEB
:102200000590F491E02D09940E94E310B7FF089522
:10221000821B930B0895FB01DC018D9101908019C5
:0C2220000110D9F3990B0895F894FFCF3A
:10222C00B703B703FF007CFE8282FE7C0000000235
:10223C00FEFE4200000062F2929ACE4600006CFE56
:10224C009292C6440008FEFEC868381800009CBE76
:10225C00A2A2E6E400304844222244483000101880
:10226C00141418100010181414141418100010283A
:10227C004444281000007CFE8282FE7C0000000298
:10228C00FEFE4200000062F2929ACE4600006CFE06
:10229C009292C6440008FEFEC868381800009CBE26
:1022AC00A2A2E6E400304844222244483000101830
:1022BC0014141810001018141414141810001028EA
:1022CC004444281000007CFE8282FE7C0000000248
:1022DC00FEFE4200000062F2929ACE4600006CFEB6
:1022EC009292C6440008FEFEC868381800009CBED6
:1022FC00A2A2E6E4003048442222444830001018E0
:10230C001414181000101814141414181000102899
:10231C004444281000000002FEFE4200000062F25D
:10232C00929ACE4600006CFE9292C6440008FEFEC5
:10233C00C868381800009CBEA2A2E6E400304844ED
:10234C0022224448300010181414181000101814CD
:10235C001414141810001028444428100000000015
:10236C000000000000000000000000000000000061
:10237C000000000000000000000000000000000051
:10238C000000000000000000000000000000000041
:10239C000000000000000000000000000000000031
:1023AC000000000000000000000000000000000021
:1023BC000000000000000000003D01A800F700D55F
:1023CC0000E900AF01520031003200330034004C00
:0623DC00004F0035000077
:00000001FF
