:100000000C9469000C9443060C941C060C9491000B
:100010000C9491000C9491000C9491000C946A063D
:100020000C9491000C9491000C9491000C94440752
:100030000C9491000C9491000C9491000C949100FC
:100040000C94D2050C9491000C9412070C94EC06BD
:100050000C9491000C9491000C9491000C949100DC
:100060000C9491000C9491000000000023002600E5
:100070002900303030303300524F42424F2D0002C1
:1000800000000000240027002A00000000002500D6
:1000900028002B00040404040404040402020202E5
:1000A000020203030303030301020408102040803B
:1000B00001020408102001020408102000000008BA
:1000C000000201000003040700000000000000001F
:1000D0001B0811241FBECFEFD8E0DEBFCDBF12E05A
:1000E000A0E0B1E0E2EBFFE102C005900D92A83B79
:1000F000B107D9F724E0A8EBB2E001C01D92A53A00
:10010000B207E1F710E0C9E6D0E004C02197FE0194
:100110000E94C10FC836D107C9F70E94AC080C94E1
:10012000D70F0C940000833081F028F4813099F0CF
:100130008230A9F008958730A9F08830C9F0843062
:10014000B1F4809180008F7D03C0809180008F7713
:1001500080938000089584B58F7784BD089584B519
:100160008F7DFBCF8091B0008F778093B000089592
:100170008091B0008F7DF9CF1F93CF93DF93282F0D
:1001800030E0F901E454FF4F8491F901E855FF4F45
:10019000D491F901EC56FF4FC491CC23A9F0162F4E
:1001A00081110E949300EC2FF0E0EE0FFF1FE65745
:1001B000FF4FA591B4918FB7F894EC91111108C03D
:1001C000D095DE23DC938FBFDF91CF911F910895EF
:1001D000DE2BF8CFCF93DF93C4E9D4E0188A61E037
:1001E00088810E94BC0083E290E00197F1F760E013
:1001F0008881DF91CF910C94BC00CF93DF9390E086
:10020000FC01E855FF4F24918C569F4FFC018491CF
:100210008823D1F090E0880F991FFC01E058FF4F30
:10022000A591B491FC01E657FF4FC591D49161119E
:100230000EC09FB7F8948C91E22FE0958E238C939B
:100240002881E223E8839FBFDF91CF9108958FB784
:10025000F894EC91E22BEC938FBFF6CF1F93CF93E2
:10026000DF93182FEB0161E00E94FD00209739F425
:1002700060E0812FDF91CF911F910C94BC00CF3FA4
:10028000D10511F461E0F5CFE12FF0E0E454FF4F28
:10029000E491E33031F140F4E130B1F0E230E1F0EB
:1002A000C038D1057CF7E4CFE73029F1E83059F1C7
:1002B000E430B1F780918000806280938000D09319
:1002C0008B00C0938A0004C084B5806884BDC7BD1C
:1002D000DF91CF911F91089584B5806284BDC8BD20
:1002E000F7CF80918000806880938000D093890050
:1002F000C0938800EDCF8091B00080688093B000FB
:10030000C093B300E5CF8091B00080628093B000CD
:10031000C093B400DDCF3FB7F8948091A3039091D0
:10032000A403A091A503B091A60326B5A89B05C080
:100330002F3F19F00196A11DB11D3FBFBA2FA92F64
:10034000982F8827BC01CD01620F711D811D911D61
:1003500042E0660F771F881F991F4A95D1F70895CD
:100360008F929F92AF92BF92CF92DF92EF92FF92C5
:100370004B015C010E948B016B017C010E948B018F
:100380006C197D098E099F09683E734081059105AE
:10039000A8F321E0821A9108A108B10888EEC80EDE
:1003A00083E0D81EE11CF11C81149104A104B10466
:1003B00029F7FF90EF90DF90CF90BF90AF909F9084
:1003C0008F9008950895AF92BF92CF92DF92EF92EF
:1003D000FF920F931F93CF93DF936C017B018B01EF
:1003E000040F151FEB015E01AE18BF08C017D1073F
:1003F00059F06991D601ED91FC910190F081E02DC9
:10040000C6010995892B79F7C501DF91CF911F911D
:100410000F91FF90EF90DF90CF90BF90AF90089535
:10042000FC01538D448D252F30E0842F90E0821BFA
:10043000930B541710F0CF96089501970895FC017F
:10044000918D828D981761F0A28DAE0FBF2FB11DD7
:100450005D968C91928D9F5F9F73928F90E008952F
:100460008FEF9FEF0895FC01918D828D981731F0E9
:10047000828DE80FF11D858D90E008958FEF9FEF3D
:100480000895FC01918D228D892F90E0805C9F4F13
:10049000821B91098F739927089589ED93E00E943B
:1004A000410221E0892B09F420E0822F089580E0A9
:1004B00090E0892B29F00E944D0281110C940000DC
:1004C0000895FC01A48DA80FB92FB11DA35ABF4FE9
:1004D0002C91848D90E001968F739927848FA68943
:1004E000B7892C93A089B1898C91837080648C9397
:1004F000938D848D981306C00288F389E02D808146
:100500008F7D80830895EF92FF920F931F93CF9377
:10051000DF93EC0181E0888F9B8D8C8D98131AC03E
:10052000E889F989808185FF15C09FB7F894EE8925
:10053000FF896083E889F989808183708064808382
:100540009FBF81E090E0DF91CF911F910F91FF90CD
:10055000EF900895F62E0B8D10E00F5F1F4F0F7375
:100560001127E02E8C8D8E110CC00FB607FCFACF30
:10057000E889F989808185FFF5CFCE010E9461026B
:10058000F1CFEB8DEC0FFD2FF11DE35AFF4FF08201
:100590009FB7F8940B8FEA89FB8980818062CFCF67
:1005A000682F89ED93E00C9483026DE289ED93E06E
:1005B0000C9483020F931F93CF93DF938C01D0E0B1
:1005C000C0E0F801EC0FFD1F6491662341F089ED56
:1005D00093E00E948302892B11F02196F2CFCE0185
:1005E000DF91CF911F910F910895CF93DF93EC018D
:1005F000888D8823B9F0AA89BB89E889F9898C910B
:1006000085FD03C0808186FD0DC00FB607FCF7CFC6
:100610008C9185FFF2CF808185FFEDCFCE010E94C6
:100620006102E9CFDF91CF910895CF92DF92EF92EF
:10063000FF92CF93DF93EC01603282E07807CCF534
:10064000653B710514F064EB70E0898128E830E0C7
:10065000281B310987FD3395220F331F220F331FCB
:100660006901330FEE08FF088A8128E532E0281B74
:10067000310987FD3395220F331F220F331F032EBD
:10068000000C440B550B2C193D094E095F09DB0189
:1006900077FF02C0B0E0A0E00E947C0F24EB30E0C6
:1006A00040E050E00E94520FC20ED31EE41EF51E21
:1006B000B601E881EC3070F5298188E890E0821B72
:1006C000910927FD9395880F991F880F991F681727
:1006D00079077CF02A8188E592E0821B910927FD49
:1006E0009395880F991F880F991F681779070CF445
:1006F000CB010297880F991F4FB7F8942E2F30E047
:10070000F901EE0FFF1FE20FF31FE454FD4F928338
:1007100081834FBFDF91CF91FF90EF90DF90CF901B
:1007200008951F93CF93DF93EC01162F88818C30AF
:1007300008F04EC061E0812F0E94FD008881282FC3
:1007400030E0F901EE0FFF1FE20FF31FE454FD4FFD
:100750001F736081607C612B608319821A822CE098
:10076000622F0E94B50F829FB001112430E020E07B
:10077000AB01420F531FFA01EE0FFF1FE40FF51FED
:10078000E454FD4F908196FD16C02F5F3F4F2C30F3
:10079000310571F781110FC01092800082E08093C3
:1007A00081001092850010928400B19A80916F00B0
:1007B000826080936F00E8818E2F90E0FC01EE0F45
:1007C000FF1FE80FF91FE454FD4F80818064808390
:1007D0008881DF91CF911F9108950F931F9383E23A
:1007E00090E00E94D0028091A404882341F160919E
:1007F000A0047091A1048091A2049091A30400919F
:100800009C0410919D0420919E0430919F04601BD4
:10081000710B820B930B2AE330E040E050E00E9422
:10082000840F2F3F310529F024F02FEF30E040E016
:1008300050E03093B9022093B8020E94EA00809100
:10084000B8029091B9020E94D00287E480937C00A4
:1008500080917A00806480937A0080917A0086FD8E
:10086000FCCF80917800909179008536910534F025
:1008700081E090E01F910F910C94D00290E080E015
:10088000F9CFCF93DF93D82F60E08AE00E94BC00BD
:10089000C8E060E08BE00E94BC006D2F60788CE0C7
:1008A0000E94BC00DD0F61E08BE00E94BC00C150E3
:1008B00081F7DF91CF910895CF93DF93D82FC62F83
:1008C00060E08AE00E94BC008D2F0E9441048C2FC2
:1008D0000E94410461E08AE0DF91CF910C94BC005A
:1008E000CF9381E080934703C0914703C93060F400
:1008F000EC2FF0E0E95BFC4F60818C2F0E945C04E0
:10090000CF5FC0934703F0CFCF9108950F931F930C
:10091000CF93DF93C0917604D09177042A813B81F5
:100920003327F901E454FF4F8491F901E855FF4F53
:100930000491F901EC56FF4F14911123C9F0811174
:100940000E949300E12FF0E0EE0FFF1FE859FF4FE8
:10095000A591B491EC910E2359F00E948B01688708
:1009600079878A879B87DF91CF911F910F91089597
:100970000E948B016C877D878E879F8781E0888BA3
:10098000F2CF0F931F93CF93DF9307EA13E0D0E0EA
:10099000C0E0CE010E944A0FF80181938F01219699
:1009A000C233D105B1F787EA93E0DF91CF911F9170
:1009B0000F9108958F929F92AF92BF920F931F93C2
:1009C000CF93DF93CDB7DEB7A1970FB6F894DEBF14
:1009D0000FBECDBF19A2423008F44AE08E010F5D70
:1009E0001F4F842E912CB12CA12CA50194010E94A3
:1009F000840FE62FB901CA01EA3044F5E05DD80161
:100A0000EE938D01232B242B252B79F790E080E0AA
:100A1000109769F0FD0101900020E9F73197AF01CF
:100A20004A1B5B0BBD0189ED93E00E94E301A19697
:100A30000FB6F894DEBF0FBECDBFDF91CF911F91EF
:100A40000F91BF90AF909F908F900895E95CD7CFA2
:100A5000FC0101900020E9F73197AF01481B590BC9
:100A6000BC0189ED93E00C94E301CF92DF92EF9209
:100A7000FF92CF93DF9388E790E00E94DA02C09064
:100A8000E002D090E10280E1C81687E2D806ECF4DB
:100A900080E390E00E94D00288EEC81683E0D8067A
:100AA000A4F480E390E00E94D00284E6C816D1044A
:100AB00064F480E390E00E94D0028AE0C816D1047A
:100AC00024F480E390E00E94D0020D2C000CEE088C
:100AD000FF084AE0C701B601F7FE0AC00E94D5022E
:100AE00066277727CB016C197D098E099F094AE09B
:100AF0000E94DA048DE290E00E94D00282E790E04A
:100B00000E94DA028DE290E00E94D00281E293E03E
:100B10000E9428050E94D502CCE0D3E00990002075
:100B2000E9F7CD50D340C530D10534F480E390E0EF
:100B30000E94D0022196F7CF8CE093E00E94280516
:100B40000E94D502C7EFD2E009900020E9F7C85F04
:100B5000D240C530D10534F480E390E00E94D00249
:100B60002196F7CF87EF92E00E9428050E94D502D8
:100B7000C2EED2E009900020E9F7C35ED240C43152
:100B8000D10534F480E390E00E94D0022196F7CFA3
:100B900082EE92E0DF91CF91FF90EF90DF90CF90C7
:100BA0000C9428051F920F920FB60F9211242F93C9
:100BB0003F938F939F93AF93BF93809178049091CD
:100BC0007904A0917A04B0917B043091A20323E0D0
:100BD000230F2D3758F50196A11DB11D2093A203B7
:100BE0008093780490937904A0937A04B0937B0463
:100BF0008091A3039091A403A091A503B091A603B3
:100C00000196A11DB11D8093A3039093A403A0930B
:100C1000A503B093A603BF91AF919F918F913F9190
:100C20002F910F900FBE0F901F90189526E8230F5D
:100C30000296A11DB11DD2CF1F920F920FB60F9237
:100C400011242F933F934F935F936F937F938F93D1
:100C50009F93AF93BF93EF93FF93E0910201F091C5
:100C600003010995FF91EF91BF91AF919F918F91F2
:100C70007F916F915F914F913F912F910F900FBE98
:100C80000F901F9018951F920F920FB60F9211247C
:100C90002F933F934F935F936F937F938F939F9384
:100CA000AF93BF93EF93FF93E0910001F0910101A7
:100CB0000995FF91EF91BF91AF919F918F917F9196
:100CC0006F915F914F913F912F910F900FBE0F90B9
:100CD0001F9018951F920F920FB60F9211242F9309
:100CE0003F934F935F936F937F938F939F93AF93B4
:100CF000BF93EF93FF9380913B0390913C03A091AE
:100D00003D03B0913E03892B8A2B8B2BD1F190911F
:100D10003603E0913703F09138038081892780837F
:100D200080913B0390913C03A0913D03B0913E0321
:100D3000181619061A061B069CF480913B03909125
:100D40003C03A0913D03B0913E030197A109B10975
:100D500080933B0390933C03A0933D03B0933E03E9
:100D6000FF91EF91BF91AF919F918F917F916F9183
:100D70005F914F913F912F910F900FBE0F901F9059
:100D8000189580910401EFE7F0E0E4919FEF9093D4
:100D90000401E13051F030F0E23069F060E00E948F
:100DA000BC00DECF10926E00F9CF90916F009D7F56
:100DB00090936F00F3CF909170009D7F909370009F
:100DC00091E09093B0009091B100987F94609093DF
:100DD000B1001092B300E2CF1F920F920FB60F92A4
:100DE00011242F933F934F935F936F937F938F9330
:100DF0009F93AF93BF93EF93FF9389ED93E00E948E
:100E00006102FF91EF91BF91AF919F918F917F917F
:100E10006F915F914F913F912F910F900FBE0F9067
:100E20001F9018951F920F920FB60F9211242F93B7
:100E30008F939F93EF93FF93E091E903F091EA037F
:100E40008081E091EF03F091F00382FD1BC090815F
:100E50008091F2038F5F8F732091F303821741F02B
:100E6000E091F203F0E0E752FC4F958F8093F2039C
:100E7000FF91EF919F918F912F910F900FBE0F9047
:100E80001F9018958081F4CF1F920F920FB60F928A
:100E900011242F933F934F935F936F937F938F937F
:100EA0009F93AF93BF93CF93DF93EF93FF93809183
:100EB000BA02C091BB02D0E087FF24C01092850027
:100EC000109284008091BA028F5F8093BA02809161
:100ED000BA02082E000C990B8C179D0724F4809100
:100EE000BA028C30C4F18091840090918500049600
:100EF00080349C4908F47AC08091840090918500E8
:100F0000049676C08091BA02082E000C990B8C17BB
:100F10009D07C4F6E091BA028E2FEE0F990BFC01EB
:100F2000EE0FFF1FE80FF91FE454FD4F808186FF8D
:100F3000C9CFE091BA028E2FEE0F990BFC01EE0F94
:100F4000FF1FE80FF91FE454FD4F808160E08F73AD
:100F50000E94BC00B7CF2091840030918500E091C1
:100F6000BA028E2FEE0F990BFC01EE0FFF1FE80F58
:100F7000F91FE454FD4F81819281820F931F90935A
:100F8000890080938800E091BA028E2FEE0F990BB2
:100F9000FC01EE0FFF1FE80FF91FE454FD4F8081A5
:100FA00086FF11C0E091BA028E2FEE0F990BFC0163
:100FB000EE0FFF1FE80FF91FE454FD4F808161E041
:100FC0008F730E94BC00FF91EF91DF91CF91BF9191
:100FD000AF919F918F917F916F915F914F913F91D1
:100FE0002F910F900FBE0F901F90189580E49CE9F1
:100FF00090938900809388008FEF8093BA02E3CFAB
:10100000FC019091BB029C3098F481E0890F8093A1
:10101000BB029083892F90E0FC01EE0FFF1FE80FC9
:10102000F91FE454FD4F88EB9BE092838183089580
:101030008FEF808308951092DC031092DB0388EE1B
:1010400093E0A0E0B0E08093DD039093DE03A093F3
:10105000DF03B093E00389E992E09093DA03809391
:10106000D90385EC90E09093E6038093E50384EC4C
:1010700090E09093E8038093E70380EC90E09093F6
:10108000EA038093E90381EC90E09093EC03809372
:10109000EB0382EC90E09093EE038093ED0386ECFB
:1010A00090E09093F0038093EF031092F20310927C
:1010B000F3031092F4031092F5038FB7F894409164
:1010C00078045091790460917A0470917B048FBF09
:1010D00089E090E0909395048093940482E090E0FE
:1010E0009093970480939604109299041092980418
:1010F00088EC90E090939B0480939A041092A4044F
:101100008091760490917704892B31F484E994E0FE
:10111000909377048093760481E994E00E9400081C
:101120008EE894E00E9400088CE794E00E9400089A
:101130008FE794E00E94000882E894E00E94000893
:1011400085E894E00E94000888E894E00E94000886
:101150008BE894E00C940008CF93DF9300D01F92AB
:10116000CDB7DEB7789484B5826084BD84B58160E4
:1011700084BD85B5826085BD85B5816085BD809162
:101180006E00816080936E001092810080918100DA
:1011900082608093810080918100816080938100D2
:1011A000809180008160809380008091B100846094
:1011B0008093B1008091B00081608093B0008091F5
:1011C0007A00846080937A0080917A0082608093B4
:1011D0007A0080917A00816080937A0080917A0011
:1011E000806880937A001092C1006EE070E08CE716
:1011F00094E00E9491036FE070E08FE794E00E941A
:10120000910360E170E082E894E00E94910361E163
:1012100070E085E894E00E94910367E070E088E860
:1012200094E00E94910368E070E08BE894E00E94F3
:101230009103109268031092690310926A0310924E
:101240006B03C0906803D0906903E0906A03F0904C
:101250006B0306E0C016D104E104F10430F5860109
:10126000000F111FC8018C0D9D1D6AE570E08458A8
:101270009B4F0E941503F801E457FC4F8AE590E06C
:101280009183808300581C4FD8018D939C93BFEFAE
:10129000CB1ADB0AEB0AFB0AC0926803D0926903FF
:1012A000E0926A03F0926B03CCCF0E94C104A7EADC
:1012B000B3E08D91FD01E75AF3408D32D1F7E95546
:1012C000FC4F01E213E01A8309838191DF01A75AE1
:1012D000B3408D3211F5A955BC4F2CE033E03A8371
:1012E00029838D91FD01E75AF3408D32E1F4E955F0
:1012F000FC4FA7EFB2E02191CF01875A93402D32E6
:10130000C1F4FC01E955FC4FA2EEB2E0819190EDF1
:10131000980F9A3080F48D93F9CFA981BA818D937B
:10132000BA83A983D2CFE981FA818193FA83E983D1
:10133000D8CF2D93E0CF67EA72E081E293E00E947C
:10134000CE0F892B09F0F2C069EA72E08CE093E0DD
:101350000E94CE0F892B09F0E9C069EA72E087EF9D
:1013600092E00E94CE0F892BC9F06BEA72E087EF02
:1013700092E00E94CE0F892B89F06DEA72E087EF30
:1013800092E00E94CE0F892B49F06FEA72E087EF5E
:1013900092E00E94CE0F892B09F0C8C01092E102A2
:1013A0001092E00261E0809194040E94FD0060E0F0
:1013B000809194040E94BC0060E0809196040E9499
:1013C000FD00E0919804F09199042E2FE23098F4FA
:1013D000FF27EE0FFF1FE050FF4F86E894E0918358
:1013E000808380916900213009F400C18C7F816085
:1013F00080936900E89AE091E903F091EA0382E0C2
:101400008083E091E903F091EA031082E091E50323
:10141000F091E6031082E091E703F091E80380E1A8
:1014200080831092F103E091ED03F091EE0386E0EA
:101430008083E091EB03F091EC03808180618083F5
:10144000E091EB03F091EC03808188608083E09170
:10145000EB03F091EC03808180688083E091EB03E3
:10146000F091EC0380818F7D808368EC70E080E0F8
:1014700090E00E94B0010E94C10461E083E00E94FC
:10148000FD0061E085E00E94FD0061E086E00E94D1
:10149000FD0061E080E10E94FD0061E081E10E94C9
:1014A000FD0061E08EE00E94FD0061E08FE00E949F
:1014B000FD0061E08BE00E94FD0061E08AE00E9497
:1014C000FD0061E08CE00E94FD0060E085E10E948B
:1014D000FD001092660362E370E080E090E00E94FD
:1014E000B00160E089E00E945C0463E08AE00E9451
:1014F0005C0467E08BE00E945C0461E08CE00E9489
:101500005C0460E08FE00E945C0481E0809347030C
:10151000009147030983093008F06EC060E0802F16
:101520000E945C040F5F00934703F2CF61EB72E00F
:1015300081E293E00E94CE0F892BD1F569EA72E037
:101540008CE093E00E94CE0F892B79F469EA72E077
:1015500087EF92E00E94CE0F892B39F481E090E072
:101560009093E1028093E0021DCF6DEA72E08CE07F
:1015700093E00E94CE0F892BD9F469EA72E087EFDD
:1015800092E00E94CE0F892B81F06BEA72E087EF28
:1015900092E00E94CE0F892B41F06DEA72E087EF56
:1015A00092E00E94CE0F892B19F482E090E0D8CF10
:1015B00063EB72E081E293E00E94CE0F892B99F4F5
:1015C00069EA72E08CE093E00E94CE0F892B59F417
:1015D00065EB72E087EF92E00E94CE0F892B19F441
:1015E00085E090E0BDCF8FE097E2BACF837F846043
:1015F00080936900E99AFFCE0E94EA0031EA232E27
:1016000030E0332E8FB7F894C0907804D0907904EE
:10161000E0907A04F0907B048FBF8091A103811148
:1016200091C01DE2C11611E0D106E104F10468F099
:101630000E943505C0929D03D0929E03E0929F03C5
:10164000F092A00381E08093A1031092980380910F
:101650009803863008F0B0C090E0880F991FFC0115
:10166000E457FC4F80589C4F20813181DC018D91E3
:101670009C912817390709F44FC08FB7F89440910F
:1016800078045091790460917A0470917B048FBF43
:101690008091980390E0FC01EE0FFF1FEE0FFF1FFB
:1016A000E859FC4F0081118122813381041715070D
:1016B0002607370788F5880F991FFC01E058FC4F73
:1016C0002081318184579C4FDC018D919C9128179A
:1016D00039070CF06EC02F5F3F4F318320832FB747
:1016E000F8948091780490917904A0917A04B09153
:1016F0007B042FBFE091980304E0E09FF0011124E8
:10170000E859FC4F20916703820F911DA11DB11D67
:1017100080839183A283B38310919803E12FF0E03B
:10172000EE0FFF1FE058FC4F6081718123E0129F94
:10173000C001112484589B4F0E9415031F5F109312
:10174000980385CF80919D0390919E03A0919F0364
:10175000B091A003A7019601281B390B4A0B5B0B24
:10176000DA01C901883B9B40A105B10508F06DCFA6
:101770008091990390919A03A0919B03B0919C034F
:1017800097018601081B190B2A0B3B0BD901C801D5
:101790008C329140A105B10508F457CF0E94350560
:1017A000C0929903D0929A03E0929B03F0929C031B
:1017B0004CCF2150310991CF89ED93E00E94410235
:1017C000892BC1F089ED93E00E941F0220916603EE
:1017D00021113AC09C01332726363105E1F0BCF4D3
:1017E00022363105C1F0BCF42032310521F1213619
:1017F000310521F180E090E0892B09F403CF0E94AC
:101800004D02882309F4FACE0E940000F7CE2A3652
:10181000310509F034F48093650382E08093660318
:10182000E9CF29373105B9F32A373105A1F3233739
:10183000310501F7F0CF0E943505DCCF80936503B9
:1018400033E030936603D6CF223009F043C0909145
:101850006403E92FF0E0E05BFC4F80839F5F90938F
:101860006403E0916503E256E93120F6F0E0E55CBF
:10187000F34F0C94C10F5E0C5E0C5B0C540C5B0CB4
:10188000640C610C610C5E0CFA0BFA0BFA0BFA0B90
:10189000FA0BFA0BFA0BFA0B610CFA0BFA0BFA0BB8
:1018A000FA0BFA0B640C670C983008F4A3CF43E0F2
:1018B000409366039FCF9111FACF9CCF9430B8F735
:1018C00099CF9230A0F796CF933088F793CF953089
:1018D00070F790CF233009F08DCF843209F066C0C5
:1018E000E0916503E156EA3108F060C0F0E0E558A8
:1018F000F34F0C94C10FD40CD60CD60C950CDF0C06
:10190000E90C020D150DA40ED40CD60CD60CD60C79
:10191000D60CD60CD60CD60CD60CB30ED60CD60CD8
:10192000D60CD60CD60CF60ED00E50915003852F47
:1019300090E09C01E3E035952795EA95E1F7217069
:10194000322F330F52FB222720F9230F220F51FB96
:10195000332730F9230FE7E0F0E0E21BF109E85B01
:10196000FC4F40819C01A6E035952795AA95E1F7AB
:101970002170220F55FB992790F9290F220F82958C
:101980008170820F01E010E020E030E004C0000F21
:10199000111F221F331F8A95D2F7C80150FF0BC0B9
:1019A000842B80830E9470040E94ED0310926603D2
:1019B000109264031FCF809548234083F3CFA0E5A6
:1019C000B3E0E8E4F3E089E08150C1F09D919193A8
:1019D000FBCFA8E4B3E02091500318E0219F9001D1
:1019E000112490E080E0FC01E20FF31FEB5FFE4F5B
:1019F00040814D93019688309105A9F788E0809346
:101A00004703D0CF6091500370E083E00E942E0125
:101A10006091510370E085E00E942E0160915203B5
:101A200070E086E00E942E01BFCF209151032983F0
:101A300030E0207F332700915003020F132F111D38
:101A400039813F708AEF389FA00111245A8349835E
:101A5000809104018D3009F08FC0EFE7F0E0F49140
:101A6000FB83F7FDA1CF61E08DE00E94FD00FB81CB
:101A7000FF2389F04801012E000CAA08BB0860E092
:101A800072E18AE790E0A50194010E94520F8B81D8
:101A9000823009F0E5C04801012E000CAA08BB08FD
:101AA00060E072E18AE790E0A50194010E94520F84
:101AB00029013A0168E478EE81E090E0A501940103
:101AC0000E94520F69017A0191E0C91AD108E10818
:101AD000F108AB81AA2309F4BDC184E0A230C1F4AE
:101AE00084E0BFEFCB16D104E104F104F1F1ECF195
:101AF00064E274EF80E090E0A50194010E94520F2F
:101B000069017A01E1E0CE1AD108E108F10885E027
:101B1000FFEFCF16D104E104F10439F130F162E1B5
:101B20007AE780E090E0A50194010E94520F6901DC
:101B30007A01B1E0CB1AD108E108F10886E0EFEFB5
:101B4000CE16D104E104F10481F07CF0730162014E
:101B50008AE0F594E794D794C7948A95D1F741E049
:101B6000C41AD108E108F10887E09091B100987F8C
:101B7000892B8093B10065C18F3F09F015CF8DE0AF
:101B800080930401EFE7F0E0F491FB83FF3F09F459
:101B90000BCFF13029F158F0F23009F43FC02B811E
:101BA00027FD02CF61E08DE00E94FD0063CF14BCF1
:101BB00015BC84B5826084BD85B5816085BDF101A9
:101BC0008491E82FF0E0EE0FFF1FE657FF4F85915D
:101BD0009491E5EBF0E0849180933A031B8243CF2C
:101BE0001092800010928100809181008860809323
:101BF000810080918100816080938100F101849156
:101C0000E82FF0E0EE0FFF1FE657FF4F859194910C
:101C1000E5EBF0E084918093390325CF1092B0007A
:101C20001092B1008091B00082608093B0008091EA
:101C3000B10081608093B100F1018491E82FF0E060
:101C4000EE0FFF1FE657FF4F859194919093380355
:101C500080933703E5EBF0E084918093360303CF64
:101C600069017A01F1E0CF1AD108E108F10891E0A9
:101C7000C114D10421E0E206F10484F068E478EEB6
:101C800081E090E0A50194010E94520F69017A0160
:101C900081E0C81AD108E108F10893E0AB81A130D6
:101CA00009F0CFC080918100887F892B80938100CB
:101CB000E981FA812FEF3FEFA901EF2B19F198018C
:101CC000220F331FA981BA810E94C70F28EE33E08B
:101CD00040E050E00E94840F0B81013099F0023007
:101CE00019F1011161CEC7BC209343033093440323
:101CF000409345035093460380916E008260809329
:101D00006E0052CED0928900C092880020933F038B
:101D100030934003409341035093420380916F00FE
:101D2000826080936F0040CEC092B30020933B034B
:101D300030933C0340933D0350933E0380917000E9
:101D400082608093700030CE6091500370E081E932
:101D500094E00E9415036091510370E08EE894E0D6
:101D60000E94150321CEE09150038E2F90E023E0D6
:101D7000959587952A95E1F787709927982F990F60
:101D8000990F890F80936703E770F0E0EE0FFF1F54
:101D9000E457FC4F8091510390E09183808304CEFF
:101DA000809154038770982F990F990F890F809312
:101DB00067038091500390E090938D0380938C0390
:101DC0008091510390E090938F0380938E038091D4
:101DD000520390E09093910380939003809153037A
:101DE00090E09093930380939203DECD8091520311
:101DF0008770982F990F990F890F809367038091AF
:101E0000500390E090939503809394038091510345
:101E100090E09093970380939603C6CD730162017F
:101E20009AE0F594E794D794C7949A95D1F731E066
:101E3000C31AD108E108F10895E085B5887F892BA0
:101E400085BD29813A81232B09F039CF2FEF3FEF50
:101E5000A90142CF93E0AFEFCA16D104E104F10427
:101E600061F35CF362E17AE780E090E0A501940120
:101E70000E94520F69017A0181E0C81AD108E10875
:101E8000F1089FEFC916D104E104F10409F034F61A
:101E900094E0D3CFF999FECF92BD81BDF89A9927EE
:101EA00080B50895052E97FB1EF400940E94690FDB
:101EB00057FD07D00E94840F07FC03D04EF40C940A
:101EC000690F50954095309521953F4F4F4F5F4F8B
:101ED000089590958095709561957F4F8F4F9F4F96
:101EE00008950E94A60FA59F900DB49F900DA49FEA
:101EF000800D911D11240895B7FF0C94710F0E945D
:101F0000710F821B930B0895A1E21A2EAA1BBB1B13
:101F1000FD010DC0AA1FBB1FEE1FFF1FA217B307B5
:101F2000E407F50720F0A21BB30BE40BF50B661FCB
:101F3000771F881F991F1A9469F76095709580958F
:101F400090959B01AC01BD01CF010895A29FB00106
:101F5000B39FC001A39F700D811D1124911DB29FDD
:101F6000700D811D1124911D0895991B79E004C005
:101F7000991F961708F0961B881F7A95C9F78095C8
:101F80000895EE0FFF1F0590F491E02D09940E9433
:101F9000A60FB7FF0895821B930B0895FB01DC0188
:101FA0008D91019080190110D9F3990B0895F8943F
:021FB000FFCF61
:101FB200E201E201FF007CFE8282FE7C0000000260
:101FC200FEFE4200000062F2929ACE4600006CFED3
:101FD2009292C6440008FEFEC868381800009CBEF3
:101FE200A2A2E6E4003048442222444830001018FD
:101FF20014141810001018141414141810001028B7
:102002004444281000007CFE8282FE7C0000000214
:10201200FEFE4200000062F2929ACE4600006CFE82
:102022009292C6440008FEFEC868381800009CBEA2
:10203200A2A2E6E4003048442222444830001018AC
:102042001414181000101814141414181000102866
:102052004444281000007CFE8282FE7C00000002C4
:10206200FEFE4200000062F2929ACE4600006CFE32
:102072009292C6440008FEFEC868381800009CBE52
:10208200A2A2E6E40030484422224448300010185C
:102092001414181000101814141414181000102816
:1020A2004444281000000002FEFE4200000062F2DA
:1020B200929ACE4600006CFE9292C6440008FEFE42
:1020C200C868381800009CBEA2A2E6E4003048446A
:1020D200222244483000101814141810001018144A
:1020E2001414141810001028444428100000000092
:1020F20000000000000000000000000000000000DE
:1021020000000000000000000000000000000000CD
:1021120000000000000000000000000000000000BD
:1021220000000000000000000000000000000000AD
:10213200000000000000000000000000000000009D
:102142000000000000000000008302E3011002F51D
:102152000241021F023302520031003200330034C6
:08216200004C004F00350000A5
:00000001FF
