:100000000C9476000C941D060C94F6050C949E003E
:100010000C949E000C949E000C949E000C949E00E8
:100020000C949E000C949C060C949E000C949E00D4
:100030000C949E000C949E000C949E000C949E00C8
:100040000C9430090C949E000C946A060C9444069F
:100050000C949E000C949E000C949E000C949E00A8
:100060000C949E000C949E002D112D112D11391110
:1000700033113911361139112913BB1151116C117A
:100080008D11A711BE11F51120121F133030303120
:100090003000524F42424F2D000000000024002744
:1000A000002A0000000000250028002B00040404A2
:1000B0000404040404020202020202030303030311
:1000C00003010204081020408001020408102001EE
:1000D00002040810200000000800020100000304D0
:1000E000070000000000000000005A1311241FBE8A
:1000F000CFEFD8E0DEBFCDBF23E0A8E9B1E001C07B
:100100001D92A333B207E1F711E0A0E0B1E0ECE209
:10011000F1E302C005900D92A839B107D9F710E0BC
:10012000C6E7D0E004C02197FE010E947516C537CE
:10013000D107C9F70E94390D0C9494180C94000053
:100140000895CF92DF92EF92FF920F931F93CF9378
:10015000DF936C017A018B01C0E0D0E0CE15DF05A2
:1001600081F0D8016D918D01D601ED91FC91019046
:10017000F081E02DC6010995892B11F02196EECF73
:100180007E01C701DF91CF911F910F91FF90EF90FA
:10019000DF90CF900895089580E090E00895FC01ED
:1001A000538D448D252F30E0842F90E0821B930BDC
:1001B000541710F0CF96089501970895FC01918D82
:1001C000828D981761F0828DDF01A80FB11D5D96B9
:1001D0008C91928D9F5F9F73928F90E008958FEF27
:1001E0009FEF0895FC01918D828D981731F0828DDB
:1001F000E80FF11D858D90E008958FEF9FEF089532
:10020000FC01918D228D892F90E0805C9F4F821B95
:1002100091098F739927089583E892E00E94000165
:1002200021E0892B09F420E0822F0895FC01848DC0
:10023000DF01A80FB11DA35ABF4F2C91848D90E010
:1002400001968F739927848FA689B7892C93A089EB
:10025000B1898C91837080648C93938D848D981375
:1002600006C00288F389E02D80818F7D8083089508
:10027000EF92FF920F931F93CF93DF93EC0181E0F6
:10028000888F9B8D8C8D981305C0E889F9898081B2
:1002900085FD26C0F62E0B8D10E00F5F1F4F0F73EC
:1002A0001127E02E8C8DE8120CC00FB607FCFACF98
:1002B000E889F989808185FFF5CFCE010E9416017A
:1002C000F1CF8B8DFE01E80FF11DE35AFF4FF08255
:1002D0009FB7F8940B8FEA89FB89808180620AC0FE
:1002E0009FB7F894EE89FF896083E889F989808156
:1002F0008370806480839FBF81E090E0DF91CF9125
:100300001F910F91FF90EF900895CF93DF93EC0131
:10031000888D8823C9F0EA89FB89808185FD05C025
:10032000A889B9898C9186FD0FC00FB607FCF5CF5F
:10033000808185FFF2CFA889B9898C9185FFEDCFA7
:10034000CE010E941601E7CFDF91CF91089580E0A2
:1003500090E0892B29F00E940C0181110C9400007F
:100360000895FC0180850895CF93DF93FC011086EA
:100370001186128613861486158616861786108AAD
:10038000118A128A138A148A158A168A178A108E7D
:10039000118E128E138E148E13A214A210A611A603
:1003A00012A613A661A16931C8F582A18823B1F113
:1003B0006F5F61A36630A0F1EF01258D368D878DCB
:1003C00090A1820F931F968F858F70E06550710901
:1003D0000E943F169B01072E000C880B990B37FDDE
:1003E00009C00E94A91420E030E040E05FE30E94D1
:1003F0009D1508C00E94A91420E030E040E05FE3B2
:100400000E949C150E9409167D836C8383E0660F11
:10041000771F8A95E1F77F836E8302C081E082A314
:10042000DF91CF91089587E008950895FC018485B8
:10043000089586E0089581E00895FC0115820895ED
:10044000FC0184810895FC0165830895FC0183818A
:100450009481892B29F087819085019690878783E5
:1004600083859485019694878387858196810196FB
:10047000968385838081811104C081859285019650
:1004800003C08185928501979287818787819085B6
:1004900083859485858196818185928508950E94C2
:1004A0007618CF92DF92EF92FF92CF93DF93EC0119
:1004B0008BA5823009F48FC028F4882351F0813055
:1004C000E9F1D2C1833009F4C2C0843009F4F4C028
:1004D000CBC18A819B818830910548F09C012850CE
:1004E00031092630310530F0E6E2F0E005C0E9E2FE
:1004F000F0E002C0E3E2F0E0408150E08E30910590
:1005000064F08E5021E030E0B90102C0660F771F21
:100510008A95E2F7CB0199270BC08770992721E0D4
:1005200030E0B90102C0660F771F8A95E2F7CB0170
:1005300084239523892B09F01AC14BC08A819B81A2
:100540008830910548F09C0128503109263031054A
:1005500030F0E6E2F0E005C0E9E2F0E002C0E3E2FC
:10056000F0E0408150E08E30910564F08E5021E043
:1005700030E0B90102C0660F771F8A95E2F7CB0120
:1005800099270BC08770992721E030E0B90102C09C
:10059000660F771F8A95E2F7CB0184239523892B79
:1005A000C1F40E94D1086D877E878F87988BC9849C
:1005B000DA84EB84FC84DC01CB018C199D09AE0943
:1005C000BF0984309640A105B10508F44DC182E011
:1005D000D7C01BA649C18A819B818830910548F00C
:1005E0009C01285031092630310530F0E6E2F0E078
:1005F00005C0E9E2F0E002C0E3E2F0E0408150E053
:100600008E30910564F08E5021E030E0B90102C0D7
:10061000660F771F8A95E2F7CB0199270BC0877089
:10062000992721E030E0B90102C0660F771F8A9553
:10063000E2F7CB0184239523892B09F4A3C00E9400
:10064000D108698B7A8B8B8B9C8B83E099C0CD848E
:10065000DE84EF84F88889859A85AB85BC85A701FF
:100660009601281B390B4A0B5B0BCA01B9012EE01E
:1006700030E040E050E00E945316CA01B9010E94E8
:10068000A71420E030E040E05FE30E949D150E9447
:10069000091678A36F8F32E3C30ED11CE11CF11C45
:1006A0008C819D81C80ED91EE11CF11CC98EDA8E89
:1006B000EB8EFC8E84E08BA7C98CDA8CEB8CFC8CE7
:1006C0000E94D1086C157D058E059F0508F4CCC0ED
:1006D0002C813D81898D9A8DAB8DBC8D820F931FAE
:1006E000A11DB11D898F9A8FAB8FBC8F8A819B8191
:1006F0008830910548F09C01285031092630310599
:1007000030F0E6E2F0E005C0E9E2F0E002C0E3E24A
:10071000F0E0408150E08E30910564F08E5021E091
:1007200030E0B90102C0660F771F8A95E2F7CB016E
:1007300099270BC08770992721E030E0B90102C0EA
:10074000660F771F8A95E2F7CB01842395232CA1AE
:100750003BA1892BF1F0FE01E30FF11D81E090E058
:1007600001C0880F2A95EAF790A5892B1EC081E069
:100770008BA70E94D10869877A878B879C8774C072
:100780008BA772C00E94D1086D877E878F87988B58
:100790006BC0FE01E30FF11D81E090E001C0880F06
:1007A0002A95EAF7809590A5892380A78CA18F5F71
:1007B000883010F48CA358C01CA28BA18F5F8330AB
:1007C00010F48BA351C01BA21BA668A58DA190E0BD
:1007D000861B91099C0197FF04C022273327281B01
:1007E000390B49A55AA5203231054CF02EA130E035
:1007F000241B31092C5F3F4F2930310590F09C01BB
:100800002C5F3F4F29303105A8F42EA130E0241B86
:10081000310937FF03C03195219531092032310567
:100820004CF02FA130E0251B31092C5F3F4F2930C0
:100830003105C0F00496099790F48EA190E0841BD6
:1008400091090496099758F48FA190E0851B9109AE
:1008500097FF03C091958195910980971CF46DA332
:100860004EA35FA381E08887DF91CF91FF90EF9047
:10087000DF90CF900895CF92DF92EF92FF920F9387
:100880001F93CF93DF93EC018A81882309F474C00E
:100890000E94D1080C811D812E813F81DC01CB019A
:1008A000801B910BA20BB30B81339547A105B105BA
:1008B00008F443C12A853B852830310548F0C90139
:1008C0000897069750F0E7E2F0E0A7E2B0E009C031
:1008D000EAE2F0E0AAE2B0E004C0E4E2F0E0A4E280
:1008E000B0E09C912E30310514F02E5002C02770DC
:1008F000332781E001C0880F2A95EAF7892B80838E
:1009000061E08A850E9431088FE190E00197F1F75C
:1009100060E08A850E9431082A853B8528303105B0
:1009200048F0C9010897069750F4E4E2F0E0A4E229
:10093000B0E009C0EAE2F0E0AAE2B0E004C0E7E219
:10094000F0E0A7E2B0E04C912E30310514F02E50CB
:1009500002C02770332781E090E001C0880F2A95FC
:10096000EAF78095842380830E94D1086C837D837D
:100970008E839F831A82E1C00E94D1080C811D8161
:100980002E813F81DC01CB01801B910BA20BB30BAD
:10099000813A9648A140B10508F099C02B818A851B
:1009A0009B85222309F496C08830910548F09C016C
:1009B000285031092630310530F0E6E2F0E005C07C
:1009C000E9E2F0E002C0E3E2F0E0408150E08E3086
:1009D000910564F08E5021E030E0690102C0CC0C3A
:1009E000DD1C8A95E2F7C60199270BC0877099270D
:1009F00021E030E0790102C0EE0CFF1C8A95E2F79D
:100A0000C70184239523892B09F097C00E94D10840
:100A10000C811D812E813F816B017C01C01AD10A9E
:100A2000E20AF30AA7019601A0EDB4E80E944B1573
:100A300020E834E84EE150E00E9453162E50310970
:100A400037FD03C03987288702C019861886FE0142
:100A50003D96CE014D96DF0112962D913C91139754
:100A60002D933D938A179B07B9F7888599859E8FAB
:100A70008D8FCE014F9621913191318B208B8E1726
:100A80009F07C9F7FE0180E090E00196DF019C011D
:100A90002930310549F4329689309105B1F78FA19B
:100AA00098A59987888713C0478D50A191966D911D
:100AB0007C9192974617570734F470A3678F9296EC
:100AC0005C934E9391972F5F3F4F1296E1CF81E059
:100AD0008C8733C08830910548F09C01285031093B
:100AE0002630310530F0E6E2F0E005C0E9E2F0E062
:100AF00002C0E3E2F0E0408150E08E30910564F006
:100B00008E5021E030E0790102C0EE0CFF1C8A9586
:100B1000E2F7C70199270BC08770992721E030E0E1
:100B2000B90102C0660F771F8A95E2F7CB018423D3
:100B30009523892B11F081E08B83DF91CF911F9159
:100B40000F91FF90EF90DF90CF900895CF93DF93B8
:100B5000EC011B8281E08A831C860E94D1086C8391
:100B60007D838E839F83DF91CF910895CF93DF9311
:100B7000EC018A810E94BA0895958795959587958D
:100B80008D83DF91CF910895CF93DF93EC0184E0C3
:100B900090E00E948F16FC0110822DA121832EA1CE
:100BA00022832FA12383DF91CF910895CF93DF93E9
:100BB000EC0184E090E00E948F16FC01108211820B
:100BC000128228852383DF91CF910895CF93DF93FD
:100BD000EC0184E090E00E948F16FC0110821182EB
:100BE00012822D812383DF91CF9108951F920F925E
:100BF0000FB60F9211242F933F934F935F936F93F0
:100C00007F938F939F93AF93BF93EF93FF93E09165
:100C10000201F09103010995FF91EF91BF91AF910E
:100C20009F918F917F916F915F914F913F912F9104
:100C30000F900FBE0F901F9018951F920F920FB636
:100C40000F9211242F933F934F935F936F937F9352
:100C50008F939F93AF93BF93EF93FF93E091000126
:100C6000F09101010995FF91EF91BF91AF919F9193
:100C70008F917F916F915F914F913F912F910F9045
:100C80000FBE0F901F9018951F920F920FB60F92E4
:100C900011242F933F934F935F936F937F938F9381
:100CA0009F93AF93BF93EF93FF9383E892E00E94EB
:100CB0001601FF91EF91BF91AF919F918F917F911D
:100CC0006F915F914F913F912F910F900FBE0F90B9
:100CD0001F9018951F920F920FB60F9211242F9309
:100CE0008F939F93EF93FF93E0919302F09194027F
:100CF0008081E0919902F0919A0282FD12C0908168
:100D000080919C028F5F8F7320919D02821751F01A
:100D1000E0919C02F0E0ED57FD4F958F80939C028F
:100D200001C08081FF91EF919F918F912F910F9042
:100D30000FBE0F901F9018951F920F920FB60F9233
:100D400011242F933F934F935F936F937F938F93D0
:100D50009F93AF93BF93EF93FF93809198018F5F21
:100D600080939801809199012091980190E0FC0175
:100D7000EE0FFF1F8E0F9F1FFC01E859FD4F818171
:100D800082130FC08091990190E0FC01EE0FFF1FCC
:100D90008E0F9F1FFC01E859FD4F82818093B200A6
:100DA00065C0809199012091980190E0FC01EE0FBF
:100DB000FF1F8E0F9F1FFC01E859FD4F8181821795
:100DC00008F054C08091990190E0FC01EE0FFF1FE4
:100DD0008E0F9F1FFC01E859FD4F808185FF10C0D9
:100DE0008091990190E0FC01EE0FFF1F8E0F9F1F75
:100DF000FC01E859FD4F808160E08F710E9431084D
:100E0000809199018F5F80939901109298011092BF
:100E1000B20080919901882319F18091990189305C
:100E2000F8F48091990190E0FC01EE0FFF1F8E0F06
:100E30009F1FFC01E859FD4F808185FF17C08091FD
:100E4000990190E0FC01EE0FFF1F8E0F9F1FFC0128
:100E5000E859FD4F808161E08F710E94310806C022
:100E600080919901893010F010929901FF91EF91D2
:100E7000BF91AF919F918F917F916F915F914F91B2
:100E80003F912F910F900FBE0F901F901895CF9309
:100E9000DF93FC01EB018EE091E09183808315826A
:100EA00073836283448360E08C2F0E947E08C1318B
:100EB000D105A1F044F4CF30D10569F06097B9F4C1
:100EC00061E087E010C0C231D10559F0639779F431
:100ED00061E08CE008C061E084E005C061E088E08A
:100EE00002C061E08BE0DF91CF910C947E08DF912E
:100EF000CF910895CF93DF93EC01198261E0888947
:100F00000E94310861E08F85DF91CF910C94310808
:100F100085EA91E00E9426028091A8019091A901A2
:100F2000892BD9F02091AC013091AD018091A801BD
:100F30009091A9012817390780F01092A901109209
:100F4000A80185EA91E00E947A071092BA011092F6
:100F5000B90186EB91E00C947A07089586EB91E055
:100F60000E9426028091B9019091BA01892BD9F093
:100F70002091BD013091BE018091B9019091BA01DB
:100F80002817390780F01092BA011092B90186EB48
:100F900091E00E947A071092A9011092A80185EAB7
:100FA00091E00C947A070895009769F0FC01019094
:100FB0000020E9F73197AF01481B590BBC0183E8CA
:100FC00092E00C94A10080E090E00895682F83E8FF
:100FD00092E00C943801E09128032FEF2E0F283077
:100FE000F8F4843F21E092073CF0813629E0920733
:100FF0002CF080E699E002C084EF91E00897F0E0E1
:101000009C01220F232F221F330BAF01440F551FCA
:10101000E40FF51FE859FD4F2183880F80958283E7
:1010200008956DE283E892E00C9438010F931F93CA
:10103000CF93DF938C01C0E0D0E0F801EC0FFD1FEF
:101040006491662341F083E892E00E943801892B85
:1010500011F02196F2CFCE01DF91CF911F910F9128
:10106000089590E0FC01EB52FF4F2491FC01EF53F7
:10107000FF4F3491FC01E355FF4FE491EE2309F457
:101080003CC0222339F1233091F038F42130A9F00B
:10109000223001F584B58F7D12C0273091F02830C1
:1010A000A1F02430B9F4809180008F7D03C080913D
:1010B00080008F77809380000DC084B58F7784BDCA
:1010C00009C08091B0008F7703C08091B0008F7D00
:1010D0008093B000F0E0EE0FFF1FED55FF4FA5919C
:1010E000B4919FB7F894611104C08C913095382366
:1010F00002C0EC913E2B3C939FBF0895CF93DF93AA
:1011000090E0FC01EF53FF4F2491FC01E355FF4FAA
:101110008491882361F190E0880F991FFC01E756C4
:10112000FF4FC591D491FC01ED55FF4FA591B491AE
:10113000611109C09FB7F894888120958223888324
:10114000EC912E230BC0623061F49FB7F894888134
:10115000322F309583238883EC912E2B2C939FBFC5
:1011600006C08FB7F894E8812E2B28838FBFDF91BC
:10117000CF9108958E3008F08E50877080648093F0
:101180007C0080917A00806480937A0080917A005C
:1011900086FDFCCF809178002091790090E0922B21
:1011A00008953FB7F89480912A0390912B03A09162
:1011B0002C03B0912D0326B5A89B05C02F3F19F035
:1011C0000196A11DB11D3FBFBA2FA92F982F8827C7
:1011D000820F911DA11DB11DBC01CD0142E0660F22
:1011E000771F881F991F4A95D1F708958F929F9274
:1011F000AF92BF92CF92DF92EF92FF926B017C0190
:101200000E94D1084B015C01C114D104E104F10436
:10121000F1F00E94D108DC01CB0188199909AA09D3
:10122000BB09883E9340A105B10570F321E0C21AC5
:10123000D108E108F10888EE880E83E0981EA11C11
:10124000B11CC114D104E104F10419F7DDCFFF9002
:10125000EF90DF90CF90BF90AF909F908F900895C8
:101260001F920F920FB60F9211242F933F938F93DB
:101270009F93AF93BF938091200390912103A091FE
:101280002203B09123033091290323E0230F2D374C
:1012900020F40196A11DB11D05C026E8230F02967A
:1012A000A11DB11D20932903809320039093210356
:1012B000A0932203B093230380912A0390912B03E0
:1012C000A0912C03B0912D030196A11DB11D809317
:1012D0002A0390932B03A0932C03B0932D03BF916B
:1012E000AF919F918F913F912F910F900FBE0F90D3
:1012F0001F9018950F931F93CF93DF93EC01888174
:101300009981009729F02A813B812617370788F4B5
:101310008B016F5F7F4F0E94B017009761F0998338
:1013200088831B830A832C813D81232B11F4FC01CC
:10133000108281E001C080E0DF91CF911F910F9179
:101340000895EF92FF920F931F93CF93DF93611550
:10135000710511F480E01CC041155105C1F07B01FD
:10136000EC018C819D818A01080F191FB801CE0103
:101370000E947A09882371F3288139818C819D81AB
:10138000B701820F931F0E948D181D830C8381E08B
:10139000DF91CF911F910F91FF90EF900895CF9320
:1013A000DF93EC0188819981009711F00E94271743
:1013B000198218821D821C821B821A82DF91CF91B2
:1013C0000895CF93DF93EC016115710561F0FB0186
:1013D00001900020E9F73197AF01461B570B0E949F
:1013E000A109811103C0CE010E94CF09CE01DF9176
:1013F000CF910895EF92FF920F931F93CF93DF93B6
:10140000EC01198218821B821A821D821C826115CE
:10141000710521F18B01FB0101900020E9F7319763
:101420007F01E61AF70AB7010E947A09811109C003
:10143000CE01DF91CF911F910F91FF90EF900C940F
:10144000CF09FD82EC82B80188819981DF91CF912B
:101450001F910F91FF90EF900C948D18DF91CF9119
:101460001F910F91FF90EF9008950F931F93CF93CB
:10147000DF93CDB7DEB76E970FB6F894DEBF0FBE21
:10148000CDBF06EB11E0F80161857285CE0149966A
:101490000E94D413F80163857485CE0143960E949F
:1014A000D413F80163817481CE010D960E94D41388
:1014B000F80167817085CE0107960E94D4136CE411
:1014C00071E0CE0101960E94FA09BE01695F7F4F6B
:1014D000CE0101960E94C11367E571E00E94E10907
:1014E000BE01635F7F4F0E94C1136FE571E00E94F0
:1014F000E109BE016D5E7F4F0E94C11366E671E097
:101500000E94E109BE01675E7F4F0E94C11361E73F
:1015100071E00E94E109FC01448155816081718183
:1015200083E892E00E94A100CE0101960E94BC13C4
:10153000CE0107960E94BC13CE010D960E94BC13EB
:10154000CE0143960E94BC13CE0149960E94BC1363
:1015500005EA11E0F80161857285CE0149960E9485
:10156000D413F80163857485CE0143960E94D41389
:10157000F80163817481CE010D960E94D413F801A5
:1015800067817085CE0107960E94D41363E771E0EE
:10159000CE0101960E94FA09BE01695F7F4FCE011C
:1015A00001960E94C11367E571E00E94E109BE0146
:1015B000635F7F4F0E94C1136FE571E00E94E109F4
:1015C000BE016D5E7F4F0E94C11366E671E00E940E
:1015D000E109BE01675E7F4F0E94C11361E771E0C0
:1015E0000E94E109FC01448155816081718183E899
:1015F00092E00E94A100CE0101960E94BC13CE0190
:1016000007960E94BC13CE010D960E94BC13CE011A
:1016100043960E94BC13CE0149960E94BC136E965D
:101620000FB6F894DEBF0FBECDBFDF91CF911F91F3
:101630000F9108954F925F926F927F92AF92BF92F7
:10164000CF92DF92EF92FF920F931F93CF93DF938E
:1016500083E290E00E94E6078091BD019091BE0177
:10166000692F83E892E00E9438016091BD0170917A
:10167000BE0183E892E00E9438018091AC01909114
:10168000AD01692F83E892E00E9438016091AC01BE
:101690007091AD0183E892E00E9438018091C10110
:1016A0009091C201692F83E892E00E943801609115
:1016B000C1017091C20183E892E00E9438018091DB
:1016C000B0019091B101692F83E892E00E94380146
:1016D0006091B0017091B10183E892E00E943801FD
:1016E000CAE9D1E064EAC62E61E0D62E8E01D801A7
:1016F0008D919D918D01DC01ED91FC910084F1852E
:10170000E02D09957C0144E050E0BC0183E892E0C3
:101710000E94A100E114F10419F0C7010E942717EB
:10172000C016D10621F78EE00E94BA0895958795DC
:1017300095958795682F83E892E00E9438010AE921
:1017400011E0F80180819181DC01ED91FC91019023
:10175000F081E02D099586508230B0F0F80180814B
:101760009181DC01ED91FC910280F381E02D0995DE
:10177000F80180819181DC01ED91FC910480F5817B
:10178000E02D40E060E009950E5F1F4FC016D106C6
:10179000C1F64AE9E42E41E0F42E10E0F701808121
:1017A0009181DC01ED91FC910190F081E02D099592
:1017B000873079F48091A40181130AC0F7018081F8
:1017C0009181DC01ED91FC910280F381E02D09957E
:1017D0001F5FB2E0EB0EF11CCE14DF04F9F60E949D
:1017E000D108111109C08091A4018F5F181709F465
:1017F00059C08093A40158C03AE9A32E31E0B32E1A
:10180000E12CF12C00E0F501819191915F01DC0167
:10181000ED91FC910190F081E02D09958730C9F59B
:101820008091A401081710F40F5F33C00E94D10803
:101830002B013C010E94D108C701880F991FFC01B0
:10184000E656FE4F5F01D5018D919C91DC01ED9133
:10185000FC910680F781E02D09958111C4CFF50137
:1018600080819181DC01ED91FC910480F581E02D76
:10187000412F6E2D09950E94D108DC01CB018419FE
:101880009509A609B70981319742A105B105D8F29A
:10189000AACFFFEFEF1AFF0A25E0E216F10409F0E4
:1018A000B2CFA1CF1092A40188819981DC01ED9182
:1018B000FC910190F081E02D09958630A1F488819A
:1018C0009981DC01ED91FC910680F781E02D09956D
:1018D000882349F088819981DC01ED91FC91028097
:1018E000F381E02D09952296CC16DD06E9F6DF910D
:1018F000CF911F910F91FF90EF90DF90CF90BF900D
:10190000AF907F906F905F904F900895CF93DF934B
:10191000FC018EE291E0918380831186128613860A
:101920001486158616861786108A118A128A138ADB
:10193000148A158A168A178A108E118E128E138EAB
:10194000148E168E158E10A2178E11A212A213A23B
:1019500014A215A216A217A210A611A612A613A6CB
:1019600015A614A6738362836830710548F0CB0115
:101970000897069750F4A4E2B0E0C4E2D0E009C0B2
:10198000AAE2B0E0CAE2D0E004C0A7E2B0E0C7E259
:10199000D0E028816E30710514F06E5002C067707F
:1019A000772781E090E001C0880F6A95EAF780957B
:1019B00082238C938FE690E09583848388E793E07D
:1019C00097838683DF91CF910895CF93DF93FC01B6
:1019D0008EE191E09183808381E08283118610867D
:1019E000148682E19F01235F3F4FD901C82F1D92CA
:1019F000CA95E9F7EF016F96DE011D928A95E9F726
:101A000073876287F90111921192EC17FD07D9F7DC
:101A1000DF91CF910895CF93DF93EC0148836A83E0
:101A2000698361110AC061E088890E94310861E020
:101A30008F85DF91CF910C94310841110BC06981E2
:101A400084E0689FB001112488890E941E1460E020
:101A500070E00AC060E070E088890E941E1469810D
:101A600084E0689FB00111248F85DF91CF910C94A1
:101A70001E14CF93DF93CDB7DEB7A1970FB6F894BE
:101A8000DEBF0FBECDBF789484B5826084BD84B5BF
:101A9000816084BD85B5826085BD85B5816085BD69
:101AA00080916E00816080936E0010928100809121
:101AB00081008260809381008091810081608093A9
:101AC0008100809180008160809380008091B100CE
:101AD00084608093B1008091B00081608093B000F9
:101AE00080917A00846080937A0080917A0082608D
:101AF00080937A0080917A00816080937A0080914F
:101B00007A00806880937A001092C100EFEDEE2E8B
:101B1000E1E0FE2E00E010E0C8010E943515D7017B
:101B20008D937D010F5F1F4F02331105A9F7AFEDB4
:101B3000B1E0FD01EF5DF1408D918D32D1F7E052C2
:101B4000FE4F80E592E0DF01AF5DB14021912D3283
:101B500021F0DC012D93CD01F6CFA052BE4F8BE3D7
:101B600092E0FD01EF5DF1402D912D3221F0FC015D
:101B70002193CF01F6CFE052FE4FA6E2B2E0CF01B3
:101B80008F5D914021912D3211F02D93F8CFFC0102
:101B9000E052FE4FA1E1B2E0819190ED980F9A30B2
:101BA00010F48D93F9CF6FE771E080E592E00E9429
:101BB0008418892B69F461E871E08BE392E00E945C
:101BC0008418892B29F4109266021092650224C0B1
:101BD00063E871E080E592E00E948418892BB1F4FB
:101BE00061E871E08BE392E00E948418892B19F47C
:101BF00081E090E00DC065E871E08BE392E00E9427
:101C00008418892B19F482E090E002C08FE097E2FB
:101C10009093660280936502E0919302F0919402A2
:101C200082E08083E0918F02F09190021082E09137
:101C30009102F091920280E1808310929B02E091E8
:101C40009702F091980286E08083E0919502F091EE
:101C50009602808180618083E0919502F0919602E6
:101C6000808188608083E0919502F0919602808166
:101C700080688083E0919502F091960280818F7D4B
:101C80008083809181008860809381008091C7016A
:101C9000811122C0E8E6F2E080E892E03BE027E52F
:101CA0003483258333968E179F07D1F78EE3809375
:101CB000690210929901109298011092700010928E
:101CC000B00082E08093B1001092B20081E087BB47
:101CD000809370008093C70180912803882399F036
:101CE00061E08DE00E947E08E0912803F0E0CF01E2
:101CF000880F991FE80FF91FE859FD4F8081807EFA
:101D00008D608062808384EF91E00E94EB071092E7
:101D100067021092B6011092B70110E21093B80159
:101D20001092BA011092B9011092BC011092BB013D
:101D30001092C4011092C3011092BE011092BD0115
:101D40008AE08093C50189E08093C60161E08AE062
:101D50000E947E0861E08091C6010E947E08109278
:101D6000A5011092A6011093A7011092A90110924B
:101D7000A8011092AB011092AA011092B301109227
:101D8000B2011092AD011092AC0186E08093B401D3
:101D900085E08093B50161E086E00E947E0861E005
:101DA0008091B5010E947E088EEA97E0909303012E
:101DB0008093020180916900837F84608093690031
:101DC000E99A88E897E0909301018093000180915F
:101DD00069008C7F816080936900E89A84EF91E0CC
:101DE0000E9435158093C80181117AC087E891E07F
:101DF0000E94D40764E670E080E090E00E94F6085C
:101E000083E892E00E94DE00182F83E892E00E94AF
:101E1000DE0083E892E00E94DE0083E892E00E9408
:101E2000DE0068EE73E080E090E00E94F608133474
:101E300009F056C08BE891E00E94D40781E991E057
:101E40000E94D40764E670E080E090E00E94F6080B
:101E500083E892E00E94DE0083E892E00E94DE00C8
:101E6000182F83E892E00E94DE0083E892E00E944F
:101E7000DE0064E670E080E090E00E94F60861E039
:101E8000113409F58AE00E94310864E670E080E0D0
:101E900090E00E94F60860E08AE00E94310884EF3A
:101EA00091E00E943515813329F061E384EF91E0E0
:101EB0000E943D1584E991E00E94D40781E991E0F8
:101EC0000E94D4070DC089E00E94310860ED77E0E0
:101ED00080E090E00E94F60860E089E00E9431080E
:101EE00086E090E00E948F168C0141E06FE070E088
:101EF0000E94470710939B0100939A0186E090E0AF
:101F00000E948F168C0141E060E170E00E9447075B
:101F100010939D0100939C0186E090E00E948F1633
:101F20008C0141E061E170E00E94470710939F013E
:101F300000939E0186E090E00E948F168C0141E0A4
:101F400062E170E00E9447071093A1010093A00195
:101F500086E090E00E948F168C0141E063E170E022
:101F60000E9447071093A3010093A20142E0E42ED0
:101F70005AE0852E912CA12CB12C64EA262E61E02A
:101F8000362E2FB7F8948091200390912103A091D1
:101F90002203B09123032FBF4091240350912503C6
:101FA0006091260370912703841B950BA60BB70B3A
:101FB000813D9740A105B10540F086EB91E00E947C
:101FC0007A0785EA91E00E947A0783E892E00E940E
:101FD0000001892B09F40DC183E892E00E94DE0024
:101FE0002FB7F89440912003509121036091220370
:101FF000709123032FBF40932403509325036093D4
:102000002603709327032091670221110BC19C01C5
:1020100033272436310509F4FEC0B4F421363105E6
:1020200009F4EDC044F42032310539F12132310593
:1020300009F4E2C0DEC02236310509F4E6C02336D9
:10204000310509F4E8C0D5C02736310509F4E3C0ED
:102050004CF42536310509F4DEC02636310509F485
:10206000DAC0C7C02936310509F4D5C00CF4D3C095
:102070002A36310509F4CFC0BCC082E990E00E9445
:1020800016080091650210916602003127E21207DE
:10209000D4F480E390E00E94E607083E83E018074E
:1020A00094F480E390E00E94E607043611055CF4A6
:1020B00080E390E00E94E6070A30110524F480E3F3
:1020C00090E00E94E6072801110F6608770877FE66
:1020D0001DC00E94110822273327A90124193509A0
:1020E0004609570919A2DE0191966D01CA01B9018D
:1020F000A50194010E945316605DF60162936F0181
:10210000211531054105510589F715C0A30192013B
:1021100019A2CE0181966C01CA01B901A5019401F1
:102120000E945316605DD6016E936D012115310535
:102130004105510589F7C6010E94D4078DE290E060
:102140000E94E6078CE890E00E9416088DE290E07D
:102150000E94E60780E592E00E94D4070E941108E1
:10216000EBE3F2E001900020E9F731978F010B5388
:102170001240053011053CF480E390E00E94E60730
:102180000F5F1F4FF6CF8BE392E00E94D4070E94AF
:102190001108E6E2F2E001900020E9F731978F01A3
:1021A00006521240053011053CF480E390E00E9495
:1021B000E6070F5F1F4FF6CF86E292E00E94D4073A
:1021C0000E941108E1E1F2E001900020E9F7319767
:1021D0008F0101511240043111053CF480E390E07D
:1021E0000E94E6070F5F1F4FF6CF81E192E00E9449
:1021F000D4070AE911E032C28FED91E0F8CF809365
:10220000DE01B3E0B0936702F4CF8093DE01E3E038
:10221000E0936702EECFE09267021092DD018093B7
:10222000DE01E7CF223041F59091DD01E92FF0E0AA
:10223000E753FE4F808381E0890F8093DD01E091B9
:10224000DE014E2F50E0FA01E356F109E830F105C6
:1022500080F6EC5CFF4F0C947516823050F2F3E080
:10226000F0936702C6CF8430D0F7C3CF8530B8F77C
:10227000C0CF8111F4CFBDCF233009F0BACF843263
:1022800009F0E9C1E091DE018E2F90E0FC01E156FA
:10229000F109EA30F10508F0DEC1E45CFF4F0C946F
:1022A00075166091C9011091CA01603418F060542C
:1022B0004FEF01C040E0103418F010540FEF01C090
:1022C00000E086EB91E00E940B0D402F612F85EA24
:1022D00091E00E940B0DBDC19091C90160ED690FA5
:1022E0008091CA0110ED180F603420F060E9690F89
:1022F0004FEF01C040E0103420F010E9180F0FEF4D
:1023000001C000E086EB91E00E940B0D402F612F91
:1023100085EA91E00E940B0D2EC08091C90190E0EA
:10232000982F88272091CA01820F911D1092BE011B
:102330001092BD019093BA018093B9011092AD0142
:102340001092AC019093A9018093A80182C1809161
:10235000C901805390E01092BE011092BD0190938C
:10236000BA018093B9011092AD011092AC01909323
:10237000A9018093A8010E94350A6DC16091C9012D
:10238000F090CA010091CB018091CC01603418F02B
:1023900060544FEF01C040E02FE32F1528F490EC7C
:1023A000F90EDD24DA9401C0D12C10E0102F0027A3
:1023B000080F111D86EB91E00E940B0D4D2D6F2D26
:1023C00085EA91E00E940B0D1092BE011092BD01B2
:1023D0001093BA010093B9011092AD011092AC01B3
:1023E0001093A9010093A80134C11091C90110FFF5
:1023F00002C061E001C060E084E00E94310811FF8A
:1024000002C061E001C060E087E00E94310812FF75
:1024100002C061E001C060E088E00E94310813FF63
:1024200002C061E001C060E08BE00E94310814FF4F
:1024300002C061E001C060E08CE00E94310809C187
:102440001092A4018AE9682E81E0782E99EC492E39
:1024500091E0592E00E010E0D3018D919D913D0156
:102460000E942717F201F1902F01F6E0FF1609F400
:102470004CC0FF1628F027E0F21609F48AC0D8C035
:102480000230110509F124F40130110591F006C064
:102490000330110521F10430110561F186E090E06F
:1024A0000E948F166C014F2D6FE070E00E9447076D
:1024B00087C086E090E00E948F166C014F2D60E18E
:1024C00070E00E94470742C086E090E00E948F16AD
:1024D0006C014F2D61E170E00E94470789C086E0E2
:1024E00090E00E948F166C014F2D62E170E00E9417
:1024F00047078CC086E090E00E948F166C014F2D3C
:1025000063E170E00E9447078FC00230110519F1A6
:1025100024F40130110589F006C00330110529F1BA
:102520000430110561F181E390E00E948F166C0187
:1025300064E070E00E94E50C43C081E390E00E94FB
:102540008F166C0167E070E00E94E50CD0929D014F
:10255000C0929C016DC081E390E00E948F166C01D7
:1025600068E070E00E94E50C43C081E390E00E94C7
:102570008F166C016BE070E00E94E50C47C081E3B0
:1025800090E00E948F166C016CE070E00E94E50CF8
:102590004BC00230110519F124F401301105A9F0E6
:1025A00006C00330110549F104301105A1F18EE296
:1025B00090E00E948F166C0164E070E00E94860C2F
:1025C000D0929B01C0929A0133C08EE290E00E94AB
:1025D0008F166C0167E070E00E94860CB7CF8EE228
:1025E00090E00E948F166C0168E070E00E94860CFB
:1025F000D0929F01C0929E011BC08EE290E00E948B
:102600008F166C016BE070E00E94860CD092A101E5
:10261000C092A0010DC08EE290E00E948F166C0166
:102620006CE070E00E94860CD092A301C092A201DF
:102630000F5F1F4F0530110509F00ECF0AC08091C2
:10264000C901A5E08A9FC00111248C509E4F0E94B1
:10265000EB070E941A0B10926702CBCDF801808124
:102660009181DC01ED91FC910190F081E02D0995C3
:102670008630C1F4F80180819181DC01ED91FC91FB
:102680000680F781E02D099581110CC0F801808149
:102690009181DC01ED91FC910480F581E02D40E019
:1026A00060E009950E5F1F4F20163106B9F60E94B3
:1026B000A70167CC109286021092850288EE93E003
:1026C000A0E0B0E08093870290938802A0938902F3
:1026D000B0938A028EE391E0909384028093830208
:1026E00085EC90E09093900280938F0284EC90E0D0
:1026F000909392028093910280EC90E090939402E8
:102700008093930281EC90E09093960280939502DF
:1027100082EC90E0909398028093970286EC90E090
:1027200090939A028093990210929C0210929D02BB
:1027300010929E0210929F0280912E03883030F4F6
:102740008F5F80932E038093280302C0109228038A
:102750002FB7F8948091200390912103A091220338
:10276000B09123032FBF8093240390932503A0935C
:102770002603B09327030895FC01808191810C9476
:102780002717CF93DF93EC01FB01448155816081D2
:1027900071810E94A109811103C0CE010E94CF095D
:1027A000CE01DF91CF910895CF92DF92EF92FF9209
:1027B0000F931F93CF93DF93CDB7DEB761970FB61B
:1027C000F894DEBF0FBECDBF8C01CB01F8011182A2
:1027D000108213821282158214824AE09E012F5FBA
:1027E0003F4F6901B9010E947D14F601019000205C
:1027F000E9F731977F01EC18FD08B701C8010E9485
:102800007A09811104C0C8010E94CF0908C0F801EB
:10281000F582E482B601808191810E948D186196D3
:102820000FB6F894DEBF0FBECDBFDF91CF911F91E1
:102830000F91FF90EF90DF90CF9008951F93CF936B
:10284000DF93182FEB0161E00E947E08209711F4BE
:1028500060E004C0CF3FD10539F461E0812FDF9102
:10286000CF911F910C943108E12FF0E0EB52FF4F14
:10287000E491E330F9F048F4E130B9F0E230A1F549
:1028800084B5806284BDC8BD34C0E730E9F0E8306B
:1028900019F1E43049F580918000806280938000D6
:1028A000D0938B00C0938A0024C084B5806884BD17
:1028B000C7BD1FC080918000806880938000D09346
:1028C0008900C093880015C08091B0008068809313
:1028D000B000C093B3000DC08091B00080628093BF
:1028E000B000C093B40005C0C038D1050CF0B5CF1E
:1028F000AFCFDF91CF911F910895BB27FB015527E3
:10290000AA27880F991FAA1FA41710F0A41B83954C
:102910005051B9F7A05DAA3308F0A95DA1930097C3
:1029200079F7B111B1931192CB010C949714DC019A
:10293000FC01672F71917723E1F7329704C07C91F6
:102940006D9370836291AE17BF07C8F30895E89442
:1029500009C097FB3EF490958095709561957F4FE7
:102960008F4F9F4F9923A9F0F92F96E9BB27939595
:10297000F695879577956795B795F111F8CFFAF4A5
:10298000BB0F11F460FF1BC06F5F7F4F8F4F9F4FD6
:1029900016C0882311F096E911C0772321F09EE834
:1029A000872F762F05C0662371F096E8862F70E09A
:1029B00060E02AF09A95660F771F881FDAF7880F74
:1029C0009695879597F9089597F99F6780E870E045
:1029D00060E008959FEF80EC089500240A94161695
:1029E000170618060906089500240A9412161306FD
:1029F000140605060895092E0394000C11F488238B
:102A000052F0BB0F40F4BF2B11F460FF04C06F5FA6
:102A10007F4F8F4F9F4F089557FD9058440F551F7C
:102A200059F05F3F71F04795880F97FB991F61F050
:102A30009F3F79F087950895121613061406551FC7
:102A4000F2CF4695F1DF08C0161617061806991F33
:102A5000F1CF86957105610508940895E894BB2728
:102A600066277727CB0197F90895F999FECF92BD94
:102A700081BDF89A992780B50895262FF999FECF40
:102A80001FBA92BD81BD20BD0FB6F894FA9AF99A8B
:102A90000FBE019608950E948D15A59F900DB49FBD
:102AA000900DA49F800D911D112408952F923F92A7
:102AB0004F925F926F927F928F929F92AF92BF924E
:102AC000CF92DF92EF92FF920F931F93CF93DF93FA
:102AD000CDB7DEB7CA1BDB0B0FB6F894DEBF0FBE57
:102AE000CDBF09942A88398848885F846E847D84A4
:102AF0008C849B84AA84B984C884DF80EE80FD80A6
:102B00000C811B81AA81B981CE0FD11D0FB6F8941B
:102B1000DEBF0FBECDBFED010895A29FB001B39FF0
:102B2000C001A39F700D811D1124911DB29F700DD6
:102B3000811D1124911D08955058BB27AA270E947A
:102B4000B4150C94FB140E94ED1438F00E94F41498
:102B500020F039F49F3F19F426F40C94EA140EF493
:102B6000E095E7FB0C94E414E92F0E940C1558F350
:102B7000BA17620773078407950720F079F4A6F562
:102B80000C942E150EF4E0950B2EBA2FA02D0B01F0
:102B9000B90190010C01CA01A0011124FF27591BA2
:102BA00099F0593F50F4503E68F11A16F040A22FA8
:102BB000232F342F4427585FF3CF46953795279519
:102BC000A795F0405395C9F77EF41F16BA0B620B18
:102BD000730B840BBAF09150A1F0FF0FBB1F661F5F
:102BE000771F881FC2F70EC0BA0F621F731F841FA2
:102BF00048F4879577956795B795F7959E3F08F0C8
:102C0000B0CF9395880F08F09927EE0F9795879589
:102C100008950E9410166894B1110C942F15089510
:102C20000E94141588F09F5798F0B92F9927B75133
:102C3000B0F0E1F0660F771F881F991F1AF0BA9560
:102C4000C9F714C0B13091F00E942E15B1E008957B
:102C50000C942E15672F782F8827B85F39F0B93F6D
:102C6000CCF3869577956795B395D9F73EF4909513
:102C70008095709561957F4F8F4F9F4F089597FB7B
:102C8000072E16F4009407D077FD09D00E947B161A
:102C900007FC05D03EF4909581959F4F089570955F
:102CA00061957F4F0895A1E21A2EAA1BBB1BFD015F
:102CB0000DC0AA1FBB1FEE1FFF1FA217B307E4071B
:102CC000F50720F0A21BB30BE40BF50B661F771F73
:102CD000881F991F1A9469F7609570958095909553
:102CE0009B01AC01BD01CF010895EE0FFF1F0590C0
:102CF000F491E02D0994AA1BBB1B51E107C0AA1F48
:102D0000BB1FA617B70710F0A61BB70B881F991F8C
:102D10005A95A9F780959095BC01CD0108950F9320
:102D20001F93CF93DF938230910510F482E090E0FF
:102D3000E0913103F091320320E030E0A0E0B0E018
:102D4000309719F140815181028113814817590749
:102D5000C8F08417950769F4109731F012960C9318
:102D6000129713961C9327C00093310310933203DC
:102D700022C02115310519F04217530718F49A01A2
:102D8000BD01EF01DF01F801DBCF21153105F9F0BD
:102D9000281B390B2430310580F48A819B81611511
:102DA000710521F0FB019383828304C09093320369
:102DB00080933103FE01329644C0FE01E20FF31FFF
:102DC0008193919322503109398328833AC020910D
:102DD0002F0330913003232B41F4209106013091D1
:102DE00007013093300320932F0320910401309189
:102DF00005012115310541F42DB73EB74091080179
:102E000050910901241B350BE0912F03F091300301
:102E1000E217F307A0F42E1B3F0B2817390778F0B1
:102E2000AC014E5F5F4F2417350748F04E0F5F1F10
:102E30005093300340932F038193919302C0E0E0BD
:102E4000F0E0CF01DF91CF911F910F910895CF93C3
:102E5000DF93009709F481C0FC013297138212823C
:102E6000A0913103B0913203109781F42081318118
:102E7000820F931F20912F033091300328173907B9
:102E800051F5F0933003E0932F0367C0ED0120E08C
:102E900030E0CE17DF0740F44A815B819E01411587
:102EA0005105F1F0EA01F5CFD383C283408151810E
:102EB000840F951FC817D90759F488819981840F09
:102EC000951F0296918380838A819B81938382835D
:102ED0002115310529F4F0933203E09331033DC00D
:102EE000E901FB83EA8349915991C40FD51FEC177F
:102EF000FD0761F480819181840F951F0296E9019D
:102F000099838883828193819B838A83E0E0F0E0C8
:102F100012968D919C911397009719F0FD01DC0199
:102F2000F7CF8D919C9111979D012E5F3F4F820F9E
:102F3000931F20912F03309130032817390769F42C
:102F4000309729F4109232031092310302C0138299
:102F50001282B0933003A0932F03DF91CF91089595
:102F6000A0E0B0E0E6EBF7E10C945A15EC01009715
:102F700021F4CB010E948F16B4C0FC01E60FF71FAD
:102F80009C0122503109E217F30708F4A8C0D901C7
:102F90000D911C91119706171707B0F00530110518
:102FA00008F49BC0C80104978617970708F495C0DA
:102FB00002501109061B170B019311936D937C931B
:102FC000CF010E94271789C05B01A01AB10A4C01EA
:102FD000800E911EA0913103B0913203612C712CAF
:102FE000E12CF12C109709F446C08D919C9111971A
:102FF000A815B905B1F56C0142E0C40ED11CCA1484
:10300000DB0478F14C018A189B08640142E0C40E8D
:10301000D11C1296BC9012971396AC91B5E0CB16CA
:10302000D10440F0B282A38391828082D9016D9352
:103030007C9309C00E5F1F4F800F911FF901918390
:103040008083EB2DFA2FE114F10431F0D7011396B0
:10305000FC93EE93129741C0F0933203E093310357
:103060003CC06816790608F43C017D0112960D906B
:10307000BC91A02DB7CF80912F039091300388167B
:103080009906E1F466167706C8F4809104019091E0
:103090000501009741F48DB79EB74091080150910A
:1030A0000901841B950BE817F907C8F4F093300366
:1030B000E0932F03F901718360830FC0CB010E945D
:1030C0008F167C01009759F0A801BE010E947B1861
:1030D000CE010E942717C70104C0CE0102C080E0C4
:1030E00090E0CDB7DEB7EEE00C94761581E090E08D
:1030F000F8940C949418FB01DC0102C001900D922D
:1031000041505040D8F70895FB01DC018D910190AA
:1031100080190110D9F3990B0895FB01DC0101908E
:0C3120000D920020E1F70895F894FFCF15
:10312C00A000A0000000330380000000000020027B
:10313C001D02B6051B02E605230200000000190261
:10314C00A6053B041602D60515020000000013026A
:10315C00B4015102B101C405150200000000380190
:10316C00A100CF0085010001DE00F2000A4C3A5BA1
:10317C0073746570733D00206C696D69743D00203B
:10318C00706174683D002064697374616E63653DA1
:10319C00005D000A523A5B7374657073523D0052C5
:1031AC000031004C0033002424240053512C3136C0
:0831BC00000D0A002D2D2D006D
:00000001FF
