:100000000C9464000C94720C0C944B0C0C948C00AB
:100010000C948C000C948C000C948C000C948C0030
:100020000C948C000C94F10C0C948C000C948C00AF
:100030000C948C000C948C000C948C000C948C0010
:100040000C94010C0C948C000C94BF0C0C94990C27
:100050000C948C000C948C000C948C000C948C00F0
:100060000C948C000C948C00303030313100524FA5
:1000700042424F2D0000000000240027002A00000B
:10008000000000250028002B0004040404040404DC
:100090000402020202020203030303030301020437
:1000A00008102040800102040810200102040810FA
:1000B0002000000008000201000003040700000007
:1000C0000000000000009A0D11241FBECFEFD8E001
:1000D000DEBFCDBF23E0ACEAB1E001C01D92AF347A
:1000E000B207E1F711E0A0E0B1E0E6EDF0E302C015
:1000F00005900D92AC3AB107D9F710E0C4E6D0E014
:1001000004C02197FE010E945416C336D107C9F7D7
:100110000E94F30D0C9469180C940000E0914A03BE
:100120002FEF2E0F283098F40897AC01440F452F7D
:10013000441F550B2E2F30E0F901EE0FFF1FE20F89
:10014000F31FE357FD4F4183880F80958283089505
:1001500090E0FC01EF54FF4F2491FC01E356FF4F68
:100160003491FC01E757FF4FE491EE23C9F02223BD
:1001700039F0233001F1A8F4213019F1223029F1AE
:10018000F0E0EE0FFF1FE158FF4FA591B4918FB73C
:10019000F894EC91611126C030953E233C938FBFBB
:1001A00008952730A9F02830C9F0243049F780910C
:1001B00080008F7D03C0809180008F7780938000C6
:1001C000DFCF84B58F7784BDDBCF84B58F7DFBCF48
:1001D0008091B0008F778093B000D2CF8091B00033
:1001E0008F7DF9CF3E2BDACFCF93DF9390E0FC01E8
:1001F000E356FF4F249187579F4FFC01849188233A
:10020000D1F090E0880F991FFC01EB58FF4FA591AA
:10021000B491FC01E158FF4FC591D49161110EC01A
:100220009FB7F8948C91E22FE0958E238C932881D0
:10023000E223E8839FBFDF91CF9108958FB7F894B1
:10024000EC91E22BEC938FBFF6CF1F93CF93DF930C
:10025000182FEB0161E00E94F400209739F460E070
:10026000812FDF91CF911F910C94A800E12FF0E036
:10027000EF54FF4FE491E33039F148F4E130B9F045
:10028000E230E9F0C038D10554F361E0E9CFE7305E
:1002900029F1E83059F1E430A9F7809180008062BB
:1002A00080938000D0938B00C0938A0004C084B5F3
:1002B000806884BDC7BDDF91CF911F91089584B53B
:1002C000806284BDC8BDF7CF809180008068809334
:1002D0008000D0938900C0938800EDCF8091B0005A
:1002E00080688093B000C093B300E5CF8091B000E8
:1002F00080628093B000C093B400DDCF8E3008F0F0
:100300008E508770806480937C0080917A00806436
:1003100080937A0080917A0086FDFCCF80917800EE
:100320009091790008953FB7F89480918902909157
:100330008A02A0918B02B0918C0226B5A89B05C0C1
:100340002F3F19F00196A11DB11D3FBFBA2FA92F54
:10035000982F8827BC01CD01620F711D811D911D51
:1003600042E0660F771F881F991F4A95D1F70895BD
:100370008F929F92AF92BF92CF92DF92EF92FF92B5
:100380004B015C010E9493016B017C010E9493016F
:100390006C197D098E099F09683E7340810591059E
:1003A000A8F321E0821A9108A108B10888EEC80ECE
:1003B00083E0D81EE11CF11C81149104A104B10456
:1003C00029F7FF90EF90DF90CF90BF90AF909F9074
:1003D0008F9008952FB7F8946091850270918602EE
:1003E00080918702909188022FBF08950895AF925F
:1003F000BF92CF92DF92EF92FF920F931F93CF9312
:10040000DF936C017B018B01040F151FEB015E0173
:10041000AE18BF08C017D10759F06991D601ED9108
:10042000FC910190F081E02DC6010995892B79F7A7
:10043000C501DF91CF911F910F91FF90EF90DF9059
:10044000CF90BF90AF900895FC01538D448D252F20
:1004500030E0842F90E0821B930B541710F0CF965E
:10046000089501970895FC01918D828D981761F090
:10047000A28DAE0FBF2FB11D5D968C91928D9F5FA7
:100480009F73928F90E008958FEF9FEF0895FC0186
:10049000918D828D981731F0828DE80FF11D858D39
:1004A00090E008958FEF9FEF0895FC01918D228DCC
:1004B000892F90E0805C9F4F821B91098F73992751
:1004C0000895CF92DF92EF92FF920F931F93CF93F5
:1004D000DF938C010E94EA016B017C01E80110E0CE
:1004E00000E003301105C9F00E94EA016C197D0992
:1004F0008E099F09683E73408105910570F488EA72
:1005000092E00E945502892B61F388EA92E00E94F2
:1005100033020F5F1F4F8993E4CF81E00330110551
:1005200009F080E0DF91CF911F910F91FF90EF9044
:10053000DF90CF90089588EA92E00E94550221E072
:10054000892B09F420E0822F089580E090E0892B28
:1005500029F00E949B0281110C9400000895FC0177
:10056000A48DA80FB92FB11DA35ABF4F2C91848D14
:1005700090E001968F739927848FA689B7892C9371
:10058000A089B1898C91837080648C93938D848DC4
:10059000981306C00288F389E02D80818F7D8083C7
:1005A0000895EF92FF920F931F93CF93DF93EC0187
:1005B00081E0888F9B8D8C8D98131AC0E889F9890A
:1005C000808185FF15C09FB7F894EE89FF8960830D
:1005D000E889F98980818370806480839FBF81E08E
:1005E00090E0DF91CF911F910F91FF90EF900895D0
:1005F000F62E0B8D10E00F5F1F4F0F731127E02EAB
:100600008C8D8E110CC00FB607FCFACFE889F989E2
:10061000808185FFF5CFCE010E94AF02F1CFEB8D37
:10062000EC0FFD2FF11DE35AFF4FF0829FB7F894B6
:100630000B8FEA89FB8980818062CFCF682F88EA9F
:1006400092E00C94D1026DE288EA92E00C94D1021F
:100650000F931F93CF93DF938C01D0E0C0E0F8019C
:10066000EC0FFD1F6491662341F088EA92E00E943E
:10067000D102892B11F02196F2CFCE01DF91CF91DB
:100680001F910F910895CF93DF93EC01888D8823FC
:10069000B9F0AA89BB89E889F9898C9185FD03C0E5
:1006A000808186FD0DC00FB607FCF7CF8C9185FFCA
:1006B000F2CF808185FFEDCFCE010E94AF02E9CF5E
:1006C000DF91CF910895CF93DF93EC0161E08889AA
:1006D0000E94A80061E08F85DF91CF910C94A80063
:1006E000FC0180850895CF92DF92EF92FF92CF9325
:1006F000DF93EC018BA5823009F4BDC068F4882338
:1007000009F45BC0813009F481C0DF91CF91FF9083
:10071000EF90DF90CF900895833009F4D9C08430F2
:10072000A1F7C98CDA8CEB8CFC8C0E9493016C15C0
:100730007D058E059F0548F32C813D81898D9A8D1D
:10074000AB8DBC8D820F931FA11DB11D898F9A8F18
:10075000AB8FBC8F2A813B81E9E2F0E02830310584
:1007600040F0C9010897E3E2F0E0069710F0E6E2F6
:10077000F0E060812E3031050CF4E0C02E5081E0B5
:1007800001C0880F2A95EAF79BA1FE01E90FF11D30
:1007900050A54CA121E030E0042E01C0220F0A94A4
:1007A000EAF7862309F0CDC02095252320A74F5FC7
:1007B000483008F0C8C04CA3A8CF2A813B81E9E2A9
:1007C000F0E02830310540F0C9010897E3E2F0E09D
:1007D000069710F0E6E2F0E090812E3031058CF0C3
:1007E0002E5081E001C0880F2A95EAF7892361F035
:1007F00081E08BA70E94930169877A878B879C870A
:1008000084CF27703327EDCF1BA67FCF2A813B8172
:10081000E9E2F0E02830310540F0C9010897E3E251
:10082000F0E0069710F0E6E2F0E090812E3031051E
:10083000FCF02E5081E001C0880F2A95EAF7892349
:1008400019F70E9493016D877E878F87988BC984E3
:10085000DA84EB84FC846C197D098E099F0964306D
:1008600076408105910508F450CF82E08BA74DCFEB
:1008700027703327DFCF2A813B81E9E2F0E028307F
:10088000310540F0C9010897E3E2F0E0069710F067
:10089000E6E2F0E090812E3031057CF02E5081E0D0
:1008A00001C0880F2A95EAF7892351F40E94930129
:1008B0006D877E878F87988B28CF27703327EFCF60
:1008C0000E949301698B7A8B8B8B9C8B83E0CECFBC
:1008D000CD84DE84EF84F88889859A85AB85BC85D4
:1008E000A7019601281B390B4A0B5B0BCA01B90102
:1008F0002EE030E040E050E00E943216CA01B9011B
:100900000E94331420E030E040E05FE30E947C1559
:100910000E94E81578A36F8F8C819D8132E3C30E0E
:10092000D11CE11CF11CC80ED91EE11CF11CC98EA2
:10093000DA8EEB8EFC8E84E08BA7F3CE2770332704
:100940001ECF252B33CF1CA29F5F933010F49BA3A7
:10095000DCCE1BA21BA668A58DA1861B990B49A501
:100960009C0197FF04C022273327281B390B5AA567
:100970002032310544F02EA1241B330B2C5F3F4F56
:100980002930310588F09C012C5F3F4F293031051B
:1009900098F42EA1241B330B37FF03C0319521950A
:1009A00031092032310544F02FA1251B330B2C5F78
:1009B0003F4F29303105B0F00496099780F48EA19D
:1009C000841B990B0496099750F48FA1851B990BF2
:1009D00097FF03C091958195910980971CF46DA3B1
:1009E0004EA35FA381E0888790CE0F931F93CF9390
:1009F000DF93EC01188619861A861B861C861D86D5
:100A00001E861F86188A198A1A8A1B8A1C8A1D8AC2
:100A10001E8A1F8A188E198E1A8E1B8E1C8E1BA280
:100A20001CA218A619A61AA61BA669A16931A8F5C9
:100A30008AA1882391F16F5F69A3663030F18D8DB3
:100A40009E8D2F8D38A1820F931F9E8F8D8F6550A5
:100A5000770B0E941E168B01072E000C880B990B3A
:100A60000E94351420E030E040E05FE317FD12C043
:100A70000E947C150E94E8157D836C8383E0660FDD
:100A8000771F8A95E1F77F836E83DF91CF911F9166
:100A90000F9108950E947B15EDCF81E08AA3F5CFD9
:100AA00087E008950895FC0184850895AF92BF9270
:100AB000CF92DF92EF92FF920F931F93CF93DF932A
:100AC000CDB7DEB762970FB6F894DEBF0FBECDBFCD
:100AD0008C01DC0112968C91882309F47EC00E945F
:100AE0009301F801C480D580E680F7806C197D09F8
:100AF0008E099F09613375478105910508F456C039
:100B0000D8011A962D913C91EAE2F0E028303105A7
:100B100040F0C9010897E4E2F0E0069710F0E7E240
:100B2000F0E090812E3031050CF451C02E5081E060
:100B300001C0880F2A95EAF7892B808361E0F801CC
:100B400082850E94A8008FE190E00197F1F760E0B4
:100B5000D8011A968C910E94A800F801228533854D
:100B6000EAE2F0E02830310540F0C9010897E4E2FC
:100B7000F0E0069710F0E7E2F0E040812E3031051A
:100B80004CF12E5081E090E001C0880F2A95EAF7E1
:100B90008095842380830E949301D80114966D93DD
:100BA0007D938D939C93179712961C9262960FB625
:100BB000F894DEBF0FBECDBFDF91CF911F910F9193
:100BC000FF90EF90DF90CF90BF90AF900895277087
:100BD0003327ADCF27703327D5CF0E949301F8017B
:100BE000C480D580E680F7806C197D098E099F0945
:100BF000613A76488140910528F081E0D8011C9641
:100C00008C93D4CFF801828593852381222309F424
:100C1000A1C0E9E2F0E08830910550F09C01285035
:100C20003109E3E2F0E02630310510F0E6E2F0E0D1
:100C300020818E3091050CF484C08E5091E001C06B
:100C4000990F8A95EAF7892F822309F0AFCF0E9486
:100C50009301D8011496CD90DD90ED90FC901797FC
:100C60006C197D098E099F090E94331426E933E42B
:100C70004BE05DE30E94701420E030E040E05FE371
:100C80000E94701420E030E040E651E40E947B15A1
:100C90000E94E81577FD58C0F80171876087F80158
:100CA0003D96C8014D96DF0112962D913C91139708
:100CB0002D933D938A179B07B9F7D80118968D910C
:100CC0009C9119975E969C938E935D97DE01119689
:100CD000C8014F96AD01219131912D933D938E170F
:100CE0009F07C9F7DE01139630E020E06D917C91FB
:100CF0001197C9015D01F501D290C2907F016C1579
:100D00007D0544F4F501D182C082019757018F3FE0
:100D1000980789F7FC013196EE0FFF1FE40FF51FCE
:100D2000718360832F5F3F4F129628303105F1F6B3
:100D300089859A85D80119969C938E93189781E09E
:100D40005ECF877099277ACFD80119961C921E9290
:100D50001897A5CFE9E2F0E08830910550F09C01AA
:100D600028503109E3E2F0E02630310510F0E6E2E8
:100D7000F0E020818E30910574F08E5091E001C03A
:100D8000990F8A95EAF7892F822309F40FCF81E022
:100D9000F80183830BCF87709927F0CFCF93DF9330
:100DA000EC011B8281E08A831C860E9493016C8384
:100DB0007D838E839F83DF91CF91089586E0089590
:100DC00081E00895CF93DF93EC018A810E947E0138
:100DD00095958795959587958D83DF91CF9108950A
:100DE000FC0115820895FC0184810895FC0165834E
:100DF0000895CF93DF93FC01EB0182E291E09183B0
:100E00008083158273836283448360E08C2F0E9409
:100E1000F400C131D105C9F054F4CF30D10591F0BF
:100E200061E087E0609751F0DF91CF910895C23182
:100E3000D10571F061E08CE06397B1F7DF91CF915C
:100E40000C94F40061E084E0F9CF61E088E0F6CF33
:100E500061E08BE0F3CFCF92DF92EF92FF920F939E
:100E60001F93CF93DF93EC010E94EA0109891A894D
:100E70002B893C896B017C01C01AD10AE20AF30A72
:100E800097018601053011052105310508F44BC095
:100E9000698B7A8B8B8B9C8B99818A81981709F44B
:100EA00042C099819817A8F429819981821B09F081
:100EB00081E0890F89838981811113C0CE01DF917F
:100EC000CF911F910F91FF90EF90DF90CF900C94F6
:100ED000630399812981981B09F091E0822F891B76
:100EE000E9CF88899881911114C0698194E0699F44
:100EF000B00111240E94250170E060E08F85DF9130
:100F0000CF911F910F91FF90EF90DF90CF900C94B5
:100F1000250170E060E00E942501698184E0689FFE
:100F2000B0011124EBCFDF91CF911F910F91FF9072
:100F3000EF90DF90CF900895FC0183819481892BFD
:100F400029F0878190850196908787838385948592
:100F50000196948783878581968101969683858300
:100F6000808181110EC0818592850196928781874B
:100F700087819085838594858581968181859285F9
:100F80000895818592850197F1CFCF93DF93EC018E
:100F9000862F188219821A821C821B821E821D8251
:100FA0001E861D8618861F826F87488B198A1A8AAB
:100FB0001B8A1C8A61E00E94F40061E088890E941B
:100FC000F40061E088890E94A80061E08F85DF91CC
:100FD000CF910C94A800FC0101900020E9F7319713
:100FE000AF01481B590BBC0188EA92E00C94F70151
:100FF000CF93DF93EC0184E090E00E946E16FC0139
:1010000010821182128228852383DF91CF91089567
:10101000CF93DF93EC0184E090E00E946E16FC0118
:1010200010822DA121832EA122832FA12383DF9162
:10103000CF910895CF93DF93EC0184E090E00E947C
:101040006E16FC011082118212822D812383DF91A2
:10105000CF910895CF93DF93EC0188819981009718
:1010600011F00E940A17198218821D821C821B82AD
:101070001A82DF91CF910895FC01808191810097C0
:1010800011F00C940A1708954F925F926F927F921D
:10109000AF92BF92CF92DF92FF920F931F93CF93A5
:1010A000DF9383E290E00E941E038091760290918C
:1010B0007702692F88EA92E00E94D102609176025D
:1010C0007091770288EA92E00E94D10280916102D9
:1010D00090916202692F88EA92E00E94D1026091A9
:1010E00061027091620288EA92E00E94D1028091CE
:1010F0007A0290917B02692F88EA92E00E94D102E5
:1011000060917A0270917B0288EA92E00E94D1029B
:101110008091650290916602692F88EA92E00E94B0
:10112000D102609165027091660288EA92E00E94A5
:10113000D10200EB11E0E80189919991DC01ED9178
:10114000FC910084F185E02D09956C0144E050E0AC
:10115000BC0188EA92E00E94F701C114D10419F0A1
:10116000C6010E940A17B1E0CA3BDB0729F78EE0EF
:101170000E947E019595879595958795682F88EAB9
:1011800092E00E94D102C0EBD1E088819981DC011C
:10119000ED91FC910190F081E02D0995865082300F
:1011A000A0F088819981DC01ED91FC910280F381AE
:1011B000E02D099588819981DC01ED91FC910480F5
:1011C000F581E02D40E060E009952296B1E0CA3B50
:1011D000DB07D9F640EBC42E41E0D42EF12CF6010A
:1011E000819191916F01DC01ED91FC910190F08171
:1011F000E02D0995873081F48091BA018F110BC0E1
:10120000F601329780819181DC01ED91FC910280A1
:10121000F381E02D0995F394CC15DD0501F70E94CB
:101220009301FF2009F44FC030EB632E31E0732EA1
:10123000D12CC12CB12CF301819191913F01DC01A2
:10124000ED91FC910190F081E02D0995873029F412
:101250008091BA01B81648F4B394EFEFCE1ADE0AC3
:10126000F5E0CF16D10439F72EC00E9493012B016F
:101270003C01C601880F991FFC01E055FE4F5F013C
:10128000D5018D919C91DC01ED91FC910680F78157
:10129000E02D0995811117C0F50180819181DC0154
:1012A000ED91FC910480F581E02D4F2D6C2D099579
:1012B0000E94930164197509860997096131774283
:1012C00081059105E8F28091BA018F5F8F15B9F120
:1012D0008093BA01D8018D919C91DC01ED91FC9134
:1012E0000190F081E02D09958630B1F4F8018081FC
:1012F0009181DC01ED91FC910680F781E02D09954B
:10130000882351F0F80180819181DC01ED91FC91FD
:101310000280F381E02D09950E5F1F4FC017D107A2
:10132000C9F6DF91CF911F910F91FF90DF90CF9081
:10133000BF90AF907F906F905F904F900895109204
:10134000BA01C8CF8AE592E00E949C0780915D02B5
:1013500090915E02892B79F12091610230916202B5
:1013600080915D0290915E022817390720F110925A
:101370005E0210925D0210925B0210925C028091FC
:101380005B02811114C08AE592E00E94630310920F
:101390007302109272021092700210927102809188
:1013A0007002811106C08FE692E00C946303809175
:1013B0005B028091700208958FE692E00E949C0784
:1013C0008091720290917302892B79F120917602BB
:1013D0003091770280917202909173022817390739
:1013E00020F1109273021092720210927002109209
:1013F000710280917002811114C08FE692E00E9408
:10140000630310925E0210925D0210925B021092D2
:101410005C0280915B02811106C08AE592E00C9427
:1014200063038091700280915B020895FC01408308
:101430006283611108C011828181811103C0CF01D3
:101440000C946303818108950F931F93CF93DF93CF
:10145000EC0188819981009759F02A813B812617F8
:10146000370730F081E0DF91CF911F910F91089500
:101470008B016F5F7F4F0E949317009759F09983FC
:1014800088831B830A832C813D81232B59F7FC0120
:101490001082E8CF80E0E7CFEF92FF920F931F9387
:1014A000CF93DF93EC017B01198218821B821A8291
:1014B0001D821C82FB0101900020E9F731978F010A
:1014C000061B170BB8010E94240A811109C0CE0126
:1014D000DF91CF911F910F91FF90EF900C942A080C
:1014E0001D830C83B70188819981DF91CF911F9172
:1014F0000F91FF90EF900C946218CF92DF92EF92D1
:10150000FF920F931F93CF93DF93CDB7DEB7619711
:101510000FB6F894DEBF0FBECDBF8C01CB01F80132
:101520001182108213821282158214824AE09E0177
:101530002F5F3F4F6901B9010E940914F601019024
:101540000020E9F731977F01EC18FD08B701C801C9
:101550000E94240A811112C0C8010E942A086196C3
:101560000FB6F894DEBF0FBECDBFDF91CF911F91B4
:101570000F91FF90EF90DF90CF900895F801F582E2
:10158000E482B601808191810E946218E8CFEF92D7
:10159000FF920F931F93CF93DF936115710541F471
:1015A00080E0DF91CF911F910F91FF90EF90089510
:1015B00041155105B1F07B01EC010C811D81040F37
:1015C000151FB8010E94240A882351F3288139810C
:1015D0008C819D81B701820F931F0E9462181D8329
:1015E0000C8381E0DECFCF93DF93EC01FB01019010
:1015F0000020E9F73197AF01461B570B0E94C70A3D
:10160000811103C0CE010E942A08CE01DF91CF9143
:101610000895CF93DF93EC01FB01448155816081F4
:1016200071810E94C70A811103C0CE010E942A085D
:10163000CE01DF91CF9108950F931F93CF93DF9346
:10164000CDB7DEB76E970FB6F894DEBF0FBECDBF35
:101650000FE612E0F80161857285CE0149960E947D
:101660007D0AF80163857485CE0143960E947D0A48
:10167000F80163817481CE010D960E947D0AF80104
:1016800067817085CE0107960E947D0A60E671E051
:10169000CE0101960E944C0ABE01695F7F4FCE01C8
:1016A00001960E94090B6BE671E00E94F30ABE01ED
:1016B000635F7F4F0E94090B63E771E00E94F30AAA
:1016C000BE016D5E7F4F0E94090B6AE771E00E94C8
:1016D000F30ABE01675E7F4F0E94090B65E871E067
:1016E0000E94F30AFC01448155816081718188EA7E
:1016F00092E00E94F701CE0101960E943C08CE01C3
:1017000007960E943C08CE010D960E943C08CE012F
:1017100043960E943C08CE0149960E943C080AE587
:1017200012E0F80161857285CE0149960E947D0A1A
:10173000F80163857485CE0143960E947D0AF80105
:1017400063817481CE010D960E947D0AF801678144
:101750007085CE0107960E947D0A67E871E0CE0190
:1017600001960E944C0ABE01695F7F4FCE0101962F
:101770000E94090B6BE671E00E94F30ABE01635FF1
:101780007F4F0E94090B63E771E00E94F30ABE01DC
:101790006D5E7F4F0E94090B6AE771E00E94F30AB9
:1017A000BE01675E7F4F0E94090B65E871E00E94F1
:1017B000F30AFC01448155816081718188EA92E0DD
:1017C0000E94F701CE0101960E943C08CE010796C7
:1017D0000E943C08CE010D960E943C08CE01439623
:1017E0000E943C08CE0149960E943C086E960FB6B6
:1017F000F894DEBF0FBECDBFDF91CF911F910F9147
:1018000008951F920F920FB60F9211242F933F93BA
:101810008F939F93AF93BF9380918502909186029F
:10182000A0918702B09188023091840223E0230FB7
:101830002D3758F50196A11DB11D20938402809388
:10184000850290938602A0938702B09388028091CC
:10185000890290918A02A0918B02B0918C0201962C
:10186000A11DB11D8093890290938A02A0938B02DF
:10187000B0938C02BF91AF919F918F913F912F9127
:101880000F900FBE0F901F90189526E8230F029619
:10189000A11DB11DD2CF1F920F920FB60F9211242E
:1018A0002F933F934F935F936F937F938F939F9368
:1018B000AF93BF93EF93FF93E0910201F091030187
:1018C0000995FF91EF91BF91AF919F918F917F917A
:1018D0006F915F914F913F912F910F900FBE0F909D
:1018E0001F9018951F920F920FB60F9211242F93ED
:1018F0003F934F935F936F937F938F939F93AF9398
:10190000BF93EF93FF93E0910001F09101010995DE
:10191000FF91EF91BF91AF919F918F917F916F91C7
:101920005F914F913F912F910F900FBE0F901F909D
:1019300018951F920F920FB60F9211242F933F9379
:101940004F935F936F937F938F939F93AF93BF93C7
:10195000EF93FF9388EA92E00E94AF02FF91EF912C
:10196000BF91AF919F918F917F916F915F914F91B7
:101970003F912F910F900FBE0F901F9018951F92BF
:101980000F920FB60F9211242F938F939F93EF9383
:10199000FF93E091B802F091B9028081E091BE021C
:1019A000F091BF0282FD1BC090818091C1028F5FC8
:1019B0008F732091C202821741F0E091C102F0E0E2
:1019C000E855FD4F958F8093C102FF91EF919F9154
:1019D0008F912F910F900FBE0F901F9018958081BF
:1019E000F4CF1F920F920FB60F9211242F933F93B3
:1019F0004F935F936F937F938F939F93AF93BF9317
:101A0000EF93FF938091AC018F5F8093AC01E091E5
:101A1000AD012091AC018E2F90E0FC01EE0FFF1F75
:101A2000E80FF91FE357FD4F8181E091AD0182136B
:101A30001DC08E2F90E0FC01EE0FFF1FE80FF91F75
:101A4000E357FD4F82818093B200FF91EF91BF91E8
:101A5000AF919F918F917F916F915F914F913F9146
:101A60002F910F900FBE0F901F9018952091AC01F1
:101A70008E2F90E0FC01EE0FFF1FE80FF91FE357D8
:101A8000FD4F8181821708F7E091AD018E2F90E024
:101A9000FC01EE0FFF1FE80FF91FE357FD4F808198
:101AA00085FF10C0E091AD018E2F90E0FC01EE0F9C
:101AB000FF1FE80FF91FE357FD4F808160E08F7132
:101AC0000E94A8008091AD018F5F8093AD011092BC
:101AD000AC011092B2008091AD01882319F1809180
:101AE000AD018930F8F4E091AD018E2F90E0FC015A
:101AF000EE0FFF1FE80FF91FE357FD4F808185FFB1
:101B0000A4CFE091AD018E2F90E0FC01EE0FFF1FFE
:101B1000E80FF91FE357FD4F808161E08F710E944C
:101B2000A80093CF8091AD01893008F48ECF109238
:101B3000AD018BCF1092AB021092AA0288EE93E017
:101B4000A0E0B0E08093AC029093AD02A093AE020F
:101B5000B093AF0282E591E09093A9028093A8022E
:101B600085EC90E09093B5028093B40284EC90E011
:101B70009093B7028093B60280EC90E09093B90204
:101B80008093B80281EC90E09093BB028093BA02FC
:101B900082EC90E09093BD028093BC0286EC90E0D2
:101BA0009093BF028093BE021092C1021092C202B3
:101BB0001092C3021092C40280914503883080F4D1
:101BC0008F5F8093450380934A030E94EA016093EC
:101BD0004603709347038093480390934903089505
:101BE00010924A03F2CFCF93DF93CDB7DEB7AD9714
:101BF0000FB6F894DEBF0FBECDBF789484B5826077
:101C000084BD84B5816084BD85B5826085BD85B5A0
:101C1000816085BD80916E00816080936E0010921E
:101C20008100809181008260809381008091810099
:101C3000816080938100809180008160809380002A
:101C40008091B10084608093B1008091B000816088
:101C50008093B00080917A00846080937A008091B4
:101C60007A00826080937A0080917A00816080930C
:101C70007A0080917A00806880937A001092C10087
:101C800071EDE72E71E0F72E670110E000E0C8016A
:101C90000E942E15D6018D936D010F5F1F4F0233E9
:101CA0001105A9F790E080E0F70121917F010196ED
:101CB0002D3211F021111BC0E2E4F2E0DC01AF5241
:101CC000BE4F30E020E0813391050CF0C3C14D914F
:101CD0004D3209F4BFC1442309F4BCC1243131059C
:101CE00009F4B8C141932F5F3F4F0196ECCF813388
:101CF0009105D1F6E091B802F091B90282E08083BB
:101D0000E091B402F091B5021082E091B602F09138
:101D1000B70280E180831092C002E091BC02F09192
:101D2000BD0286E08083E091BA02F091BB0280811F
:101D300080618083E091BA02F091BB02808188606B
:101D40008083E091BA02F091BB0280818068808339
:101D5000E091BA02F091BB0280818F7D80838091F7
:101D600081008860809381008091AE01811122C042
:101D7000EDE8F2E085EA92E03BE027E53483258355
:101D800033968E179F07D1F78EE380938E021092C1
:101D9000AD011092AC01109270001092B00082E080
:101DA0008093B1001092B20081E087BB80937000F5
:101DB0008093AE0180914A038823A1F061E08DE019
:101DC0000E94F400E0914A038E2F90E0FC01EE0F98
:101DD000FF1FE80FF91FE357FD4F8081807E8D6064
:101DE0008062808384EF91E00E948E0010925902FD
:101DF00049E06AE08FE692E00E94C50745E066E0B0
:101E00008AE592E00E94C50710927002109271025A
:101E1000809170028111BDC18FE692E00E94630340
:101E200010925B0210925C0280915B028111B3C13F
:101E30008AE592E00E9463038CED99E090930301A0
:101E40008093020180916900837F846080936900A0
:101E5000E99A82EA99E090930101809300018091D0
:101E600069008C7F816080936900E89A84EF91E03B
:101E70000E942E158093AF01813309F08EC186E058
:101E800090E00E946E168C0141E06FE070E00E94CD
:101E9000F9061093B1010093B00186E090E00E9432
:101EA0006E168C0141E060E170E00E94F90610932B
:101EB000B3010093B20186E090E00E946E168C019F
:101EC00041E061E170E00E94F9061093B5010093D2
:101ED000B40186E090E00E946E168C0141E062E160
:101EE00070E00E94F9061093B7010093B60186E0F6
:101EF00090E00E946E168C0141E063E170E00E9468
:101F0000F9061093B9010093B8015AE0452E512CFF
:101F1000612C712C22242394312C0E94EA0100911F
:101F20004603109147032091480330914903601BF9
:101F3000710B820B930B613D774081059105C0F0D9
:101F4000109270021092710280917002811183C10F
:101F50008FE692E00E94630310925B0210925C0293
:101F600080915B02811179C18AE592E00E9463034E
:101F700088EA92E00E945502892B41F188EA92E0BA
:101F80000E9433028C010E94EA0160934603709321
:101F9000470380934803909349038091590281112C
:101FA0004EC2C80199278436910509F460C10CF02E
:101FB00066C18136910509F43CC20CF050C18032F3
:101FC000910509F46FC1819709F430C200EB11E06B
:101FD0008AEBE82E81E0F82ED8018D919C91DC01EE
:101FE000ED91FC910190F081E02D09958630C1F4CE
:101FF000F80180819181DC01ED91FC910680F781EF
:10200000E02D099581110CC0F80180819181DC01DE
:10201000ED91FC910480F581E02D40E060E00995B0
:102020000E5F1F4FE016F106B9F68FE692E00E94B0
:102030002B078AE592E00E942B0780E090E0892B35
:1020400009F46BCF0E949B02882309F466CF0E949B
:10205000000060CF2E5B3D4FD9011C92813391056A
:102060000CF048CE0196EDE2F2E030E020E0813362
:10207000910581F0DC01AF52BE4F4C914D3251F0D1
:10208000442341F02431310529F041932F5F3F4F24
:102090000196EDCF235D3D4FF9011082813391050B
:1020A0000CF028CE0196E8E1F2E030E020E0813348
:1020B000910581F0DC01AF52BE4F4C914D3251F091
:1020C000442341F02431310529F041932F5F3F4FE4
:1020D0000196EDCF285E3D4FD9011C9281339105C9
:1020E0000CF008CEE3E0F2E0DC01AE52BE4F20E39C
:1020F00030E0281B390B90E080E08217930759F0FD
:102100004D9150ED540F5A3030F48431910519F04F
:1021100041930196F2CF8D5F9D4FFC01108263E9E0
:1021200071E082E492E00E945918892B69F465E914
:1021300071E08DE292E00E945918892B29F41092E7
:10214000580210925702D6CD67E971E082E492E01E
:102150000E945918892BD1F465E971E08DE292E073
:102160000E945918892B39F481E090E0909358022D
:1021700080935702BFCD69E971E08DE292E00E9441
:102180005918892B19F482E090E0F0CF8FE097E2A4
:10219000EDCF8091700280915B028BE991E00E940B
:1021A000EB0764E670E080E090E00E94B8011982DD
:1021B0001A821B82CE0101960E9461028823E1F1FE
:1021C00089818334C9F58FE991E00E94EB0785EAA4
:1021D00091E00E94EB0764E670E080E090E00E94EE
:1021E000B801CE0101960E946102882329F18A81FB
:1021F000813411F561E08AE00E94A80064E670E095
:1022000080E090E00E94B80160E08AE00E94A800AF
:1022100084EF91E00E942E15813329F061E384EF71
:1022200091E00E94361588EA91E00E94EB0785EA6A
:1022300091E00E94EB0723CE61E089E00E94A800B4
:1022400060ED77E080E090E00E94B80160E089E016
:102250000E94A80014CE8091700280915B028236A9
:10226000910509F4E6C08336910509F0AFCE82E00E
:10227000809359021092CF010093D001A7CE8736E8
:102280009105A9F33CF48536910589F386369105CD
:1022900071F39CCE8936910551F34CF38A36910542
:1022A00031F394CE8EE690E00E942803C09057024E
:1022B000D090580220E1C21627E2D206ECF480E367
:1022C00090E00E941E0338EEC31633E0D306A4F458
:1022D00080E390E00E941E0344E6C416D10464F437
:1022E00080E390E00E941E035AE0C516D10424F456
:1022F00080E390E00E941E030D2C000CEE08FF0806
:10230000F7FE47C00E94230322273327A9012C1977
:102310003D094E095F0919A2CE0181967C01CA01CF
:10232000B901A30192010E943216605DD7016E933C
:102330007D01211531054105510589F7E114F104AD
:1023400019F0C7010E94EB078DE290E00E941E0386
:1023500088E690E00E9428038DE290E00E941E0330
:1023600082E492E00E94EB070E9423030DE212E058
:10237000F80101900020E9F78F010E52124005305C
:102380001105ECF480E390E00E941E030F5F1F4FE5
:10239000F6CFA701960119A2FE01B1967F01CA01ED
:1023A000B901A30192010E943216605DD7016E93BC
:1023B0007D01211531054105510589F7BFCF8DE21A
:1023C00092E00E94EB070E94230308E112E0D8018B
:1023D0000D900020E9F78D010951124005301105DB
:1023E0003CF480E390E00E941E030F5F1F4FF6CF86
:1023F00088E192E00E94EB070E94230303E012E0D1
:10240000F80101900020E9F78F01045012400431D7
:1024100011053CF480E390E00E941E030F5F1F4F04
:10242000F6CF83E092E00E94EB07D0CD81ED91E002
:10243000FACF0093D00183E080935902C7CD823058
:1024400049F58091CF01E82FF0E0E554FE4F00837D
:102450008F5F8093CF01E091D001E356E83008F020
:10246000B5CDF0E0EA5CFD4E0C9454163E123E12DF
:102470003E12471241124712441247128230D8F6D8
:10248000A5CD8430C0F6A2CD8530A8F69FCD8111B0
:10249000D2CF9CCD833009F099CDF4E20F1350C018
:1024A000E091D001E156EA3008F04AC0F0E0E55A88
:1024B000FD4E0C9454167D129E1265128012A312CA
:1024C000BD12D21208132913FE136091BB011091A3
:1024D000BC0140E0603410F0605441E000E0103492
:1024E00010F0105401E08FE692E00E94160A402F8F
:1024F000612F8AE592E00E94160A0E94440820C0DB
:102500009091BB0160ED690F8091BC0110ED180F37
:1025100040E0603418F060E9690F41E000E01034F9
:1025200018F010E9180F01E08FE692E00E94160AF9
:10253000402F612F8AE592E00E94160A0E941C0B30
:102540001092590243CD8091BB0190E0982F8827CB
:102550002091BC01820F911D109277021092760299
:102560009093730280937202109262021092610241
:1025700090935E0280935D02C0CF8091BB01805337
:1025800090E01092770210927602909373028093FB
:102590007202109262021092610290935E02809326
:1025A0005D02CCCF6091BB01F090BC018091BD0178
:1025B0009091BE0140E0603410F0605441E02FE3A0
:1025C000E12C2F1520F430ECF30EEE24E394082FC9
:1025D00010E0102F0027090F111D8FE692E00E94D6
:1025E000160A4E2D6F2D8AE592E00E94160A10926F
:1025F0007702109276021093730200937202109287
:1026000062021092610210935E0200935D0275CF28
:102610001091BB0161E010FF60E084E00E94A8001F
:1026200061E011FF60E087E00E94A80061E012FF16
:1026300060E088E00E94A80061E013FF60E08BE0AA
:102640000E94A80061E014FF60E08CE00E94A800F6
:1026500054CF1092BA018AE0EAE0F1E0DE019296EE
:1026600001900D928A95E1F78AE0E4E1F1E0DE0164
:10267000119601900D928A95E1F700EB11E04BEB7A
:1026800051E05DA74CA75E0152E2A50EB11CCE0140
:1026900001967C01CC24C394D8018D919C910E9419
:1026A0000A17ECA5FDA5D190FDA7ECA7F6E0DF1673
:1026B00011F1DF1688F027E0D21609F442C00E5F50
:1026C0001F4FB2E0AB0EB11CE2E0EE0EF11CF1E0E8
:1026D0000A3B1F0709F711CF86E090E00E946E16B3
:1026E0004C01D5016D917C914D2D0E94F906F801A8
:1026F00091828082E4CF8FE190E00E946E16FC010F
:10270000D7018D919C9122E331E031832083C282F5
:10271000118610861486AF01435F5F4FDA0122E114
:102720001D922A95E9F793878287DA01CF014F96A8
:102730001D921D928A179B07D9F7D801ED93FC9340
:10274000BECF8EE290E00E946E16FC01D7018D9103
:102750009C9122E431E03183208311861286138616
:102760001486158616861786108A118A128A138A8D
:10277000148A158A168A178A108E118E128E138E5D
:10278000148E168E158E10A2178E11A212A213A2ED
:1027900014A215A216A217A210A611A612A613A67D
:1027A00015A614A693838283AAE2B0E0883091052F
:1027B00050F09C0128503109A4E2B0E026303105E8
:1027C00010F0A7E2B0E02C918E309105A4F08E506D
:1027D000A10102C0440F551F8A95E2F7CA018095F6
:1027E00082238C938FE690E095838483A8E7B3E0FF
:1027F000B783A683A2CF87709927EACF8091BB01C8
:1028000025E0829FC00111248C509E4F0E948E00B3
:1028100074CEBB27FB015527AA27880F991FAA1F33
:10282000A41710F0A41B83955051B9F7A05DAA33EB
:1028300008F0A95DA193009779F7B111B1931192B6
:10284000CB010C942314DC01FC01672F71917723D9
:10285000E1F7329704C07C916D9370836291AE175B
:10286000BF07C8F30895E89409C097FB3EF490951C
:102870008095709561957F4F8F4F9F4F9923A9F059
:10288000F92F96E9BB279395F695879577956795E8
:10289000B795F111F8CFFAF4BB0F11F460FF1BC02C
:1028A0006F5F7F4F8F4F9F4F16C0882311F096E9BF
:1028B00011C0772321F09EE8872F762F05C066236D
:1028C00071F096E8862F70E060E02AF09A95660F26
:1028D000771F881FDAF7880F9695879597F90895DF
:1028E0000E9483140C94F4140E94E61438F00E94A1
:1028F000ED1420F0952311F00C94DD140C94E314E6
:1029000011240C9428150E94051570F3959FC1F3AE
:10291000950F50E0551F629FF001729FBB27F00D8D
:10292000B11D639FAA27F00DB11DAA1F649F6627E2
:10293000B00DA11D661F829F2227B00DA11D621F31
:10294000739FB00DA11D621F839FA00D611D221FEB
:10295000749F3327A00D611D231F849F600D211DCF
:10296000822F762F6A2F11249F5750409AF0F1F052
:1029700088234AF0EE0FFF1FBB1F661F771F881FBB
:1029800091505040A9F79E3F510580F00C94DD1402
:102990000C9428155F3FE4F3983ED4F38695779521
:1029A0006795B795F795E7959F5FC1F7FE2B880F61
:1029B000911D9695879597F9089597F99F6780E8F7
:1029C00070E060E008959FEF80EC089500240A9481
:1029D0001616170618060906089500240A941216FA
:1029E0001306140605060895092E0394000C11F42D
:1029F000882352F0BB0F40F4BF2B11F460FF04C0DA
:102A00006F5F7F4F8F4F9F4F089557FD9058440F32
:102A1000551F59F05F3F71F04795880F97FB991F3D
:102A200061F09F3F79F087950895121613061406FA
:102A3000551FF2CF4695F1DF08C016161706180687
:102A4000991FF1CF86957105610508940895E89462
:102A5000BB2766277727CB0197F90895F999FECF11
:102A600092BD81BDF89A992780B50895262FF999CE
:102A7000FECF1FBA92BD81BD20BD0FB6F894FA9A61
:102A8000F99A0FBE019608952F923F924F925F924E
:102A90006F927F928F929F92AF92BF92CF92DF926E
:102AA000EF92FF920F931F93CF93DF93CDB7DEB7D3
:102AB000CA1BDB0B0FB6F894DEBF0FBECDBF099467
:102AC0002A88398848885F846E847D848C849B84BE
:102AD000AA84B984C884DF80EE80FD800C811B81CC
:102AE000AA81B981CE0FD11D0FB6F894DEBF0FBEFB
:102AF000CDBFED0108955058BB27AA270E9493151A
:102B00000C94F4140E94E61438F00E94ED1420F0A6
:102B100039F49F3F19F426F40C94E3140EF4E09575
:102B2000E7FB0C94DD14E92F0E94051558F3BA1742
:102B3000620773078407950720F079F4A6F50C94D3
:102B400027150EF4E0950B2EBA2FA02D0B01B9011D
:102B500090010C01CA01A0011124FF27591B99F013
:102B6000593F50F4503E68F11A16F040A22F232F1F
:102B7000342F4427585FF3CF469537952795A7956F
:102B8000F0405395C9F77EF41F16BA0B620B730B16
:102B9000840BBAF09150A1F0FF0FBB1F661F771F87
:102BA000881FC2F70EC0BA0F621F731F841F48F43C
:102BB000879577956795B795F7959E3F08F0B0CFC5
:102BC0009395880F08F09927EE0F979587950895AC
:102BD0000E94EF156894B1110C94281508950E9475
:102BE0000D1588F09F5798F0B92F9927B751B0F07D
:102BF000E1F0660F771F881F991F1AF0BA95C9F781
:102C000014C0B13091F00E942715B1E008950C94E2
:102C10002715672F782F8827B85F39F0B93FCCF395
:102C2000869577956795B395D9F73EF490958095FD
:102C3000709561957F4F8F4F9F4F089597FB072E9B
:102C400016F4009407D077FD09D00E945A1607FCAD
:102C500005D03EF4909581959F4F089570956195AC
:102C60007F4F0895A1E21A2EAA1BBB1BFD010DC0C8
:102C7000AA1FBB1FEE1FFF1FA217B307E407F5072C
:102C800020F0A21BB30BE40BF50B661F771F881F08
:102C9000991F1A9469F760957095809590959B019E
:102CA000AC01BD01CF010895EE0FFF1F0590F49117
:102CB000E02D0994AA1BBB1B51E107C0AA1FBB1F33
:102CC000A617B70710F0A61BB70B881F991F5A95B8
:102CD000A9F780959095BC01CD0108950F931F939E
:102CE000CF93DF938230910510F482E090E0E09181
:102CF0004D03F0914E0330E020E0B0E0A0E03097CB
:102D000099F42115310509F44AC0281B390B2430E8
:102D10003105D8F58A819B816115710589F1FB0127
:102D200093838283FE0111C040815181028113810E
:102D300048175907E0F04817590799F4109761F0C0
:102D400012960C93129713961C933296CF01DF9133
:102D5000CF911F910F91089500934D0310934E034F
:102D6000F4CF2115310551F04217530738F0A9016E
:102D7000DB019A01BD01DF01F801C1CFEF01F9CFFD
:102D800090934E0380934D03CDCFFE01E20FF31FCE
:102D9000819391932250310939832883D7CF209191
:102DA0004B0330914C03232B41F4209106013091C9
:102DB000070130934C0320934B0320910401309181
:102DC00005012115310541F42DB73EB740910801A9
:102DD00050910901241B350BE0914B03F0914C03FA
:102DE000E217F307A0F42E1B3F0B2817390778F0E2
:102DF000AC014E5F5F4F2417350748F04E0F5F1F41
:102E000050934C0340934B03819391939FCFF0E0F9
:102E1000E0E09CCFCF93DF930097E9F0FC0132977D
:102E200013821282A0914D03B0914E03ED0130E068
:102E300020E01097A1F420813181820F931F20910F
:102E40004B0330914C032817390709F061C0F09308
:102E50004C03E0934B03DF91CF910895EA01CE1725
:102E6000DF07E8F54A815B819E0141155105B1F705
:102E7000E901FB83EA8349915991C40FD51FEC17EF
:102E8000FD0761F4808191810296840F951FE9010D
:102E900099838883828193819B838A83F0E0E0E039
:102EA00012968D919C9113970097B9F52D913C91B5
:102EB0001197CD010296820F931F20914B03309101
:102EC0004C032817390739F6309751F510924E0305
:102ED00010924D03B0934C03A0934B03BCCFD3830C
:102EE000C28340815181840F951FC817D90761F4AF
:102EF0004E5F5F4F88819981480F591F51834083EE
:102F00008A819B81938382832115310509F0B0CF9B
:102F1000F0934E03E0934D039ECFFD01DC01C0CF43
:102F200013821282D7CFB0E0A0E0E9E9F7E10C9478
:102F300046158C01009751F4CB010E946E168C014E
:102F4000C801CDB7DEB7E0E10C946215FC01E60FD5
:102F5000F71F9C0122503109E217F30708F49DC0C6
:102F6000D901CD91DC911197C617D70798F0C530DC
:102F7000D10530F3CE0104978617970708F3C61BD7
:102F8000D70B2297C193D1936D937C93CF010E946D
:102F90000A17D6CF5B01AC1ABD0A4C018C0E9D1EE0
:102FA000A0914D03B0914E03512C412CF12CE12CFA
:102FB000109731F580914B0390914C03881599053A
:102FC00009F05CC04616570608F058C0809104010D
:102FD00090910501009741F48DB79EB7409108018B
:102FE00050910901841B950BE817F90708F055C0AB
:102FF000F0934C03E0934B03F90171836083A0CFFE
:103000008D919C91119712966C90129713967C90CB
:103010001397A815B90559F56C0142E0C40ED11CEF
:10302000CA14DB0420F1AC014A195B09DA011296DB
:10303000159780F06282738251834083D9016D932A
:103040007C93E114F10471F0D7011396FC93EE9395
:10305000129776CF22968C0F9D1FF9019183808362
:10306000F301EFCFF0934E03E0934D0369CF481681
:10307000590608F42C017D01D3019ACFCB010E949F
:103080006E167C01009749F0AE01B8010E945018FD
:10309000C8010E940A17870153CF10E000E050CF0B
:1030A000FB01DC0102C001900D9241505040D8F765
:1030B0000895FB01DC018D91019080190110D9F375
:1030C000990B0895FB01DC0101900D920020E1F7BE
:0630D0000895F894FFCF03
:1030D600F601F60100004F0380000F0010001100FA
:1030E600120013000400070008000B000C0000008B
:1030F6000000F306F006E206E0061A08F6060000EF
:103106000000DE06CE0656055305F80752050000F8
:1031160000005005F504730370030808520500000B
:103126000000D102F701240243035502330247028D
:103136000A4C3A5B73746570733D00206C696D6967
:10314600743D0020706174683D0020646973746189
:103156006E63653D005D000A523A5B737465707379
:10316600523D00520031004C003300242424005309
:0C317600512C3136000D0A002D2D2D00CB
:00000001FF
