:100000000C9476000C9461090C943A090C949E00AF
:100010000C949E000C949E000C949E000C949E00E8
:100020000C949E000C9488090C949E000C949E00E5
:100030000C949E000C949E000C949E000C949E00C8
:100040000C94F0080C949E000C9456070C94300706
:100050000C949E000C949E000C949E000C949E00A8
:100060000C949E000C949E00890E890E890E950EAC
:100070008F0E950E920E950E6C10160FAC0EC70ECD
:10008000E80E020F190F500F7B0F62103030303125
:100090003100524F42424F2D000000000024002743
:1000A000002A0000000000250028002B00040404A2
:1000B0000404040404020202020202030303030311
:1000C00003010204081020408001020408102001EE
:1000D00002040810200000000800020100000304D0
:1000E000070000000000000000001B1411241FBEC8
:1000F000CFEFD8E0DEBFCDBF23E0ACEAB1E001C076
:100100001D92AF34B207E1F711E0A0E0B1E0EAE8F8
:10011000F2E302C005900D92AC3AB107D9F710E0B6
:10012000C6E7D0E004C02197FE010E942417C5371E
:10013000D107C9F70E94DB0A0C9443190C94000004
:10014000FC0180850895CF93DF93FC011086118612
:10015000128613861486158616861786108A118ACB
:10016000128A138A148A158A168A178A108E118E9B
:10017000128E138E148E13A214A210A611A612A60C
:1001800013A661A16931C8F582A18823B1F16F5F1F
:1001900061A36630A0F1EF01258D368D878D90A18A
:1001A000820F931F968F858F70E0655071090E94B2
:1001B000EE169B01072E000C880B990B37FD09C02A
:1001C0000E94051520E030E040E05FE30E944C16FD
:1001D00008C00E94051520E030E040E05FE30E9487
:1001E0004B160E94B8167D836C8383E0660F771FE1
:1001F0008A95E1F77F836E8302C081E082A3DF915D
:10020000CF91089587E008950895FC0184850895AD
:1002100086E0089581E00895FC0115820895FC01AF
:1002200084810895FC0165830895FC018381948194
:10023000892B29F087819085019690878783838514
:10024000948501969487838785819681019696830C
:1002500085838081811104C081859285019603C0C8
:100260008185928501979287818787819085838593
:10027000948585819681818592850895CF92DF92BC
:10028000EF92FF92CF93DF93EC018BA5823009F4BC
:100290008FC028F4882351F08130E9F1D4C1833034
:1002A00009F4C2C0843009F4F4C0CDC18A819B81B5
:1002B0008830910548F09C012850310926303105DD
:1002C00030F0E6E2F0E005C0E9E2F0E002C0E3E28F
:1002D000F0E0408150E08E30910564F08E5021E0D6
:1002E00030E0B90102C0660F771F8A95E2F7CB01B3
:1002F00099270BC08770992721E030E0B90102C02F
:10030000660F771F8A95E2F7CB0184239523892B0B
:1003100009F01AC14BC08A819B818830910548F051
:100320009C01285031092630310530F0E6E2F0E03A
:1003300005C0E9E2F0E002C0E3E2F0E0408150E015
:100340008E30910564F08E5021E030E0B90102C09A
:10035000660F771F8A95E2F7CB0199270BC087704C
:10036000992721E030E0B90102C0660F771F8A9516
:10037000E2F7CB0184239523892BC1F40E948508E1
:100380006D877E878F87988BC984DA84EB84FC84A1
:10039000DC01CB018C199D09AE09BF098430964060
:1003A000A105B10508F44FC182E0D7C01BA64BC11F
:1003B0008A819B818830910548F09C012850310941
:1003C0002630310530F0E6E2F0E005C0E9E2F0E089
:1003D00002C0E3E2F0E0408150E08E30910564F02D
:1003E0008E5021E030E0B90102C0660F771F8A9578
:1003F000E2F7CB0199270BC08770992721E030E005
:10040000B90102C0660F771F8A95E2F7CB018423FA
:100410009523892B09F4A3C00E948508698B7A8BE8
:100420008B8B9C8B83E099C0CD84DE84EF84F8882D
:1004300089859A85AB85BC85A7019601281B390B58
:100440004A0B5B0BCA01B9012EE030E040E050E0FE
:100450000E940217CA01B9010E94031520E030E092
:1004600040E05FE30E944C160E94B81678A36F8F9D
:1004700032E3C30ED11CE11CF11C8C819D81C80E9E
:10048000D91EE11CF11CC98EDA8EEB8EFC8E84E045
:100490008BA7C98CDA8CEB8CFC8C0E9485086C15C0
:1004A0007D058E059F0508F4CEC02C813D81898D88
:1004B0009A8DAB8DBC8D820F931FA11DB11D898FAD
:1004C0009A8FAB8FBC8F8A819B818830910548F0D1
:1004D0009C01285031092630310530F0E6E2F0E089
:1004E00005C0E9E2F0E002C0E3E2F0E0408150E064
:1004F0008E30910564F08E5021E030E0B90102C0E9
:10050000660F771F8A95E2F7CB0199270BC087709A
:10051000992721E030E0B90102C0660F771F8A9564
:10052000E2F7CB01842395232CA13BA1892BF1F089
:10053000FE01E30FF11D81E090E001C0880F2A95D4
:10054000EAF790A5892B1EC081E08BA70E94850841
:1005500069877A878B879C8776C08BA774C00E9437
:1005600085086D877E878F87988B6DC0FE01E30FAE
:10057000F11D81E090E001C0880F2A95EAF780958F
:1005800090A5892380A78CA18F5F883010F48CA35D
:100590005AC01CA28BA18F5F833010F48BA353C071
:1005A0001BA21BA668A58DA190E0861B91099C014A
:1005B00097FF04C022273327281B390B49A55AA5CA
:1005C000203231054CF02EA130E0241B31092C5F84
:1005D0003F4F2930310590F09C012C5F3F4F29306F
:1005E0003105A8F42EA130E0241B310937FF03C0E8
:1005F000319521953109203231054CF02FA130E0A1
:10060000251B31092C5F3F4F29303105A8F0049696
:100610000997A8F48EA190E0841B9109049609978C
:1006200070F48FA190E0851B910997FF03C091950D
:100630008195910980971CF081E0888704C06DA3A3
:100640004EA35FA3F9CFDF91CF91FF90EF90DF90A2
:10065000CF900895CF93DF93EC011B8281E08A83D2
:100660001C860E9485086C837D838E839F83DF9127
:10067000CF910895CF93DF93EC018A810E94700897
:1006800095958795959587958D83DF91CF91089561
:10069000CF93DF93EC0184E090E00E943E17FC01D1
:1006A00010821182128228852383DF91CF910895D1
:1006B000CF93DF93EC0184E090E00E943E17FC01B1
:1006C00010822DA121832EA122832FA12383DF91CC
:1006D000CF910895CF93DF93EC0184E090E00E94E6
:1006E0003E17FC011082118212822D812383DF913B
:1006F000CF910895AF92BF92CF92DF92EF92FF9287
:100700000F931F93CF93DF93CDB7DEB762970FB6EA
:10071000F894DEBF0FBECDBF8C01FC01828188231F
:1007200009F47AC00E948508F801C480D580E6806B
:10073000F780DC01CB018C199D09AE09BF0981331B
:100740009547A105B10508F45CC1F8012285338500
:100750002830310548F0C9010897069750F0E7E2C4
:10076000F0E0A7E2B0E009C0EAE2F0E0AAE2B0E01F
:1007700004C0E4E2F0E0A4E2B0E09C912E30310548
:1007800014F02E5002C02770332781E001C0880F7B
:100790002A95EAF7892B808361E0F80182850E941F
:1007A00088078FE190E00197F1F760E0F80182851A
:1007B0000E948807F801228533852830310548F0EA
:1007C000C9010897069750F4E4E2F0E0A4E2B0E033
:1007D00009C0EAE2F0E0AAE2B0E004C0E7E2F0E03B
:1007E000A7E2B0E04C912E30310514F02E5002C03B
:1007F0002770332781E090E001C0880F2A95EAF73F
:100800008095842380830E948508F8016483758322
:10081000868397831282F5C00E948508F801C48000
:10082000D580E680F780DC01CB018C199D09AE09EB
:10083000BF09813A9648A140B10518F081E0F8015E
:10084000ABC0F801238182859385222309F4A6C0D9
:100850008830910548F09C01285031092630310537
:1008600030F0E6E2F0E005C0E9E2F0E002C0E3E2E9
:10087000F0E0408150E08E3091055CF022EF280FCF
:1008800081E090E002C0880F991F2A95E2F799272E
:100890000BC08770992721E030E0B90102C0660FD4
:1008A000771F8A95E2F7CB0184239523892B09F0E2
:1008B000A8C00E948508F801C480D580E680F78032
:1008C0006C197D098E099F090E94031526E933E4FE
:1008D0004BE05DE30E94401520E030E040E05FE344
:1008E0000E94401520E030E040E651E40E944B16A3
:1008F0000E94B816F80177FD03C07187608702C0B7
:1009000011861086D8011D96C8014D96FD012281E1
:100910003381219331938E179F07C9F7F8018085A2
:100920009185968F858FFE013196C8014F96BF0144
:100930002D913D91219331938A179B07C9F7DE01D1
:10094000139620E030E04D915C911197C9015D0153
:10095000F501D290C2907F014C155D054CF4F50174
:10096000D182C082019757018F3FFFEF9F0781F728
:10097000FC013196EE0FFF1FE60FF71F51834083F6
:100980002F5F3F4F129628303105E9F689859A8509
:10099000F8019187808781E0848733C08830910592
:1009A00048F09C01285031092630310530F0E6E24C
:1009B000F0E005C0E9E2F0E002C0E3E2F0E04081EF
:1009C00050E08E3091055CF022EF280F81E090E03E
:1009D00002C0880F991F2A95E2F799270BC08770EC
:1009E000992721E030E0B90102C0660F771F8A9590
:1009F000E2F7CB0184239523892B19F081E0F801DC
:100A0000838362960FB6F894DEBF0FBECDBFDF9131
:100A1000CF911F910F91FF90EF90DF90CF90BF90FB
:100A2000AF900895CF93DF93FC012181211104C081
:100A3000DF91CF910C94330AEC01808181110BC0BE
:100A40006181F4E06F9FB001112488890E94110830
:100A500060E070E00AC060E070E080890E941108E8
:100A6000698184E0689FB00111248F85DF91CF9167
:100A70000C941108CF93DF93FC0183819481892B1F
:100A800001F1278130858381948128173907C8F0C7
:100A900014821382118212828181811110C0EB01B4
:100AA000CF010E94330A1C821B8219821A8289811B
:100AB000811106C0CE01DF91CF910C94330A818160
:100AC0008981DF91CF91089589EB91E00E94150112
:100AD0006EEC71E089EB91E00C943A058EEC91E0BC
:100AE0000E94150169EB71E08EEC91E00C943A05DF
:100AF000CF93DF93FC01EB0182E491E0918380834B
:100B0000158273836283448360E08C2F0E94D50733
:100B1000C131D105A1F044F4CF30D10569F060971F
:100B2000B9F461E087E010C0C231D10559F0639794
:100B300079F461E08CE008C061E084E005C061E028
:100B400088E002C061E08BE0DF91CF910C94D50783
:100B5000DF91CF910895CF92DF92EF92FF920F93A2
:100B60001F93CF93DF93EC010E94E40809891A894F
:100B70002B893C896B017C01C01AD10AE20AF30A75
:100B800097018601053011052105310538F1698B82
:100B90007A8B8B8B9C8B99818A8198130BC0CE01A9
:100BA000DF91CF911F910F91FF90EF90DF90CF9049
:100BB0000C9412059981981738F429819981821B28
:100BC00009F081E0890F08C099812981981B892F3C
:100BD00009F081E0281B822F8983E1CFDF91CF913B
:100BE0001F910F91FF90EF90DF90CF900895CF93DA
:100BF000DF93EC01862F188219821A821C821B82D5
:100C00001E821D821E861D8618861F826F87488B56
:100C1000198A1A8A1B8A1C8A61E00E94D50761E042
:100C200088890E94D50761E088890E94880761E071
:100C30008F85DF91CF910C948807CF92DF92EF924E
:100C4000FF920F931F93CF93DF936C017A018B0177
:100C5000C0E0D0E0CE15DF0581F0D8016D918D01A7
:100C6000D601ED91FC910190F081E02DC60109952E
:100C7000892B11F02196EECF7E01C701DF91CF9134
:100C80001F910F91FF90EF90DF90CF9008950895FE
:100C900080E090E00895FC01538D448D252F30E0D5
:100CA000842F90E0821B930B541710F0CF96089579
:100CB00001970895FC01918D828D981761F0828DC6
:100CC000DF01A80FB11D5D968C91928D9F5F9F7380
:100CD000928F90E008958FEF9FEF0895FC01918D22
:100CE000828D981731F0828DE80FF11D858D90E08F
:100CF00008958FEF9FEF0895FC01918D228D892F2C
:100D000090E0805C9F4F821B91098F739927089513
:100D100088EA92E00E947C0621E0892B09F420E019
:100D2000822F0895FC01848DDF01A80FB11DA35A05
:100D3000BF4F2C91848D90E001968F739927848FFB
:100D4000A689B7892C93A089B1898C91837080641E
:100D50008C93938D848D981306C00288F389E02DBF
:100D600080818F7D80830895EF92FF920F931F9370
:100D7000CF93DF93EC0181E0888F9B8D8C8D98134E
:100D800005C0E889F989808185FD26C0F62E0B8D86
:100D900010E00F5F1F4F0F731127E02E8C8DE812AC
:100DA0000CC00FB607FCFACFE889F989808185FF6E
:100DB000F5CFCE010E949206F1CF8B8DFE01E80F98
:100DC000F11DE35AFF4FF0829FB7F8940B8FEA8929
:100DD000FB89808180620AC09FB7F894EE89FF8901
:100DE0006083E889F98980818370806480839FBFF4
:100DF00081E090E0DF91CF911F910F91FF90EF90F4
:100E00000895CF93DF93EC01888D8823C9F0EA8998
:100E1000FB89808185FD05C0A889B9898C9186FDF3
:100E20000FC00FB607FCF5CF808185FFF2CFA889F0
:100E3000B9898C9185FFEDCFCE010E949206E7CF54
:100E4000DF91CF91089580E090E0892B29F00E94F6
:100E5000880681110C940000089508950E942519B8
:100E60001F920F920FB60F9211242F933F934F931F
:100E70005F936F937F938F939F93AF93BF93EF9302
:100E8000FF9388EA92E00E949206FF91EF91BF9152
:100E9000AF919F918F917F916F915F914F913F9112
:100EA0002F910F900FBE0F901F9018951F920F92C9
:100EB0000FB60F9211242F938F939F93EF93FF936D
:100EC000E091B802F091B9028081E091BE02F09108
:100ED000BF0282FD12C090818091C1028F5F8F732B
:100EE0002091C202821751F0E091C102F0E0E85572
:100EF000FD4F958F8093C10201C08081FF91EF91DA
:100F00009F918F912F910F900FBE0F901F9018956A
:100F100090E0FC01EB52FF4F2491FC01EF53FF4F97
:100F20003491FC01E355FF4FE491EE2309F43CC0FA
:100F3000222339F1233091F038F42130A9F0223006
:100F400001F584B58F7D12C0273091F02830A1F0D3
:100F50002430B9F4809180008F7D03C0809180009F
:100F60008F77809380000DC084B58F7784BD09C0D2
:100F70008091B0008F7703C08091B0008F7D809307
:100F8000B000F0E0EE0FFF1FED55FF4FA591B491BB
:100F90009FB7F894611104C08C913095382302C03A
:100FA000EC913E2B3C939FBF0895CF93DF9390E04D
:100FB000FC01EF53FF4F2491FC01E355FF4F849157
:100FC000882361F190E0880F991FFC01E756FF4FDD
:100FD000C591D491FC01ED55FF4FA591B4916111DC
:100FE00009C09FB7F8948881209582238883EC916B
:100FF0002E230BC0623061F49FB7F8948881322FA2
:10100000309583238883EC912E2B2C939FBF06C0B1
:101010008FB7F894E8812E2B28838FBFDF91CF9173
:1010200008951F93CF93DF93182FEB0161E00E9487
:10103000D507209711F460E004C0CF3FD10539F403
:1010400061E0812FDF91CF911F910C948807E12FF0
:10105000F0E0EB52FF4FE491E330F9F048F4E13077
:10106000B9F0E230A1F584B5806284BDC8BD34C05A
:10107000E730E9F0E83019F1E43049F5809180007B
:10108000806280938000D0938B00C0938A0024C03C
:1010900084B5806884BDC7BD1FC080918000806812
:1010A00080938000D0938900C093880015C0809100
:1010B000B00080688093B000C093B3000DC08091F1
:1010C000B00080628093B000C093B40005C0C03807
:1010D000D1050CF0B5CFAFCFDF91CF911F9108951F
:1010E0008E3008F08E508770806480937C008091F1
:1010F0007A00806480937A0080917A0086FDFCCF2C
:10110000809178009091790008953FB7F89480918C
:10111000890290918A02A0918B02B0918C0226B52F
:10112000A89B05C02F3F19F00196A11DB11D3FBF1F
:10113000BA2FA92F982F8827820F911DA11DB11DAD
:10114000BC01CD0142E0660F771F881F991F4A95A9
:10115000D1F708958F929F92AF92BF92CF92DF9274
:10116000EF92FF926B017C010E9485084B015C01AC
:10117000C114D104E104F104F1F00E948508DC01FE
:10118000CB0188199909AA09BB09883E9340A1059A
:10119000B10570F321E0C21AD108E108F10888EE28
:1011A000880E83E0981EA11CB11CC114D104E10477
:1011B000F10419F7DDCFFF90EF90DF90CF90BF9053
:1011C000AF909F908F9008952FB7F894609185020B
:1011D0007091860280918702909188022FBF0895B6
:1011E0001F920F920FB60F9211242F933F938F935C
:1011F0009F93AF93BF938091850290918602A091B7
:101200008702B09188023091840223E0230F2D37AA
:1012100020F40196A11DB11D05C026E8230F0296FA
:10122000A11DB11D209384028093850290938602B4
:10123000A0938702B09388028091890290918A02DC
:10124000A0918B02B0918C020196A11DB11D8093DB
:10125000890290938A02A0938B02B0938C02BF9173
:10126000AF919F918F913F912F910F900FBE0F9053
:101270001F9018951F920F920FB60F9211242F9363
:101280003F934F935F936F937F938F939F93AF930E
:10129000BF93EF93FF93E0910201F0910301099551
:1012A000FF91EF91BF91AF919F918F917F916F913E
:1012B0005F914F913F912F910F900FBE0F901F9014
:1012C00018951F920F920FB60F9211242F933F93F0
:1012D0004F935F936F937F938F939F93AF93BF933E
:1012E000EF93FF93E0910001F09101010995FF91C7
:1012F000EF91BF91AF919F918F917F916F915F918E
:101300004F913F912F910F900FBE0F901F90189506
:101310001F920F920FB60F9211242F933F934F936A
:101320005F936F937F938F939F93AF93BF93EF934D
:10133000FF938091AC018F5F8093AC018091AD01F0
:101340002091AC0190E0FC01EE0FFF1F8E0F9F1F5C
:10135000FC01E357FD4F818182130FC08091AD01E5
:1013600090E0FC01EE0FFF1F8E0F9F1FFC01E35763
:10137000FD4F82818093B20065C08091AD012091C4
:10138000AC0190E0FC01EE0FFF1F8E0F9F1FFC01D0
:10139000E357FD4F8181821708F054C08091AD0161
:1013A00090E0FC01EE0FFF1F8E0F9F1FFC01E35723
:1013B000FD4F808185FF10C08091AD0190E0FC0160
:1013C000EE0FFF1F8E0F9F1FFC01E357FD4F808123
:1013D00060E08F710E9488078091AD018F5F8093DC
:1013E000AD011092AC011092B2008091AD01882342
:1013F00019F18091AD018930F8F48091AD0190E050
:10140000FC01EE0FFF1F8E0F9F1FFC01E357FD4FE6
:10141000808185FF17C08091AD0190E0FC01EE0F47
:10142000FF1F8E0F9F1FFC01E357FD4F808161E07E
:101430008F710E94880706C08091AD01893010F03D
:101440001092AD01FF91EF91BF91AF919F918F915C
:101450007F916F915F914F913F912F910F900FBEB0
:101460000F901F901895CF93DF93EC0161E088896E
:101470000E94880761E08F85DF91CF910C948807E7
:10148000009769F0FC0101900020E9F73197AF0166
:10149000481B590BBC0188EA92E00C941D0680E0C1
:1014A00090E00895682F88EA92E00C94B406CF92F9
:1014B000DF92EF92FF920F931F93CF93DF93D82F7A
:1014C000C92F0E94E4086B017C010D2F1C2FC0E086
:1014D000D0E0C330D105E1F00E94E408DC01CB018B
:1014E0008C199D09AE09BF09883E9340A105B1053D
:1014F00078F488EA92E00E947C06892B51F32196C9
:1015000088EA92E00E945A06F80181938F01E1CFA8
:1015100081E0239709F080E0DF91CF911F910F9137
:10152000FF90EF90DF90CF900895E09149032FEF67
:101530002E0F2830F8F4843F21E092073CF08136EA
:1015400029E092072CF080E699E002C084EF91E058
:101550000897F0E09C01220F232F221F330BAF01CD
:10156000440F551FE40FF51FE357FD4F2183880FEC
:101570008095828308956DE288EA92E00C94B40627
:101580000F931F93CF93DF938C01C0E0D0E0F8015D
:10159000EC0FFD1F6491662341F088EA92E00E94FF
:1015A000B406892B11F02196F2CFCE01DF91CF91B5
:1015B0001F910F910895CF93DF93CDB7DEB7AD970D
:1015C0000FB6F894DEBF0FBECDBF789484B58260AD
:1015D00084BD84B5816084BD85B5826085BD85B5D7
:1015E000816085BD80916E00816080936E00109255
:1015F00081008091810082608093810080918100D0
:101600008160809381008091800081608093800060
:101610008091B10084608093B1008091B0008160BE
:101620008093B00080917A00846080937A008091EA
:101630007A00826080937A0080917A008160809342
:101640007A0080917A00806880937A001092C100BD
:101650006BEFE62E61E0F62E670100E010E0C801B6
:101660000E94FE15D6018D936D010F5F1F4F02334F
:101670001105A9F780E090E0F70121917F01019623
:101680002D3209F463C5222309F460C58133910525
:1016900099F763C0DC01A550BE4F4C914D3261F00B
:1016A000442351F02431310539F041932F5F3F4FEE
:1016B00001968133910571F7F901E459FD4F1082CC
:1016C0008133910509F449C00196E7E5F2E020E095
:1016D00030E08133910509F03EC5F901E95AFD4F2B
:1016E000108281339105C9F10196E2E4F2E020E035
:1016F00030E08133910509F041C5F901EE5BFD4F02
:1017000010828133910549F1EDE2F2E0DC01A45051
:10171000BE4F20E330E0281B390B80E090E08217B9
:10172000930709F03EC5FC01E35DFD4F108260E6C2
:1017300071E08CE692E00E943319892B09F03EC5D6
:1017400062E671E087E592E00E943319892B09F087
:1017500035C51092820210928102E091B802F09198
:10176000B90282E08083E091B402F091B502108268
:10177000E091B602F091B70280E180831092C0023E
:10178000E091BC02F091BD0286E08083E091BA0254
:10179000F091BB02808180618083E091BA02F09178
:1017A000BB02808188608083E091BA02F091BB0225
:1017B000808180688083E091BA02F091BB028081D1
:1017C0008F7D8083809181008860809381008091EB
:1017D000E301811122C0EDE8F2E085EA92E03BE00E
:1017E00027E53483258333968E179F07D1F78EE341
:1017F00080938E021092AD011092AC011092700095
:101800001092B00082E08093B1001092B20081E0AB
:1018100087BB809370008093E30180914903882304
:1018200099F061E08DE00E94D507E0914903F0E076
:10183000CF01880F991FE80FF91FE357FD4F8081F3
:10184000807E8D608062808384EF91E00E94950AA3
:101850001092830249E06AE08EEC91E00E94F70565
:1018600045E066E089EB91E00E94F7051092CF0118
:101870001092D0018091CF0181110DC08EEC91E0CA
:101880000E94330A1092BA011092BB018091BA01F2
:1018900081112AC002C08091CF0189EB91E00E94A2
:1018A000330A8EE695E090930301809302018091C4
:1018B0006900837F846080936900E99A84E695E0FB
:1018C0009093010180930001809169008C7F816079
:1018D00080936900E89A84EF91E00E94FE1580935E
:1018E000E401813319F45FC08091BA0188E691E088
:1018F0000E94400A64E670E080E090E00E94AA083E
:1019000019821A821B82CE0101960E94570A8823EF
:10191000E1F189818334C9F58CE691E00E94400AA7
:1019200082E791E00E94400A64E670E080E090E087
:101930000E94AA08CE0101960E94570A882329F125
:101940008A81813411F561E08AE00E94880764E6AB
:1019500070E080E090E00E94AA0860E08AE00E94C7
:10196000880784EF91E00E94FE15813329F061E33E
:1019700084EF91E00E94061685E791E00E94400AFC
:1019800082E791E00E94400A0EC061E089E00E9477
:10199000880760ED77E080E090E00E94AA0860E0B0
:1019A00089E00E94880786E090E00E943E178C0143
:1019B00041E06FE070E00E9478051093AF01009362
:1019C000AE0186E090E00E943E178C0141E060E1AC
:1019D00070E00E9478051093B1010093B00186E099
:1019E00090E00E943E178C0141E061E170E00E94AE
:1019F00078051093B3010093B20186E090E00E9455
:101A00003E178C0141E062E170E00E94780510937E
:101A1000B5010093B40186E090E00E943E178C016E
:101A200041E063E170E00E9478051093B7010093F4
:101A3000B60122242394312C4AE0442E512C612CEF
:101A4000712C0E94E40800914503109146032091F7
:101A5000470330914803DC01CB01801B910BA20BA3
:101A6000B30B813D9740A105B105E8F01092CF017D
:101A70001092D0018091CF01811111C08EEC91E0C4
:101A80000E94330A1092BA011092BB018091BA01F0
:101A9000811107C089EB91E00E94330A04C0809154
:101AA000CF018091BA0188EA92E00E947C06892BDE
:101AB00009F404C188EA92E00E945A068C010E944F
:101AC000E408609345037093460380934703909323
:101AD000480380918302811102C1C801992784368D
:101AE000910509F4F4C0ACF48136910509F4ECC019
:101AF0003CF48032910531F1819709F4E2C0DEC0F7
:101B00008236910509F4E0C08336910509F4DFC0FF
:101B1000D5C08736910509F4DAC04CF485369105B5
:101B200009F4D5C08636910509F4D1C0C7C08936FD
:101B3000910509F4CCC00CF4CAC08A36910509F4A9
:101B4000C6C0BCC082E990E00E94C00A0091810238
:101B500010918202003127E21207D4F480E390E072
:101B60000E94520A083E33E0130794F480E390E0A9
:101B70000E94520A043611055CF480E390E00E9452
:101B8000520A0A30110524F480E390E00E94520AC0
:101B90006801110FEE08FF08F7FE1DC00E94BB0A86
:101BA00022273327A9012C193D094E095F0919A2E3
:101BB000CE0181967C01CA01B901A30192010E9464
:101BC0000217605DD7016E937D0121153105410536
:101BD000510589F715C0A701960119A2FE01B1961A
:101BE0007F01CA01B901A30192010E940217605D41
:101BF000D7016E937D01211531054105510589F706
:101C0000C7010E94400A8DE290E00E94520A8CE8CF
:101C100090E00E94C00A8DE290E00E94520A8CE699
:101C200092E00E94400A0E94BB0AE7E5F2E00190C0
:101C30000020E9F731978F01075512400530110553
:101C40003CF480E390E00E94520A0F5F1F4FF6CFF2
:101C500087E592E00E94400A0E94BB0AE2E4F2E0BB
:101C600001900020E9F731978F01025412400530AE
:101C700011053CF480E390E00E94520A0F5F1F4F71
:101C8000F6CF82E492E00E94400A0E94BB0AEDE295
:101C9000F2E001900020E9F731978F010D521240D8
:101CA000043111053CF480E390E00E94520A0F5F7A
:101CB0001F4FF6CF8DE292E00E94400A0EEA11E03B
:101CC00010C28BEF91E0F8CF0093FA0124C082E0BC
:101CD000809383021092F9010093FA01EFCF8230D2
:101CE00039F58091F901E82FF0E0EB51FE4F0083C8
:101CF0008F5F8093F901E091FA014E2F50E0FA01D5
:101D0000E356F109E830F105C8F6EC5CFF4F0C949E
:101D10002417823098F283E080938302CFCF8430FF
:101D2000D0F7CCCF8530B8F7C9CF8111F4CFC6CF6B
:101D3000833021F6B4E20B13D1C1E091FA018E2F6A
:101D400090E0FC01E156F109EA30F10508F0C6C166
:101D5000E45CFF4F0C9424176091E5011091E601BB
:101D6000603418F0605441E001C040E0103418F0D5
:101D7000105401E001C000E08EEC91E00E9452138B
:101D8000402F612F89EB91E00E945213A5C19091E1
:101D9000E50160ED690F8091E60110ED180F6034E8
:101DA00020F060E9690F41E001C040E0103420F00C
:101DB00010E9180F01E001C000E08EEC91E00E94F4
:101DC0005213402F612F89EB91E00E9452132EC0D5
:101DD0008091E50190E0982F88272091E601820FFD
:101DE000911D1092D6011092D5019093D20180934B
:101DF000D1011092C1011092C0019093BD01809356
:101E0000BC016AC18091E501805390E01092D60137
:101E10001092D5019093D2018093D1011092C1010B
:101E20001092C0019093BD018093BC010E940311E8
:101E300055C16091E501F090E6010091E7018091C4
:101E4000E801603418F0605441E001C040E0EFE385
:101E5000EF1528F4F0ECFF0EEE24E39401C0E12C22
:101E600010E0102F0027080F111D8EEC91E00E944A
:101E700052134E2D6F2D89EB91E00E945213109258
:101E8000D6011092D5011093D2010093D101109286
:101E9000C1011092C0011093BD010093BC011CC18F
:101EA0001091E50110FF02C061E001C060E084E034
:101EB0000E94880711FF02C061E001C060E087E076
:101EC0000E94880712FF02C061E001C060E088E064
:101ED0000E94880713FF02C061E001C060E08BE050
:101EE0000E94880714FF02C061E001C060E08CE03E
:101EF0000E948807F1C01092B8018AE0EAE0F1E0A0
:101F0000DE01929601900D928A95E1F78AE0E4E174
:101F1000F1E0DE01119601900D928A95E1F70EEA4B
:101F200011E025EE31E03DA72CA75E0132E2A30EC1
:101F3000B11CAE014F5F5F4F7A01CC24C394D8012E
:101F40008D919C910E94D617ECA5FDA5D190FDA77F
:101F5000ECA7F6E0DF16A9F0DF1620F027E0D21696
:101F600099F1A2C086E090E00E943E174C01D50195
:101F70006D917C914D2D0E947805F80191828082AF
:101F800093C08FE190E00E943E17FC01D7018D9134
:101F90009C9122E231E031832083C2821186108637
:101FA0001486AF01435F5F4FDA0122E11D922A954B
:101FB000E9F793878287DA01CF014F961D921D9230
:101FC000A817B907D9F76DC08EE290E00E943E17BE
:101FD000FC01D7018D919C9122E331E03183208374
:101FE0001186128613861486158616861786108A21
:101FF000118A128A138A148A158A168A178A108EF1
:10200000118E128E138E148E168E158E10A2178EB0
:1020100011A212A213A214A215A216A217A210A610
:1020200011A612A613A615A614A693838283883040
:10203000910558F09C01285031092630310550F0A7
:1020400067E270E027E230E009C06AE270E02AE26D
:1020500030E004C064E270E024E230E0D9012C9169
:102060008E3091054CF08E50A10102C0440F551FD7
:102070008A95E2F7CA0109C087709927D10102C089
:10208000AA0FBB1F8A95E2F7CD0180958223DB0161
:102090008C932FE630E03583248348E753E0578361
:1020A0004683D801ED93FC930E5F1F4FB2E0AB0E59
:1020B000B11CE2E0EE0EF11CF1E0083B1F0709F055
:1020C0003ECF0AC08091E50125E0829FC001112426
:1020D0008C509E4F0E94950A0E94E8111092830234
:1020E000EDCDD8018D919C91DC01ED91FC91019099
:1020F000F081E02D09958630C1F4F801808191814D
:10210000DC01ED91FC910680F781E02D09958111AC
:102110000CC0F80180819181DC01ED91FC9104807B
:10212000F581E02D40E060E009950E5F1F4FB1E0C2
:10213000083B1B07B1F68EEC91E00E94AB0589EBE2
:1021400091E00E94AB050E9423077BCCECE6F2E015
:1021500020E030E0AECADC01A550BE4F4C914D32BC
:1021600009F4BBCA442309F4B8CA2431310509F47F
:10217000B4CA41932F5F3F4F0196ABCADC01A55013
:10218000BE4F4C914D3209F4B8CA442309F4B5CA84
:102190002431310509F4B1CA41932F5F3F4F0196B5
:1021A000A8CA4D9150ED540F5A3008F0BCCA843182
:1021B000910509F4B8CA41930196B1CA64E671E089
:1021C0008CE692E00E943319892BB1F462E671E04B
:1021D00087E592E00E943319892B19F481E090E0A1
:1021E0000DC066E671E087E592E00E943319892B05
:1021F00019F482E090E002C08FE097E290938202AF
:1022000080938102AACA0F931F93CF93DF93CDB718
:10221000DEB76E970FB6F894DEBF0FBECDBF0EECE3
:1022200011E0F80161857285CE0149960E948F14F4
:10223000F80163857485CE0143960E948F14F801DE
:1022400063817481CE010D960E948F14F80167811D
:102250007085CE0107960E948F1469E771E0CE0168
:1022600001960E94E013BE01695F7F4FCE01019687
:102270000E947C1464E871E00E94C713BE01635F92
:102280007F4F0E947C146CE871E00E94C713BE016E
:102290006D5E7F4F0E947C1463E971E00E94C7135A
:1022A000BE01675E7F4F0E947C146EE971E00E9460
:1022B000C713FC01448155816081718188EA92E0F5
:1022C0000E941D06CE0101960E947414CE0107964D
:1022D0000E947414CE010D960E947414CE01439690
:1022E0000E947414CE0149960E94741409EB11E007
:1022F000F80161857285CE0149960E948F14F8011C
:1023000063857485CE0143960E948F14F801638122
:102310007481CE010D960E948F14F801678170853B
:10232000CE0107960E948F1460EA71E0CE010196FB
:102330000E94E013BE01695F7F4FCE0101960E94AB
:102340007C1464E871E00E94C713BE01635F7F4F95
:102350000E947C146CE871E00E94C713BE016D5EA0
:102360007F4F0E947C1463E971E00E94C713BE0195
:10237000675E7F4F0E947C146EE971E00E94C71374
:10238000FC01448155816081718188EA92E00E945C
:102390001D06CE0101960E947414CE0107960E947C
:1023A0007414CE010D960E947414CE0143960E94BF
:1023B0007414CE0149960E9474146E960FB6F89468
:1023C000DEBF0FBECDBFDF91CF911F910F9108955A
:1023D0004F925F926F927F92AF92BF92CF92DF92B5
:1023E000EF92FF920F931F93CF93DF9383E290E0DE
:1023F0000E94520A8091D5019091D601692F88EAF6
:1024000092E00E94B4066091D5017091D60188EAED
:1024100092E00E94B4068091C0019091C101692FA1
:1024200088EA92E00E94B4066091C0017091C101F7
:1024300088EA92E00E94B4068091D9019091DA0175
:10244000692F88EA92E00E94B4066091D9017091E8
:10245000DA0188EA92E00E94B4068091C40190916A
:10246000C501692F88EA92E00E94B4066091C40118
:102470007091C50188EA92E00E94B406CEEAD1E0EC
:1024800068EBC62E61E0D62E8E01D8018D919D910C
:102490008D01DC01ED91FC910084F185E02D099521
:1024A0007C0144E050E0BC0188EA92E00E941D06F5
:1024B000E114F10419F0C7010E94D617C016D10625
:1024C00021F78EE00E9470089595879595958795E0
:1024D000682F88EA92E00E94B4060EEA11E0F80143
:1024E00080819181DC01ED91FC910190F081E02DE2
:1024F000099586508230B0F0F80180819181DC012D
:10250000ED91FC910280F381E02D0995F801808125
:102510009181DC01ED91FC910480F581E02D40E09A
:1025200060E009950E5F1F4FC016D106C1F64EEA56
:10253000E42E41E0F42E10E0F70180819181DC016E
:10254000ED91FC910190F081E02D0995873079F4AF
:102550008091B80181130AC0F70180819181DC016B
:10256000ED91FC910280F381E02D09951F5FB2E0AF
:10257000EB0EF11CCE14DF04F9F60E948508111150
:1025800009C08091B8018F5F181709F457C0809374
:10259000B80156C03EEAA32E31E0B32EE12CF12C57
:1025A00000E0F501819191915F01DC01ED91FC91D9
:1025B0000190F081E02D09958730B9F58091B8013F
:1025C000081710F40F5F31C00E9485082B013C01F1
:1025D000C701880F991FFC01E255FE4F5F01D5012D
:1025E0008D919C91DC01ED91FC910680F781E02DAD
:1025F00009958111C6CFF50180819181DC01ED91B2
:10260000FC910480F581E02D412F6E2D09950E94EB
:102610008508DC01CB0184199509A609B709813128
:102620009742A105B105D8F2ACCFFFEFEF1AFF0A30
:1026300025E0E216F10409F0B4CFA3CF1092B8015F
:1026400088819981DC01ED91FC910190F081E02D70
:1026500009958630A1F488819981DC01ED91FC9186
:102660000680F781E02D0995882349F088819981BA
:10267000DC01ED91FC910280F381E02D0995229619
:10268000CC16DD06E9F6DF91CF911F910F91FF90F7
:10269000EF90DF90CF90BF90AF907F906F905F9062
:1026A0004F900895FC0140836283611108C011823C
:1026B0008181811103C0CF010C94330A8181089577
:1026C0000F931F93CF93DF93EC018881998100973B
:1026D00029F02A813B812617370788F48B016F5F29
:1026E0007F4F0E945F18009761F0998388831B8356
:1026F0000A832C813D81232B11F4FC01108281E09F
:1027000001C080E0DF91CF911F910F910895EF926A
:10271000FF920F931F93CF93DF936115710511F40F
:1027200080E01CC041155105C1F07B01EC018C819A
:102730009D818A01080F191FB801CE010E94601304
:10274000882371F3288139818C819D81B701820FA3
:10275000931F0E943C191D830C8381E0DF91CF9170
:102760001F910F91FF90EF900895CF93DF93EC01AD
:1027700088819981009711F00E94D61719821882DA
:102780001D821C821B821A82DF91CF910895CF9304
:10279000DF93EC016115710561F0FB0101900020F0
:1027A000E9F73197AF01461B570B0E948713811140
:1027B00003C0CE010E94B513CE01DF91CF910895E1
:1027C000EF92FF920F931F93CF93DF93EC01198247
:1027D00018821B821A821D821C826115710521F1EB
:1027E0008B01FB0101900020E9F731977F01E61A88
:1027F000F70AB7010E946013811109C0CE01DF9171
:10280000CF911F910F91FF90EF900C94B513FD8223
:10281000EC82B80188819981DF91CF911F910F914E
:10282000FF90EF900C943C19DF91CF911F910F9185
:10283000FF90EF9008951092AB021092AA0288EEDA
:1028400093E0A0E0B0E08093AC029093AD02A0933F
:10285000AE02B093AF0282E591E09093A90280931B
:10286000A80285EC90E09093B5028093B40284ECCA
:1028700090E09093B7028093B60280EC90E0909342
:10288000B9028093B80281EC90E09093BB028093F0
:10289000BA0282EC90E09093BD028093BC0286EC79
:1028A00090E09093BF028093BE021092C1021092FA
:1028B000C2021092C3021092C40280914A0388306F
:1028C00030F48F5F80934A038093490302C01092D3
:1028D00049030E94E4086093450370934603809384
:1028E0004703909348030895FC01808191810097EC
:1028F00011F00C94D6170895CF93DF93EC01FB01F0
:1029000044815581608171810E948713811103C0C8
:10291000CE010E94B513CE01DF91CF910895CF92E1
:10292000DF92EF92FF920F931F93CF93DF93CDB778
:10293000DEB761970FB6F894DEBF0FBECDBF8C0136
:10294000CB01F80111821082138212821582148247
:102950004AE09E012F5F3F4F6901B9010E94D914DF
:10296000F60101900020E9F731977F01EC18FD088E
:10297000B701C8010E946013811104C0C8010E9400
:10298000B51308C0F801F582E482B6018081918117
:102990000E943C1961960FB6F894DEBF0FBECDBF02
:1029A000DF91CF911F910F91FF90EF90DF90CF902B
:1029B0000895BB27FB015527AA27880F991FAA1F37
:1029C000A41710F0A41B83955051B9F7A05DAA334A
:1029D00008F0A95DA193009779F7B111B193119215
:1029E000CB010C94F314DC01FC01672F7191772368
:1029F000E1F7329704C07C916D9370836291AE17BA
:102A0000BF07C8F30895E89409C097FB3EF490957A
:102A10008095709561957F4F8F4F9F4F9923A9F0B7
:102A2000F92F96E9BB279395F69587957795679546
:102A3000B795F111F8CFFAF4BB0F11F460FF1BC08A
:102A40006F5F7F4F8F4F9F4F16C0882311F096E91D
:102A500011C0772321F09EE8872F762F05C06623CB
:102A600071F096E8862F70E060E02AF09A95660F84
:102A7000771F881FDAF7880F9695879597F908953D
:102A80000E9453150C94C4150E94B61538F00E948C
:102A9000BD1520F0952311F00C94AD150C94B315D1
:102AA00011240C94F8150E94D51570F3959FC1F36D
:102AB000950F50E0551F629FF001729FBB27F00DEC
:102AC000B11D639FAA27F00DB11DAA1F649F662741
:102AD000B00DA11D661F829F2227B00DA11D621F90
:102AE000739FB00DA11D621F839FA00D611D221F4A
:102AF000749F3327A00D611D231F849F600D211D2E
:102B0000822F762F6A2F11249F5750409AF0F1F0B0
:102B100088234AF0EE0FFF1FBB1F661F771F881F19
:102B200091505040A9F79E3F510580F00C94AD158F
:102B30000C94F8155F3FE4F3983ED4F386957795AF
:102B40006795B795F795E7959F5FC1F7FE2B880FBF
:102B5000911D9695879597F9089597F99F6780E855
:102B600070E060E008959FEF80EC089500240A94DF
:102B70001616170618060906089500240A94121658
:102B80001306140605060895092E0394000C11F48B
:102B9000882352F0BB0F40F4BF2B11F460FF04C038
:102BA0006F5F7F4F8F4F9F4F089557FD9058440F91
:102BB000551F59F05F3F71F04795880F97FB991F9C
:102BC00061F09F3F79F08795089512161306140659
:102BD000551FF2CF4695F1DF08C0161617061806E6
:102BE000991FF1CF86957105610508940895E894C1
:102BF000BB2766277727CB0197F90895F999FECF70
:102C000092BD81BDF89A992780B50895262FF9992C
:102C1000FECF1FBA92BD81BD20BD0FB6F894FA9ABF
:102C2000F99A0FBE019608952F923F924F925F92AC
:102C30006F927F928F929F92AF92BF92CF92DF92CC
:102C4000EF92FF920F931F93CF93DF93CDB7DEB731
:102C5000CA1BDB0B0FB6F894DEBF0FBECDBF0994C5
:102C60002A88398848885F846E847D848C849B841C
:102C7000AA84B984C884DF80EE80FD800C811B812A
:102C8000AA81B981CE0FD11D0FB6F894DEBF0FBE59
:102C9000CDBFED0108955058BB27AA270E946316A7
:102CA0000C94C4150E94B61538F00E94BD1520F092
:102CB00039F49F3F19F426F40C94B3150EF4E09503
:102CC000E7FB0C94AD15E92F0E94D51558F3BA1700
:102CD000620773078407950720F079F4A6F50C9432
:102CE000F7150EF4E0950B2EBA2FA02D0B01B901AC
:102CF00090010C01CA01A0011124FF27591B99F072
:102D0000593F50F4503E68F11A16F040A22F232F7D
:102D1000342F4427585FF3CF469537952795A795CD
:102D2000F0405395C9F77EF41F16BA0B620B730B74
:102D3000840BBAF09150A1F0FF0FBB1F661F771FE5
:102D4000881FC2F70EC0BA0F621F731F841F48F49A
:102D5000879577956795B795F7959E3F08F0B0CF23
:102D60009395880F08F09927EE0F9795879508950A
:102D70000E94BF166894B1110C94F81508950E9432
:102D8000DD1588F09F5798F0B92F9927B751B0F00B
:102D9000E1F0660F771F881F991F1AF0BA95C9F7DF
:102DA00014C0B13091F00E94F715B1E008950C9471
:102DB000F715672F782F8827B85F39F0B93FCCF324
:102DC000869577956795B395D9F73EF4909580955C
:102DD000709561957F4F8F4F9F4F089597FB072EFA
:102DE00016F4009407D077FD09D00E942A1707FC3B
:102DF00005D03EF4909581959F4F0895709561950B
:102E00007F4F0895A1E21A2EAA1BBB1BFD010DC026
:102E1000AA1FBB1FEE1FFF1FA217B307E407F5078A
:102E200020F0A21BB30BE40BF50B661F771F881F66
:102E3000991F1A9469F760957095809590959B01FC
:102E4000AC01BD01CF010895EE0FFF1F0590F49175
:102E5000E02D0994AA1BBB1B51E107C0AA1FBB1F91
:102E6000A617B70710F0A61BB70B881F991F5A9516
:102E7000A9F780959095BC01CD0108950F931F93FC
:102E8000CF93DF938230910510F482E090E0E091DF
:102E90004D03F0914E0320E030E0A0E0B0E0309729
:102EA00019F1408151810281138148175907C8F0F7
:102EB0008417950769F4109731F012960C931297C6
:102EC00013961C9327C000934D0310934E0322C00A
:102ED0002115310519F04217530718F49A01BD0165
:102EE000EF01DF01F801DBCF21153105F9F0281BD7
:102EF000390B2430310580F48A819B81611571057D
:102F000021F0FB019383828304C090934E0380934E
:102F10004D03FE01329644C0FE01E20FF31F819380
:102F2000919322503109398328833AC020914B0371
:102F300030914C03232B41F420910601309107017D
:102F400030934C0320934B032091040130910501F1
:102F50002115310541F42DB73EB74091080150913C
:102F60000901241B350BE0914B03F0914C03E21750
:102F7000F307A0F42E1B3F0B2817390778F0AC019C
:102F80004E5F5F4F2417350748F04E0F5F1F509379
:102F90004C0340934B038193919302C0E0E0F0E037
:102FA000CF01DF91CF911F910F910895CF93DF93C0
:102FB000009709F481C0FC01329713821282A0911C
:102FC0004D03B0914E03109781F420813181820F1F
:102FD000931F20914B0330914C032817390751F56B
:102FE000F0934C03E0934B0367C0ED0120E030E029
:102FF000CE17DF0740F44A815B819E0141155105E0
:10300000F1F0EA01F5CFD383C28340815181840F6F
:10301000951FC817D90759F488819981840F951F86
:103020000296918380838A819B8193838283211579
:10303000310529F4F0934E03E0934D033DC0E901BF
:10304000FB83EA8349915991C40FD51FEC17FD0703
:1030500061F480819181840F951F0296E901998323
:103060008883828193819B838A83E0E0F0E01296DB
:103070008D919C911397009719F0FD01DC01F7CF1A
:103080008D919C9111979D012E5F3F4F820F931F51
:1030900020914B0330914C032817390769F430977E
:1030A00029F410924E0310924D0302C01382128233
:1030B000B0934C03A0934B03DF91CF910895A0E010
:1030C000B0E0E5E6F8E10C941816EC01009721F465
:1030D000CB010E943E17B4C0FC01E60FF71F9C0114
:1030E00022503109E217F30708F4A8C0D9010D9165
:1030F0001C91119706171707B0F00530110508F459
:103100009BC0C80104978617970708F495C0025022
:103110001109061B170B019311936D937C93CF013B
:103120000E94D61789C05B01A01AB10A4C01800E1B
:10313000911EA0914D03B0914E03612C712CE12C96
:10314000F12C109709F446C08D919C911197A81508
:10315000B905B1F56C0142E0C40ED11CCA14DB0400
:1031600078F14C018A189B08640142E0C40ED11C1E
:103170001296BC9012971396AC91B5E0CB16D10481
:1031800040F0B282A38391828082D9016D937C93B7
:1031900009C00E5F1F4F800F911FF901918380833B
:1031A000EB2DFA2FE114F10431F0D7011396FC93C3
:1031B000EE93129741C0F0934E03E0934D033CC051
:1031C0006816790608F43C017D0112960D90BC91B9
:1031D000A02DB7CF80914B0390914C038816990690
:1031E000E1F466167706C8F4809104019091050118
:1031F000009741F48DB79EB74091080150910901A5
:10320000841B950BE817F907C8F4F0934C03E0937F
:103210004B03F901718360830FC0CB010E943E17FD
:103220007C01009759F0A801BE010E942A19CE0125
:103230000E94D617C70104C0CE0102C080E090E012
:10324000CDB7DEB7EEE00C94341681E090E0F89450
:103250000C944319FB01DC0102C001900D92415016
:103260005040D8F70895FB01DC018D910190801941
:103270000110D9F3990B0895FB01DC0101900D9227
:0A3280000020E1F70895F894FFCF55
:10328A002D072D0700004F0320000F00100011002A
:10329A00120013000400070008000B000C000000D5
:1032AA00000008012A037A0305014803040100000B
:1032BA0000000201A3003E01A0005803040100001F
:1032CA0000000F010C013A030A016A03120100000F
:1032DA000000B4061D064B0601077C065A066E0658
:1032EA00520031004C0033002424240053512C3165
:1032FA0036000D0A002D2D2D000A4C3A5B737465B9
:10330A0070733D00206C696D69743D0020706174B2
:10331A00683D002064697374616E63653D005D00F9
:0C332A000A523A5B7374657073523D00E8
:00000001FF
